S02B00006275696C642F6E61746976652F64656275672F6170706C69636174696F6E2F6170706C69636174692F
S3150800400000500020D57C0008E5630008F16300082D
S31508004010F7630008FD630008036400080000000059
S31508004020000000000000000000000000096400080D
S315080040301564000800000000216400082D640008CB
S315080040401D7D00081D7D00081D7D00081D7D0008DA
S315080040501D7D00081D7D00081D7D00081D7D0008CA
S315080040601D7D00081D7D00081D7D00081D7D0008BA
S315080040701D7D00081D7D00081D7D00081D7D0008AA
S315080040801D7D00081D7D00081D7D00081D7D00089A
S315080040901D7D00081D7D00081D7D00081D7D00088A
S315080040A01D7D00081D7D00081D7D00081D7D00087A
S315080040B01D7D00081D7D00081D7D00081D7D00086A
S315080040C01D7D00081D7D00081D7D00081D7D00085A
S315080040D01D7D00081D7D00081D7D00081D7D00084A
S315080040E01D7D00081D7D00081D7D000800000000DC
S315080040F000000000000000000000000000000000B2
S3110800410000000000000000005FF808F155
S3150800410C10F8012B11F8013B012A28BF9A42F7D067
S3150800411CD01A70477BB972B90029BEBF00204FF080
S3150800412C004106E008BF00281CBF6FF000414FF0A5
S3150800413CFF3000F03FB8ADF1080C6DE904CE00294C
S3150800414C09DB002B1ADB05F03FF9DDF804E0DDE9A5
S3150800415C022304B07047404261EB4101002B1BDB84
S3150800416C05F032F9DDF804E0DDE9022304B040423B
S3150800417C61EB4101524263EB43037047524263EBD6
S3150800418C430305F021F9DDF804E0DDE9022304B068
S3150800419C404261EB41017047524263EB430305F021
S315080041AC13F9DDF804E0DDE9022304B0524263EBAF
S315080041BC43037047704700BF10B5054C237833B9D5
S315080041CC044B13B10448AFF300800123237010BDD0
S315080041DCE000002000000000CC96000808B5034B50
S315080041EC1BB103490348AFF3008008BD000000006B
S315080041FCE4000020CC96000880B483B000AF786049
S3150800420C7B68D3E90023104619460C37BD4680BC9B
S3150800421C7047000080B582B000AF786039607B6863
S3150800422C3968184600F034F8034A7B681A607B68CC
S3150800423C18460837BD4680BD6098000880B500AFA3
S3150800424C03F013FF03F052FE03F0A2FD03F014FF74
S3150800425C044801F075FD044800F09AF8034800F08C
S3150800426CFFF8F8E7F00600200001002018050020EA
S3150800427C80B483B000AF7860396079683B68D3E95D
S3150800428C0023C1E9002378680C37BD4680BC70470B
S3150800429C80B483B000AF78603960064A7B681A60D0
S315080042AC7B683A685A607B6818460C37BD4680BCF2
S315080042BC704700BF2C97000880B483B000AF7860B5
S315080042CC044A7B681A607B6818460C37BD4680BC66
S315080042DC704700BF3897000880B582B000AF786089
S315080042EC7B681846FFF7E8FF124A7B681A607B68FA
S315080042FC04334FF480720021184604F0D3FE7B6811
S3150800430C03F582734FF480720021184604F0CAFE36
S3150800431C7B680022C3F808247B680022C3F80C24A7
S3150800432C7B680022C3F810247B6818460837BD46FC
S3150800433C80BD00BF1497000880B582B000AF7860C6
S3150800434C7B681846FFF7B8FF104A7B681A607B68CB
S3150800435C043340220021184604F0A4FE7B6844333B
S3150800436C80220021184604F09DFE7B680022C3F8C3
S3150800437CC8217B680022C3F8CC217B680022C3F8CD
S3150800438CD0217B6818460837BD4680BDFC960008C8
S3150800439C80B584B000AF78607B68D3F808247B6856
S315080043ACD3F80C349A4254D07B68D3F80834DBB271
S315080043BCC3F58073012B06D87B68D3F808345A1CCE
S315080043CC7B68C3F808247B681A1D7B68D3F8083405
S315080043DCDBB21946104600F0AFF803461B88FB8182
S315080043ECFB894FF6FF72934216D17B68D3F80834D3
S315080043FC23F0FF0303F580727B68C3F808247B68F7
S3150800440C1A1D7B68D3F80834DBB21946104600F03F
S3150800441C93F803461B88FB817B68D3F808349A1CEF
S3150800442C7B68C3F808247B681A1D7B68D3F80834A4
S3150800443CDBB21946104600F07FF8B860B86800F091
S3150800444C8AF87B68D3F80824FB891A447B68C3F876
S3150800445C0824786800F090F800BF1037BD4680BD78
S3150800446C80B584B000AF78607B68D3F8C8217B68C8
S3150800447CD3F8CC319A4258D07B68D3F8C83103F0BC
S3150800448C3F03C3F14003012B06D87B68D3F8C83128
S3150800449C5A1C7B68C3F8C8217B681A1D7B68D3F83D
S315080044ACC83103F03F031946104600F0CAF8034614
S315080044BC1B88FB81FB894FF6FF72934217D17B68E9
S315080044CCD3F8C83123F03F0303F140027B68C3F8E5
S315080044DCC8217B681A1D7B68D3F8C83103F03F03E3
S315080044EC1946104600F0ADF803461B88FB817B681D
S315080044FCD3F8C8319A1C7B68C3F8C8217B681A1D87
S3150800450C7B68D3F8C83103F03F031946104600F010
S3150800451C98F8B860B86800F01EF87B68D3F8C8211C
S3150800452CFB891A447B68C3F8C821786800F098F8A8
S3150800453C00BF1037BD4680BD80B582B000AF78602D
S3150800454C39607B683968184600F0EEF80346184659
S3150800455C0837BD4680BD80B582B000AF78607B68F1
S3150800456C5A687B685B681B681B68796810469847AD
S3150800457C00BF0837BD4680BD90B58FB000AF7860D8
S3150800458C002387F837307B6803F50273FB62F86AF9
S3150800459C00F0D7F83863F86A00F0DFF8B8623A6BBF
S315080045ACBB6A9A4242D03B6B7B627B6A5B88002B68
S315080045BC22D07B6A03F1080407F11803184604F0A5
S315080045CCCFFC07F1100307F1180211461846FFF73E
S315080045DC4FFE07F1080307F110021146184600F0C2
S315080045ECCAF807F108031946204600F0E0F8034616
S315080045FC002B01D0012300E00023002B12D001234D
S3150800460C87F837307B6803F582727B6A1B881946F4
S3150800461C1046FFF791FF3862386AFFF79CFF7B6AF2
S3150800462C00225A803B6B10333B63B8E797F8373058
S3150800463C002B02D0786800F0E2F800BF3C37BD4684
S3150800464C90BD80B582B000AF786039607B683968F8
S3150800465C184600F0E2F9034618460837BD4680BDF1
S3150800466C90B58FB000AF7860002387F837307B6839
S3150800467CC833FB62F86A00F0DDF93863F86A00F0B3
S3150800468CE5F9B8623A6BBB6A9A4242D03B6B7B62DD
S3150800469C7B6A5B88002B22D07B6A03F1080407F13E
S315080046AC1803184604F05CFC07F1100307F118020E
S315080046BC11461846FFF7DCFD07F1080307F110024F
S315080046CC1146184600F057F807F108031946204614
S315080046DC00F06DF80346002B01D0012300E00023FF
S315080046EC002B12D0012387F837307B6803F144027C
S315080046FC7B6A1B881946104600F0B6F93862386A88
S3150800470CFFF729FF7B6A00225A803B6B10333B6309
S3150800471CB8E797F83730002B02D0786800F0B3F971
S3150800472C00BF3C37BD4690BD80B483B000AF7860FF
S3150800473C39607A683B68134418460C37BD4680BC0A
S3150800474C704780B582B000AF7860786800F09DFA43
S3150800475C034618460837BD4680BD80B582B000AF03
S3150800476C7860786800F091FA034603F500731846EA
S3150800477C0837BD4680BD80B582B000AF7860396019
S3150800478C7B683968184600F08DFA00BF78680837D8
S3150800479CBD4680BD80B483B000AF78607B68D3E932
S315080047AC0023104619460C37BD4680BC7047B0B579
S315080047BC86B000AF786039607B68D3E90023C7E917
S315080047CC022307F108031846FFF7E4FF04460D46D3
S315080047DC3B68D3E90023C7E9042307F110031846FD
S315080047ECFFF7D8FF02460B46944275EB0303B4BF9A
S315080047FC01230023DBB218461837BD46B0BDB0B549
S3150800480CADF54C7D00AF07F54C73A3F54B731860EB
S3150800481C07F54C73A3F5947207F54C73A3F54B7314
S3150800482C1B68104603F582734FF48072194604F020
S3150800483C11FC07F54C73A3F54A7207F54C73A3F5EF
S3150800484C4B731B68104603F502734FF40072194636
S3150800485C04F000FC07F54C73A3F54B731B6803F5C2
S3150800486C0273C7F82033D7F82003FFF76AFFC7F897
S3150800487C2C03D7F82003FFF770FFC7F81C03D7F8EB
S3150800488C2C23D7F81C339A420DD0D7F82C33C7F8FB
S3150800489C1833D7F8183300225A80D7F82C3310332C
S315080048ACC7F82C33EBE707F54C73A3F54B731B686A
S315080048BC0022C3F810240023C7F8283307F108038D
S315080048CCC7F81433D7F81403FFF73BFFC7F82403CC
S315080048DCD7F81403FFF741FFC7F81003D7F82423BA
S315080048ECD7F810339A4200F09380D7F82433C7F8D8
S315080048FC0C33D7F80C331B88A7F80A33D7F80C33C4
S3150800490C5B88002B7ED007F50273184600F0E8F991
S3150800491C0246B7F80A33D41807F50273184600F09E
S3150800492CDFF90146B7F80A33D7F80C235288134433
S3150800493CCD1807F54C73A3F54B731B6803F58273F7
S3150800494C184600F0CDF9024607F54C73A3F54B73E0
S3150800495C1B68D3F8103413441A462946204600F02F
S3150800496CCBF907F54C73A3F54B731B68D3F81044B6
S3150800497C07F54C73A3F54B731B6803F50273D7F84D
S3150800498C2813184600F0D0F90346A2B21A8007F588
S3150800499C4C73A3F54B731B6803F50273D7F82813EE
S315080049AC184600F0C1F90246D7F80C335B885380D9
S315080049BC07F54C73A3F54B731B6803F50273D7F80D
S315080049CC2813184600F0B0F90146D7F80C33D3E98A
S315080049DC0223C1E9022307F54C73A3F54B731B6835
S315080049ECD3F81034D7F80C2352881A4407F54C73AD
S315080049FCA3F54B731B68C3F81024D7F82833013377
S31508004A0CC7F82833D7F824331033C7F8243365E7A7
S31508004A1C00BF07F54C77BD46B0BD80B483B000AF78
S31508004A2C786039607A683B68134418460C37BD467B
S31508004A3C80BC704780B582B000AF7860786800F0AB
S31508004A4C82F9034618460837BD4680BD80B582B044
S31508004A5C00AF7860786800F076F9034603F5807342
S31508004A6C18460837BD4680BD80B582B000AF786061
S31508004A7C39607B683968184600F072F9034618469F
S31508004A8C0837BD4680BDB0B5ECB000AF07F5D87396
S31508004A9CA3F5D673186007F5D873A3F5D6731B68F8
S31508004AAC07F5847044338022194604F0D3FA07F5C7
S31508004ABCD873A3F5D47207F5D873A3F5D6731B6808
S31508004ACC1046C8334FF48072194604F0C3FA07F53A
S31508004ADCD873A3F5D6731B68C833C7F8A031D7F8B3
S31508004AECA001FFF7A7FFC7F8AC01D7F8A001FFF79D
S31508004AFCADFFC7F89C01D7F8AC21D7F89C319A4280
S31508004B0C0DD0D7F8AC31C7F89831D7F898310022C0
S31508004B1C5A80D7F8AC311033C7F8AC31EBE707F548
S31508004B2CD873A3F5D6731B680022C3F8D0210023CB
S31508004B3CC7F8A83107F10803C7F89431D7F89401D8
S31508004B4CFFF778FFC7F8A401D7F89401FFF77EFFA3
S31508004B5CC7F89001D7F8A421D7F890319A4200F0FB
S31508004B6C8F80D7F8A431C7F88C31D7F88C311B88CD
S31508004B7CA7F88A31D7F88C315B88002B7AD007F5E1
S31508004B8C8473184600F0F9F80246B7F88A31D41837
S31508004B9C07F58473184600F0F0F80146B7F88A3121
S31508004BACD7F88C2152881344CD1807F5D873A3F57A
S31508004BBCD6731B684433184600F0DFF8024607F52F
S31508004BCCD873A3F5D6731B68D3F8D03113441A4699
S31508004BDC2946204600F090F807F5D873A3F5D67346
S31508004BEC1B68D3F8D04107F5D873A3F5D6731B68A1
S31508004BFCC833D7F8A811184600F0CBF80346A2B26A
S31508004C0C1A8007F5D873A3F5D6731B68C833D7F87B
S31508004C1CA811184600F0BDF80246D7F88C315B8807
S31508004C2C538007F5D873A3F5D6731B68C833D7F822
S31508004C3CA811184600F0ADF80146D7F88C31D3E91F
S31508004C4C0223C1E9022307F5D873A3F5D6731B68AB
S31508004C5CD3F8D031D7F88C2152881A4407F5D87373
S31508004C6CA3F5D6731B68C3F8D021D7F8A83101333E
S31508004C7CC7F8A831D7F8A4311033C7F8A43169E7B7
S31508004C8C00BF07F5D877BD46B0BD80B582B000AF7A
S31508004C9C78607B68184600F08BF803461846083788
S31508004CACBD4680BD80B584B000AF78603960386881
S31508004CBCFFF7A2FA094A4FF00003FFF72BFA024650
S31508004CCC0B46C7E9022307F108031946786800F072
S31508004CDC79F878681037BD4680BD00BF40420F0092
S31508004CEC80B582B000AF7860786800F07CF803462F
S31508004CFC18460837BD4680BD90B585B000AFF8603C
S31508004D0CB9607A60F86800F07BF80446B86800F079
S31508004D1C77F803467A681946204600F07BF803466E
S31508004D2C18461437BD4690BD80B582B000AF786082
S31508004D3C39607B683968184600F08FF803461846C0
S31508004D4C0837BD4680BD80B582B000AF78607B68F9
S31508004D5C184600F090F8034618460837BD4680BD3D
S31508004D6C80B483B000AF786039607A683B681344C6
S31508004D7C18460C37BD4680BC704780B582B000AF6C
S31508004D8C7860786800F081F8034618460837BD46FF
S31508004D9C80BD80B582B000AF786039607B683968B1
S31508004DAC184600F07FF8034618460837BD4680BDFE
S31508004DBC80B483B000AF78607B6818460C37BD4664
S31508004DCC80BC704780B483B000AF786039603B68AC
S31508004DDCD3E900237968C1E900237B6818460C37A8
S31508004DECBD4680BC704780B582B000AF78607B68E2
S31508004DFC184600F065F8034618460837BD4680BDC8
S31508004E0C80B483B000AF78607B6818460C37BD4613
S31508004E1C80BC7047B0B584B000AFF860B9607A60F2
S31508004E2CF86800F057F80446B86800F053F80546D9
S31508004E3C7B68184600F04EF803461A462946204663
S31508004E4C00F052F802463B1D1146184600F05CF875
S31508004E5C034618461037BD46B0BD80B483B000AFC4
S31508004E6C786039603B681B017A68134418460C371E
S31508004E7CBD4680BC704780B483B000AF78607B6851
S31508004E8C18460C37BD4680BC704780B582B000AF5B
S31508004E9C78607B68184600F042F8034618460837CF
S31508004EACBD4680BD80B483B000AF786039603B687E
S31508004EBC1B017A68134418460C37BD4680BC7047EC
S31508004ECC80B483B000AF78607B6818460C37BD4653
S31508004EDC80BC704780B483B000AF78607B68184696
S31508004EEC0C37BD4680BC704780B584B000AFF860FF
S31508004EFCB9607A607A68B968F86800F01AF80346F7
S31508004F0C18461037BD4680BD80B483B000AF7860B4
S31508004F1C39603B6818460C37BD4680BC704780B470
S31508004F2C83B000AF78607B6818460C37BD4680BCEA
S31508004F3C704780B584B000AFF860B9607A607A685B
S31508004F4CB968F86800F005F8034618461037BD46E8
S31508004F5C80BD80B586B000AFF860B9607A60BA6873
S31508004F6CFB68D31A7B617B69002B05D07B691A46D3
S31508004F7CF968786804F07CF87B697A6813441846F3
S31508004F8C1837BD4680BD000080B582B000AF78608A
S31508004F9C39607B68012B0ED13B684FF6FF72934242
S31508004FAC09D10748FFF798F90648FFF7C5F90449E8
S31508004FBC0548FFF72FF900BF0837BD4680BD00BF6F
S31508004FCC0001002018050020F0060020B0B588B0B6
S31508004FDC00AF786039603B680233BB617B68D3F8F5
S31508004FECCC3103F03F03FB61012002F0BFFEFB69E5
S31508004FFC3F2B1FD8FA69BB691344402B1AD9FB6996
S3150800500C002B17D07B680433F9691846FFF719FB90
S3150800501C78617B69FF221A707B68D3F8CC315A1CED
S3150800502C7B68C3F8CC217B68D3F8CC3103F03F03FB
S3150800503CFB61E4E77B680433F9691846FFF701FB63
S3150800504C38613B689AB23B691A807B68D3F8CC31D5
S3150800505C9A1C7B68C3F8CC217B681D1D7B68D3F82A
S3150800506CCC417B680433184600F0F7F90346B4FBC9
S3150800507CF3F202FB03F3E31A19462846FFF7E1FAA3
S3150800508CF8607B68D3F8CC213B681A447B68C3F874
S3150800509CCC21002002F06AFEFB6818462037BD4674
S315080050ACB0BD90B593B000AF78613961C7E90223FA
S315080050BC7B69D3F8D0213B69D4187B6944331846ED
S315080050CC00F0D5F903469C428CBF01230023DBB2C2
S315080050DC002B01D0002363E0012002F047FE7B6918
S315080050ECC8333B64386CFFF7A5FC7864386CFFF75B
S315080050FCADFCF8637A6CFB6B9A424DD07B6CBB6348
S3150800510CBB6B5B88002B43D17B69D3F8D0319AB241
S3150800511CBB6B1A803B699AB2BB6B5A8007F12803A2
S3150800512C184603F01DFF07F1200307F12802114664
S3150800513C1846FFF79DF807F1180307F120021146E8
S3150800514C1846FFF718FBBC6B3B4607F1080207F13C
S3150800515C1801184600F095F9D7E90023C4E902238B
S3150800516C7B6903F144027B69D3F8D03119461046A2
S3150800517CFFF77AFC78637B69D3F8D0213B691A442C
S3150800518C7B69C3F8D021002002F0F0FD7B6B07E0A9
S3150800519C7B6C10337B64ADE7002002F0E7FD00233F
S315080051AC18464C37BD4690BD80B485B000AF7860C4
S315080051BC39603B680233FB607B68D3F8CC21FB680B
S315080051CC1A447B68D3F8C831D31A402B94BF0123F1
S315080051DC0023DBB218461437BD4680BC704790B521
S315080051EC83B000AF786039607B68D3F8D0213B6810
S315080051FCD4187B684433184600F039F903469C42A8
S3150800520C94BF01230023DBB218460C37BD4690BD6C
S3150800521CB0B588B000AF786039603B680233BB61C3
S3150800522C7B68D3F80C34DBB2FB61012002F09EFDDF
S3150800523CFB69FF2B1FD8FA69BB691344B3F5807F4A
S3150800524C19D9FB69002B16D07B680433F969184603
S3150800525CFFF772F978617B69FF221A707B68D3F8BD
S3150800526C0C345A1C7B68C3F80C247B68D3F80C34B2
S3150800527CDBB2FB61E5E77B680433F9691846FFF78F
S3150800528C5BF938613B689AB23B691A807B68D3F83C
S3150800529C0C349A1C7B68C3F80C247B681D1D7B6830
S315080052ACD3F80C447B680433184600F01AF9034605
S315080052BCB4FBF3F202FB03F3E31A19462846FFF78D
S315080052CC3BF9F8607B68D3F80C243B681A447B6876
S315080052DCC3F80C24002002F049FDFB681846203759
S315080052ECBD46B0BD90B593B000AF78613961C7E9DA
S315080052FC02237B69D3F810243B69D4187B6903F520
S3150800530C8273184600F0EDF803469C428CBF0123C5
S3150800531C0023DBB2002B01D0002364E0012002F04D
S3150800532C25FD7B6903F502733B64386CFFF709FAB4
S3150800533C7864386CFFF711FAF8637A6CFB6B9A424F
S3150800534C4DD07B6CBB63BB6B5B88002B43D17B69F5
S3150800535CD3F810349AB2BB6B1A803B699AB2BB6B02
S3150800536C5A8007F12803184603F0FAFD07F12003C3
S3150800537C07F1280211461846FEF77AFF07F11803BB
S3150800538C07F1200211461846FFF7F5F9BC6B3B46A8
S3150800539C07F1080207F11801184600F072F8D7E968
S315080053AC0023C4E902237B6903F582727B69D3F86F
S315080053BC103419461046FFF7BFF878637B69D3F8A3
S315080053CC10243B691A447B69C3F81024002002F0A8
S315080053DCCDFC7B6B07E07B6C10337B64ADE7002060
S315080053EC02F0C4FC002318464C37BD4690BD80B469
S315080053FC85B000AF786039603B680233FB607B6828
S3150800540CD3F80C24FB681A447B68D3F80834D31AEF
S3150800541CB3F5807F94BF01230023DBB218461437FB
S3150800542CBD4680BC704790B583B000AF78603960D4
S3150800543C7B68D3F810243B68D4187B6803F5827311
S3150800544C184600F04EF803469C4294BF01230023ED
S3150800545CDBB218460C37BD4690BD80B483B000AF9E
S3150800546C7860402318460C37BD4680BC704780B41C
S3150800547C83B000AF7860802318460C37BD4680BCD5
S3150800548C70472DE9B0438AB000AFF860B9607A600E
S3150800549CBB68D3E90023C7E9062307F118031846A6
S315080054ACFFF778F904460D467B68D3E90023C7E96C
S315080054BC082307F120031846FFF76CF902460B463A
S315080054CC14EB020845EB0309C7E9048907F1100335
S315080054DC1946F868FFF776FCF8682837BD46BDE824
S315080054ECB08380B483B000AF78604FF480731846ED
S315080054FC0C37BD4680BC704780B500AF4FF6FF71C0
S3150800550C0120FFF741FD80BD80B483B000AF786001
S3150800551C39607B683A681A607B6818460C37BD4652
S3150800552C80BC704780B483B000AF78607B6818463F
S3150800553C0C37BD4680BC704780B582B000AF78602A
S3150800554C39607B683968184600F044F8034A7B686A
S3150800555C1A607B6818460837BD4680BD3098000827
S3150800556C90B589B000AF7860396002F0A7FC0346A5
S3150800557C03F5741303F51063DB00BB607B6803F05B
S3150800558C0F03DAB23B7A62F3C6033B72BC6807F1C7
S3150800559C0C033968184600F031F807F10C03194664
S315080055AC204602F051FC07F10C03184600F047F8A8
S315080055BC00BF2437BD4690BD80B582B000AF786079
S315080055CC7B680433184600F03AF87B6818460837A7
S315080055DCBD4680BD80B483B000AF78603960064A9A
S315080055EC7B681A607B683A685A607B6818460C3781
S315080055FCBD4680BC704700BFEC970008B0B582B0BA
S3150800560C00AF7860396078687B680C3308221946D5
S3150800561C00F030F87C683B68184600F04EF80546F2
S3150800562C3B68184600F054F803461A4629462046A5
S3150800563C00F059F87B6818460837BD46B0BD80B5EA
S3150800564C82B000AF78607B68184600F063F87B6818
S3150800565C184600F025F87B6818460837BD4680BD05
S3150800566C80B483B000AF78607B6818460C37BD46AB
S3150800567C80BC704780B584B000AFF860B9607A60BA
S3150800568CFB6879681846FFF73FFFFB68BA685A60EB
S3150800569CFB68BA689A60FB6818461037BD4680BD29
S315080056AC80B582B000AF78607B681846FFF73AFF82
S315080056BC7B6818460837BD4680BD80B483B000AFFA
S315080056CC78607B685B6818460C37BD4680BC7047AB
S315080056DC80B483B000AF78607B689B6818460C373B
S315080056ECBD4680BC704780B584B000AFF860B96021
S315080056FC7A60F86800F047F8FB685B681A467968C0
S3150800570CB86800F054F80246FB689A6000BF103778
S3150800571CBD4680BD80B582B000AF7860786800F071
S3150800572C32F800BF0837BD4680BD80B582B000AFE1
S3150800573C786039603B681A787B681A707B681A1D22
S3150800574C3B68043319461046FFF758FF7B68184622
S3150800575C0837BD4680BD80B584B000AFF860B96027
S3150800576C7A603B60FB687A681A60FB68BA685A60AC
S3150800577CFB68083339681846FFF7D7FFFB681846E5
S3150800578C1037BD4680BD80B582B000AF78607B68A7
S3150800579C5A687B689B681946104600F018F87B68AF
S315080057AC5A687B689A6000BF0837BD4680BD80B5CD
S315080057BC84B000AFF860B9607A607A68B968F8683E
S315080057CC00F00FF8034618461037BD4680BD80B466
S315080057DC83B000AF7860396000BF0C37BD4680BC1B
S315080057EC704790B585B000AFF860B9607A60F86814
S315080057FC00F00FF80446B86800F00BF803467A6810
S3150800580C1946204600F00FF8034618461437BD46CD
S3150800581C90BD80B483B000AF78607B6818460C37AF
S3150800582CBD4680BC7047B0B584B000AFF860B960AF
S3150800583C7A60F86800F01AF80446B86800F016F8AA
S3150800584C05467B681846FFF745FB03461A46294664
S3150800585C204600F015F802463B1D11461846FFF780
S3150800586C53FB034618461037BD46B0BD80B483B00B
S3150800587C00AF78607B6818460C37BD4680BC70470D
S3150800588C80B584B000AFF860B9607A607A68B96898
S3150800589CF86800F005F8034618461037BD4680BD73
S315080058AC80B584B000AFF860B9607A607A68B96878
S315080058BCF868FFF74EFB034618461037BD4680BD01
S315080058CC80B582B000AF786039607B68012B08D14F
S315080058DC3B684FF6FF72934203D104490448FFF71D
S315080058EC2BFE00BF0837BD4680BD00BF0001002057
S315080058FCF806002080B500AF4FF6FF710120FFF7C0
S3150800590CDFFF80BDB0B598B002AF786039603B68F0
S3150800591C0C33184600F078F804463B680C331846E6
S3150800592C00F07DF8014607F140031A462046FFF7BA
S3150800593CE3F93B681A7A97F84030002B14BF012319
S3150800594C0023DBB21946104602F004FB3B6C23F02D
S3150800595CFF03002B51D097F84030002B0CBF0123C6
S3150800596C0023DBB287F83830BB6B6FF31F23BB639E
S3150800597C07F13803184600F05DF8044607F13803BA
S3150800598C184600F061F8024607F12403214618462A
S3150800599C00F065F83B681B7A3B7307F1240207F1A4
S315080059AC0C03043311461846FFF728FE7C6807F1EA
S315080059BC0C031846FFF754FE05463B6CC3F3172336
S315080059CC7B6507F1540207F148031146184600F0A7
S315080059DC5EF8D7E91223CDE900232B46022221468D
S315080059EC084800F067F807F10C031846FFF7E4FDC2
S315080059FC07F124031846FFF722FE00BF5837BD46A9
S31508005A0CB0BD00BF0001002080B483B000AF786041
S31508005A1C7B685B6818460C37BD4680BC704780B4FB
S31508005A2C83B000AF78607B689B6818460C37BD4618
S31508005A3C80BC704780B483B000AF78607B6818462A
S31508005A4C0C37BD4680BC704780B483B000AF786015
S31508005A5C7B68083318460C37BD4680BC704780B542
S31508005A6C84B000AFF860B9607A60F868FB680C33EC
S31508005A7C08221946FFF7FEFDFB687A68B9681846CE
S31508005A8C00F040F8FB6818461037BD4680BD80B458
S31508005A9C83B000AF786039603968096800200A4617
S31508005AAC03467968C1E900237B6818460C37BD465E
S31508005ABC80BC704790B587B000AFF860B9607A6063
S31508005ACC3B60FB681B680C331B682021F8689847F9
S31508005ADC0346002B12D03868FFF7C2FD0446D7E9F7
S31508005AEC0A23C7E90423D7E90423F968202000F020
S31508005AFC20F823467A68B968FFF72DFE00BF1C37D5
S31508005B0CBD4690BD80B584B000AFF860B9607A60C8
S31508005B1CF868FFF738FEFB685B681A467968B86858
S31508005B2C00F01CF80246FB689A6000BF1037BD46A9
S31508005B3C80BD90B585B000AFF860B960C7E90023A1
S31508005B4CBB681B6804331C68D7E90023F968B86876
S31508005B5CA047034618461437BD4690BD80B584B099
S31508005B6C00AFF860B9607A607A68B968F868FFF7C8
S31508005B7CC3F8034618461037BD4680BD80B483B0BB
S31508005B8C00AF786039603B6818460C37BD4680BC58
S31508005B9C7047000090B5BFB002AF786039603B68BB
S31508005BAC9B68002B25D102F0B7FA7C680123C7F84D
S31508005BBC84300223C7F89C3007F19C0207F1900346
S31508005BCC1146184600F0F5F807F1900207F188031C
S31508005BDC1146184600F000F907F18401D7E922238B
S31508005BECCDE900230B4600222146544800F00EF955
S31508005BFCA0E03B689B68012B40F09C8007F10C03E6
S31508005C0C184600F02BF907F10C03184602F0A0FA17
S31508005C1C07F10C03C7F8E430D7F8E430184600F05F
S31508005C2C42F9C7F8EC00D7F8E430184600F046F904
S31508005C3CC7F8E000D7F8EC20D7F8E0309A4251D0F4
S31508005C4CD7F8EC30C7F8DC30D7F8DC2007F17C0342
S31508005C5C1068516803C307F16803184600F039F950
S31508005C6C07F17C03C7F8D830D7F8D830C7F8E8302E
S31508005C7CD7F8D8300833C7F8D430D7F8E820D7F88F
S31508005C8CD4309A4210D0D7F8E830C7F8D03007F19C
S31508005C9C6803D7F8D010184600F02FF9D7F8E83073
S31508005CAC0133C7F8E830E8E707F1680207F1A00303
S31508005CBC11461846FFF7A2FC07F1A00319460E2059
S31508005CCCFFF74EFC07F1A0031846FFF7B8FC07F1DF
S31508005CDC68031846FFF7B3FCD7F8EC300833C7F857
S31508005CECEC30A7E77C680023C7F8B4300123C7F863
S31508005CFCCC3007F1CC0207F1C0031146184600F068
S31508005D0C58F807F1C00207F1B8031146184600F017
S31508005D1C63F807F1B401D7E92E23CDE900230B4626
S31508005D2C00222146054800F071F807F10C031846C5
S31508005D3C00F0A8F800BFF437BD4690BD000100205E
S31508005D4C90B58DB002AF78607C680023FB600123A8
S31508005D5C7B6207F1240207F118031146184600F076
S31508005D6C28F807F1180207F110031146184600F037
S31508005D7C33F807F10C01D7E90423CDE900230B46C8
S31508005D8C00222146034800F041F800BF2C37BD46D7
S31508005D9C90BD00BF0001002080B483B000AF7860CE
S31508005DAC7B68D3E90023104619460C37BD4680BCE0
S31508005DBC704780B483B000AF786039603968096879
S31508005DCCC8170A4603467968C1E900237B68184652
S31508005DDC0C37BD4680BC704780B584B000AF786080
S31508005DEC396007F108033968184600F093F807F18B
S31508005DFC08031846FEF7CEFC02460B467968C1E93D
S31508005E0C00237B6818461037BD4680BD90B587B011
S31508005E1C00AFF860B9607A603B60FB681B680C33AE
S31508005E2C1B680C21F86898470346002B12D0386873
S31508005E3C00F07FF80446D7E90A23C7E90423D7E913
S31508005E4C0423F9680C2000F07EF823467A68B968B2
S31508005E5C00F08EF800BF1C37BD4690BD80B582B0E9
S31508005E6C00AF786078687B680C330A22194600F014
S31508005E7C96F87B68184600F0B5F87B68184608371C
S31508005E8CBD4680BD80B582B000AF78607B68184689
S31508005E9C00F0BCF87B68184600F097F87B68184643
S31508005EAC0837BD4680BD80B483B000AF78607B6888
S31508005EBC5B6818460C37BD4680BC704780B483B007
S31508005ECC00AF78607B689B6818460C37BD4680BC6B
S31508005EDC704780B582B000AF786078687B680C3301
S31508005EEC08221946FFF7C6FB7B681846FFF74BFCDA
S31508005EFC7B6818460837BD4680BD80B582B000AFB2
S31508005F0C786039603968786800F08BF800BF083714
S31508005F1CBD4680BD80B582B000AF786039607B68BD
S31508005F2C3968184600F091F800BF78680837BD46FE
S31508005F3C80BD80B483B000AF78607B6818460C3798
S31508005F4CBD4680BC704790B585B000AFF860B960A7
S31508005F5CC7E90023BB681B6804331C68D7E9002310
S31508005F6CF968B868A047034618461437BD4690BD6D
S31508005F7C80B485B000AFF860B9607A603B60FB68A6
S31508005F8C7A681A60FB68BA685A603B681A68FB68D4
S31508005F9C9A60FB6818461437BD4680BC704780B5B6
S31508005FAC84B000AFF860B9607A60FB687968184607
S31508005FBCFFF7AAFAFB68BA685A60FB68BA689A606F
S31508005FCCFB6818461037BD4680BD80B582B000AF59
S31508005FDC78607B681846FFF7A5FA7B681846083779
S31508005FECBD4680BD80B582B000AF78607B685A68C4
S31508005FFC7B689B681946104600F06AF87B685A68F5
S3150800600C7B689A6000BF0837BD4680BD80B582B0F4
S3150800601C00AF78607868FFF7E5FF00BF0837BD4624
S3150800602C80BD80B582B000AF786039607B689B68AC
S3150800603C3968184600F056F87B689B685A1C7B68CA
S3150800604C9A6000BF0837BD4680BD2DE9B04F84B0B5
S3150800605C00AF786039603868FFF79EFE02460B463B
S3150800606C4FF0000A4FF0000B4FEA431B4BEAD26B7A
S3150800607C4FEA421A52465B46141A63EB01054FF077
S3150800608C00024FF00003AB0043EA9473A2001446D7
S3150800609C1D4614EB000845EB01094FF000024FF0C2
S315080060AC00034FEAC90343EA58734FEAC8029046FD
S315080060BC994642464B46C7E9022307F10803194697
S315080060CC7868FEF77FFE78681037BD46BDE8B08F56
S315080060DC80B483B000AF7860396000BF0C37BD461A
S315080060EC80BC704780B582B000AF786039607B6839
S315080060FC19460120FFF742FD02463B681B781370D0
S3150800610C00BF0837BD4680BD80B500AF00F054FD12
S3150800611C00F009F800F0A6F800F040F800F074F862
S3150800612CFEF78CF8FEE780B590B000AF07F11803C0
S3150800613C28220021184602F0B5FF3B1D00221A60E2
S3150800614C5A609A60DA601A610223BB610123BB624A
S3150800615C1023FB6200237B6307F11803184600F033
S3150800616C8DFD0346002B01D000F030F90F237B6020
S3150800617C0023BB60A023FB6000233B6100237B61EB
S3150800618C3B1D0021184600F0FBFF0346002B01D0EF
S3150800619C00F01CF900BF4037BD4680BD80B500AF86
S315080061AC174B184A1A60164B05225A60144B0022D4
S315080061BC9A60134B0022DA60114B4FF4A0221A6135
S315080061CC0F4B4FF480125A610D4B00221A760C4B6A
S315080061DC00225A760A4B00229A76094B0022DA7666
S315080061EC074B00221A77064B00225A77044800F010
S315080061FCDBF90346002B01D000F0E8F800BF80BDA0
S3150800620C000700200064004080B500AF124B134A0B
S3150800621C1A60114B124A5A600F4B00229A600E4BA9
S3150800622C0022DA600C4B4FF480421A610A4B0022AA
S3150800623C5A61094B00229A61074B0022DA61064B18
S3150800624C00221A62044801F0D5FB0346002B01D044
S3150800625C00F0BCF800BF80BD28070020005800409D
S3150800626CA086010080B58AB000AF07F1140300229E
S3150800627C1A605A609A60DA604E4B9B694D4A43F035
S3150800628C100393614B4B9B6903F010033B613B690D
S3150800629C484B9B69474A43F020039361454B9B69DE
S315080062AC03F02003FB60FB68424B9B69414A43F0B1
S315080062BC040393613F4B9B6903F00403BB60BB6803
S315080062CC3C4B9B693B4A43F008039361394B9B69EA
S315080062DC03F008037B607B6800224FF46041364864
S315080062EC01F06FFB00220321344801F06AFB0022FF
S315080062FC1721334801F065FB00224FF470713148C1
S3150800630C01F05FFB4FF460437B610123BB61002303
S3150800631CFB6102233B6207F114031946264801F078
S3150800632CB5F903237B610123BB610023FB610223BF
S3150800633C3B6207F114031946204801F0A7F9172305
S3150800634C7B610123BB610023FB6102233B6207F1DE
S3150800635C140319461A4801F099F901237B610023A5
S3150800636CBB610023FB6107F114031946154801F0BC
S3150800637C8DF94FF470737B610123BB610023FB61BC
S3150800638C02233B6207F1140319460E4801F07EF905
S3150800639C0D4B5B687B627B6A43F0E0637B627B6ACE
S315080063AC43F400437B62084A7B6A536000BF283774
S315080063BCBD4680BD0010024000100140001401408B
S315080063CC00080140000C01400000014080B400AFF9
S315080063DC00BFBD4680BC704780B400AF00BFBD4649
S315080063EC80BC704780B400AFFEE780B400AFFEE710
S315080063FC80B400AFFEE780B400AFFEE780B400AF10
S3150800640C00BFBD4680BC704780B400AF00BFBD4618
S3150800641C80BC704780B400AF00BFBD4680BC7047D7
S3150800642C80B500AF00F00EFC00BF80BD80B485B00F
S3150800643C00AF154B9B69144A43F001039361124B49
S3150800644C9B6903F00103BB60BB680F4BDB690E4A03
S3150800645C43F08053D3610C4BDB6903F080537B60AC
S3150800646C7B680A4B5B68FB60FB6823F0E063FB60A8
S3150800647CFB6843F00073FB60044AFB68536000BF7B
S3150800648C1437BD4680BC704700100240000001401E
S3150800649C80B588B000AF786007F1100300221A6047
S315080064AC5A609A60DA607B681B681C4A934231D141
S315080064BC1B4BDB691A4A43F00073D361184BDB6933
S315080064CC03F00073FB60FB68154B9B69144A43F099
S315080064DC04039361124B9B6903F00403BB60BB680E
S315080064EC4FF400633B6100237B610023BB6107F11A
S315080064FC100319460B4801F0C9F84FF480533B6159
S3150800650C02237B610323FB6107F110031946054837
S3150800651C01F0BCF800BF2037BD4680BD00640040C2
S3150800652C001002400008014080B588B000AF7860C2
S3150800653C07F1100300221A605A609A60DA607B68C9
S3150800654C1B68164A934224D1154B9B69144A43F08F
S3150800655C08039361124B9B6903F00803FB60FB6805
S3150800656C4FF440633B6112237B610323FB6107F104
S3150800657C100319460B4801F089F8094BDB69084AE0
S3150800658C43F48003D361064BDB6903F48003BB60D9
S3150800659CBB6800BF2037BD4680BD00BF0058004011
S315080065AC00100240000C014080B584B000AF786042
S315080065BC7B68002B01D10123EDE07B6893F8203032
S315080065CCDBB2002B02D17868FFF762FF7B681B6889
S315080065DC1A687B681B6822F002021A6000F044FBFA
S315080065ECF86012E000F040FB0246FB68D31A0A2B4F
S315080065FC0BD97B685B6A43F400327B685A627B680A
S3150800660C052283F820200123C5E07B681B685B689C
S3150800661C03F00203002BE5D17B681B681A687B68BC
S3150800662C1B6842F001021A6000F01EFBF86012E0CB
S3150800663C00F01AFB0246FB68D31A0A2B0BD97B68A7
S3150800664C5B6A43F400327B685A627B68052283F8DE
S3150800665C202001239FE07B681B685B6803F001031D
S3150800666C002BE5D07B681B7E012B08D17B681B6849
S3150800667C1A687B681B6842F080021A6007E07B6820
S3150800668C1B681A687B681B6822F080021A607B6894
S3150800669C5B7E012B08D17B681B681A687B681B68B4
S315080066AC42F040021A6007E07B681B681A687B6830
S315080066BC1B6822F040021A607B689B7E012B08D16E
S315080066CC7B681B681A687B681B6842F020021A6094
S315080066DC07E07B681B681A687B681B6822F0200237
S315080066EC1A607B68DB7E012B08D17B681B681A68ED
S315080066FC7B681B6822F010021A6007E07B681B682F
S3150800670C1A687B681B6842F010021A607B681B7F4C
S3150800671C012B08D17B681B681A687B681B6842F0DA
S3150800672C08021A6007E07B681B681A687B681B6896
S3150800673C22F008021A607B685B7F012B08D17B6804
S3150800674C1B681A687B681B6842F004021A6007E02B
S3150800675C7B681B681A687B681B6822F004021A603F
S3150800676C7B689A687B68DB681A437B681B691A43E3
S3150800677C7B685B6942EA03017B685B685A1E7B6827
S3150800678C1B680A43DA617B6800225A627B6801221D
S3150800679C83F82020002318461037BD4680BD80B4E8
S315080067AC87B000AF786039607B681B687B617B6853
S315080067BC93F82030FB74FB7C012B03D0FB7C022B5B
S315080067CC40F0AA807B69D3F8003243F001027B695A
S315080067DCC3F800223B685B6903F01F03012202FA27
S315080067EC03F3FB607B69D3F81C22FB68DB431A4076
S315080067FC7B69C3F81C223B68DB69002B23D17B69B8
S3150800680CD3F80C22FB68DB431A407B69C3F80C22CD
S3150800681C3B68DB6819043B685B689BB23A6852694B
S3150800682C19437B69483243F832103B689B68190454
S3150800683C3B681B689AB23B685B690A4379694833BB
S3150800684CDB000B445A603B68DB69012B22D17B6960
S3150800685CD3F80C22FB681A437B69C3F80C223B68F5
S3150800686C1B6819043B685B689BB23A685269194302
S3150800687C7B69483243F832103B689B6819043B68BD
S3150800688CDB689AB23B685B690A4379694833DB0073
S3150800689C0B445A603B689B69002B09D17B69D3F87A
S315080068AC0422FB68DB431A407B69C3F8042207E021
S315080068BC7B69D3F80422FB681A437B69C3F8042264
S315080068CC3B681B69002B09D17B69D3F81422FB683A
S315080068DCDB431A407B69C3F8142207E07B69D3F8BB
S315080068EC1422FB681A437B69C3F814223B681B6A9B
S315080068FC012B07D17B69D3F81C22FB681A437B69E9
S3150800690CC3F81C227B69D3F8003223F001027B6999
S3150800691CC3F80022002306E07B685B6A43F48022F6
S3150800692C7B685A62012318461C37BD4680BC7047E3
S3150800693C80B584B000AF78607B6893F82030DBB202
S3150800694C012B2ED17B68022283F820207B681B68DA
S3150800695C1A687B681B6822F001021A6000F084F939
S3150800696CF86012E000F080F90246FB68D31A0A2B8D
S3150800697C0BD97B685B6A43F400327B685A627B6886
S3150800698C052283F82020012312E07B681B685B68CC
S3150800699C03F00103002BE5D17B6800225A62002321
S315080069AC06E07B685B6A43F400227B685A62012323
S315080069BC18461037BD4680BD80B489B000AFF86064
S315080069CCB9607A603B60FB6893F82030FB77FB680C
S315080069DC1B689B68BB61FB7F012B03D0FB7F022BDB
S315080069EC40F0B880BB6903F08063002B0AD1BB6901
S315080069FC03F00063002B05D1BB6903F08053002B11
S31508006A0C00F0A080BB691B0E03F003037B617B6956
S31508006A1C022B07D9FB685B6A43F40002FB685A62CF
S31508006A2C01239EE001227B699A403B681A60BB6889
S31508006A3C9B68002B0DD1BB681B685A05BB68DB68C5
S31508006A4CF96809681A437B6918331B010B441A60E9
S31508006A5C0FE0BB685B68DA00BB689B681A43BB68C7
S31508006A6CDB68F96809681A437B6918331B010B4400
S31508006A7C1A60FB681968BB681A697B6918331B01AD
S31508006A8C0B4404331A60BB681B7D012B11D1FB68C0
S31508006A9C1A687B6918331B01134404331B68FA689C
S31508006AAC116843F480727B6918331B010B44043359
S31508006ABC1A607B6807331B781A067B6806331B78C3
S31508006ACC1B041A437B6805331B781B0213437A682D
S31508006ADC043212781046FA68116843EA00027B6998
S31508006AEC1B010B4403F5C6731A607B6803331B78CA
S31508006AFC1A067B6802331B781B041A437B6801331E
S31508006B0C1B781B0213437A6812781046FA681168C8
S31508006B1C43EA00027B691B010B4403F5C4731A6034
S31508006B2CFB681A687B6918331B0113441B68FA68DF
S31508006B3C116843F001027B6918331B010B441A6078
S31508006B4C00230EE0FB685B6A43F40012FB685A628A
S31508006B5C012306E0FB685B6A43F48022FB685A62F1
S31508006B6C012318462437BD4680BC704780B485B0CF
S31508006B7C00AF786039607B6893F82030FB73FB7B39
S31508006B8C012B02D0FB7B022B09D17B681B68596948
S31508006B9C7B681B683A680A435A61002306E07B68DF
S31508006BAC5B6A43F480227B685A62012318461437C1
S31508006BBCBD4680BC7047000080B500AF084B1B680B
S31508006BCC074A43F010031360032000F00FFD002062
S31508006BDC00F008F8FFF72AFC0023184680BD00BF12
S31508006BEC0020024080B582B000AF7860124B1A685C
S31508006BFC124B1B7819464FF47A73B3FBF1F3B2FBBD
S31508006C0CF3F3184600F019FD0346002B01D00123B7
S31508006C1C0EE07B680F2B0AD8002279684FF0FF30FC
S31508006C2C00F0EFFC064A7B681360002300E00123A2
S31508006C3C18460837BD4680BD0C0000200800002009
S31508006C4C0400002080B400AF054B1B781A46054B90
S31508006C5C1B681344034A136000BFBD4680BC7047CB
S31508006C6C080000207C07002080B400AF024B1B688C
S31508006C7C1846BD4680BC70477C07002080B586B098
S31508006C8C00AF78607B68002B01D1012372E27B6828
S31508006C9C1B6803F00103002B00F08780924B5B689E
S31508006CAC03F00C03042B0CD08F4B5B6803F00C031E
S31508006CBC082B12D18C4B5B6803F48033B3F5803FF9
S31508006CCC0BD1894B1B6803F40033002B6CD07B6803
S31508006CDC5B68002B68D101234CE27B685B68B3F5D3
S31508006CEC803F06D1804B1B687F4A43F48033136080
S31508006CFC2EE07B685B68002B0CD17B4B1B687A4AB1
S31508006D0C23F480331360784B1B68774A23F480236B
S31508006D1C13601DE07B685B68B3F5A02F0CD1724B32
S31508006D2C1B68714A43F4802313606F4B1B686E4AC9
S31508006D3C43F4803313600BE06B4B1B686A4A23F4ED
S31508006D4C80331360684B1B68674A23F480231360EF
S31508006D5C7B685B68002B13D0FFF786FF386108E069
S31508006D6CFFF782FF02463B69D31A642B01D903232A
S31508006D7C00E25D4B1B6803F40033002BF0D014E0E3
S31508006D8CFFF772FF386108E0FFF76EFF02463B69B2
S31508006D9CD31A642B01D90323ECE1534B1B6803F478
S31508006DAC0033002BF0D100E000BF7B681B6803F0B2
S31508006DBC0203002B63D04C4B5B6803F00C03002BCF
S31508006DCC0BD0494B5B6803F00C03082B1CD1464BC4
S31508006DDC5B6803F48033002B16D1434B1B6803F016
S31508006DEC0203002B05D07B681B69012B01D00123FC
S31508006DFCC0E13D4B1B6823F0F8027B685B69DB003E
S31508006E0C394913430B603AE07B681B69002B20D089
S31508006E1C364B01221A60FFF727FF386108E0FFF7A7
S31508006E2C23FF02463B69D31A022B01D90323A1E19E
S31508006E3C2D4B1B6803F00203002BF0D02A4B1B6862
S31508006E4C23F0F8027B685B69DB00274913430B6068
S31508006E5C15E0264B00221A60FFF706FF386108E09A
S31508006E6CFFF702FF02463B69D31A022B01D903230B
S31508006E7C80E11D4B1B6803F00203002BF0D17B68E5
S31508006E8C1B6803F00803002B3AD07B689B69002B20
S31508006E9C19D0174B01221A60FFF7E6FE386108E095
S31508006EACFFF7E2FE02463B69D31A022B01D90323EC
S31508006EBC60E10D4B5B6A03F00203002BF0D0012056
S31508006ECC00F0C6FA1CE00A4B00221A60FFF7CCFE4B
S31508006EDC38610FE0FFF7C8FE02463B69D31A022B4E
S31508006EEC08D9032346E100BF0010024000004242C5
S31508006EFC80044242924B5B6A03F00203002BE9D1F1
S31508006F0C7B681B6803F00403002B00F0A6800023A3
S31508006F1CFB758B4BDB6903F08053002B0DD1884B2B
S31508006F2CDB69874A43F08053D361854BDB6903F0F1
S31508006F3C8053BB60BB680123FB75824B1B6803F44B
S31508006F4C8073002B18D17F4B1B687E4A43F48073E1
S31508006F5C1360FFF789FE386108E0FFF785FE0246E5
S31508006F6C3B69D31A642B01D9032303E1754B1B68C0
S31508006F7C03F48073002BF0D07B68DB68012B06D1F9
S31508006F8C6F4B1B6A6E4A43F0010313622DE07B6854
S31508006F9CDB68002B0CD16A4B1B6A694A23F0010388
S31508006FAC1362674B1B6A664A23F0040313621CE0E0
S31508006FBC7B68DB68052B0CD1614B1B6A604A43F076
S31508006FCC040313625E4B1B6A5D4A43F001031362AA
S31508006FDC0BE05B4B1B6A5A4A23F001031362584BAE
S31508006FEC1B6A574A23F0040313627B68DB68002B81
S31508006FFC15D0FFF739FE38610AE0FFF735FE024671
S3150800700C3B69D31A41F28832934201D90323B1E082
S3150800701C4B4B1B6A03F00203002BEED014E0FFF770
S3150800702C23FE38610AE0FFF71FFE02463B69D31AB6
S3150800703C41F28832934201D903239BE0404B1B6AE9
S3150800704C03F00203002BEED1FB7D012B05D13C4B43
S3150800705CDB693B4A23F08053D3617B68DB69002BE1
S3150800706C00F08780364B5B6803F00C03082B61D065
S3150800707C7B68DB69022B46D1334B00221A60FFF77B
S3150800708CF3FD386108E0FFF7EFFD02463B69D31ABA
S3150800709C022B01D903236DE0294B1B6803F00073FF
S315080070AC002BF0D17B681B6AB3F5803F08D1244BC3
S315080070BC5B6823F400327B689B68214913434B6059
S315080070CC1F4B5B6823F474127B68196A7B685B6ACE
S315080070DC0B431B4913434B601B4B01221A60FFF7EA
S315080070ECC3FD386108E0FFF7BFFD02463B69D31ABA
S315080070FC022B01D903233DE0114B1B6803F00073E7
S3150800710C002BF0D035E0104B00221A60FFF7ACFDCF
S3150800711C386108E0FFF7A8FD02463B69D31A022B33
S3150800712C01D9032326E0064B1B6803F00073002BDA
S3150800713CF0D11EE07B68DB69012B07D1012319E02E
S3150800714C0010024000700040600042420B4B5B6826
S3150800715CFB60FB6803F480327B681B6A9A4206D193
S3150800716CFB6803F470127B685B6A9A4201D00123B0
S3150800717C00E0002318461837BD4680BD00100240B3
S3150800718C80B584B000AF786039607B68002B01D17C
S3150800719C0123D0E06A4B1B6803F007033A689A424E
S315080071AC10D9674B1B6823F0070265493B681343E4
S315080071BC0B60634B1B6803F007033A689A4201D0CD
S315080071CC0123B8E07B681B6803F00203002B20D070
S315080071DC7B681B6803F00403002B05D0594B5B68CE
S315080071EC584A43F4E06353607B681B6803F0080352
S315080071FC002B05D0534B5B68524A43F460535360DB
S3150800720C504B5B6823F0F0027B689B684D4913432F
S3150800721C4B607B681B6803F00103002B40D07B682E
S3150800722C5B68012B07D1474B1B6803F40033002B13
S3150800723C15D101237FE07B685B68022B07D1414B94
S3150800724C1B6803F00073002B09D1012373E03D4B37
S3150800725C1B6803F00203002B01D101236BE0394BA9
S3150800726C5B6823F003027B685B68364913434B6003
S3150800727CFFF7FAFCF8600AE0FFF7F6FC0246FB6833
S3150800728CD31A41F28832934201D9032353E02D4B8A
S3150800729C5B6803F00C027B685B689B009A42EBD137
S315080072AC274B1B6803F007033A689A4210D2244B03
S315080072BC1B6823F0070222493B6813430B60204BDB
S315080072CC1B6803F007033A689A4201D0012332E09F
S315080072DC7B681B6803F00403002B08D0194B5B680A
S315080072EC23F4E0627B68DB68164913434B607B68C2
S315080072FC1B6803F00803002B09D0124B5B6823F4B8
S3150800730C60527B681B69DB000E4913434B6000F027
S3150800731C21F802460B4B5B681B0903F00F030A495D
S3150800732CCB5C22FA03F3094A1360094B1B6818460F
S3150800733CFFF758FC002318461037BD4680BD00BF22
S3150800734C0020024000100240949800080C0000200F
S3150800735C0400002090B48AB000AF2A4B3C1D0FCB1A
S3150800736C84E80F0040F201233B800023FB610023D5
S3150800737CBB6100237B6200237B6100233B62224BAB
S3150800738C5B68FB61FB6903F00C03042B02D0082B2A
S3150800739C03D02DE01D4B3B622DE0FB699B0C03F0E3
S315080073AC0F0307F12802134413F8243C7B61FB698D
S315080073BC03F48033002B13D0134B5B685B0C03F080
S315080073CC010307F12802134413F8283CBB617B69B7
S315080073DC0E4A03FB02F2BB69B2FBF3F37B6204E0D1
S315080073EC7B690B4A02FB03F37B627B6A3B6202E016
S315080073FC064B3B6200BF3B6A18462837BD4690BC15
S3150800740C704700BFE49600080010024000127A008C
S3150800741C00093D0080B400AF024B1B681846BD46F8
S3150800742C80BC70470C00002080B500AFFFF7F2FF58
S3150800743C0246054B5B681B0A03F007030349CB5C42
S3150800744C22FA03F3184680BD00100240A4980008DF
S3150800745C80B485B000AF78600A4B1B680A4AA2FB59
S3150800746C03235B0A7A6802FB03F3FB6000BFFB6825
S3150800747C5A1EFA60002BF9D100BF00BF1437BD465F
S3150800748C80BC70470C000020D34D621080B485B0C8
S3150800749C00AF78607B6803F00703FB600C4BDB6876
S315080074ACBB60BA684FF6FF031340BB60FB681A0251
S315080074BCBB68134343F0BF6343F40033BB60044A11
S315080074CCBB68D36000BF1437BD4680BC704700BF8D
S315080074DC00ED00E080B400AF044BDB681B0A03F038
S315080074EC07031846BD4680BC704700BF00ED00E098
S315080074FC80B483B000AF03463960FB7197F9073047
S3150800750C002B0ADB3B68DAB20C4997F907301201F3
S3150800751CD2B20B4483F800230AE03B68DAB2084976
S3150800752CFB7903F00F03043B1201D2B20B441A7613
S3150800753C00BF0C37BD4680BC704700BF00E100E0B9
S3150800754C00ED00E080B489B000AFF860B9607A60ED
S3150800755CFB6803F00703FB61FB69C3F10703042B04
S3150800756C28BF0423BB61FB690433062B02D9FB69CC
S3150800757C033B00E000237B614FF0FF32BB6902FA44
S3150800758C03F3DA43BB681A407B699A404FF0FF3124
S3150800759C7B6901FA03F3D9437B680B4013431846FE
S315080075AC2437BD4680BC704780B582B000AF786082
S315080075BC7B68013BB3F1807F01D301230FE00A4AB4
S315080075CC7B68013B53600F214FF0FF30FFF790FFAC
S315080075DC054B00229A60044B07221A6000231846B2
S315080075EC0837BD4680BD00BF10E000E080B582B00C
S315080075FC00AF78607868FFF749FF00BF0837BD46CB
S3150800760C80BD80B586B000AF0346B9607A60FB735F
S3150800761C00237B61FFF75EFF78617A68B968786941
S3150800762CFFF790FF024697F90F3011461846FFF7F9
S3150800763C5FFF00BF1837BD4680BD80B582B000AF6E
S3150800764C78607868FFF7B0FF034618460837BD46DA
S3150800765C80BD000080B483B000AF78607B68042BD3
S3150800766C06D1094B1B68084A43F00403136005E06E
S3150800767C054B1B68044A23F00403136000BF0C3740
S3150800768CBD4680BC704700BF10E000E080B48BB0EC
S3150800769C00AF7860396000237B6200233B6269E1A6
S315080076AC01227B6A02FA03F3FB613B681B68FA69E1
S315080076BC1340BB61BA69FB699A4240F058813B6832
S315080076CC5B689A4A93425ED0984A934275D8984A10
S315080076DC934258D0964A93426FD8964A934252D0C0
S315080076EC944A934269D8944A93424CD0924A93420C
S315080076FC63D8924A934246D0904A93425DD8122B4D
S3150800770C2AD8122B59D801A252F823F093770008DD
S3150800771C6D7700087F770008C1770008C7770008DF
S3150800772CC7770008C7770008C7770008C777000827
S3150800773CC7770008C7770008C7770008C777000817
S3150800774CC7770008C7770008C7770008C777000807
S3150800775C7577000889770008794A934213D02CE08C
S3150800776C3B68DB683B6229E03B68DB6804333B62B9
S3150800777C24E03B68DB6808333B621FE03B68DB6848
S3150800778C0C333B621AE03B689B68002B02D104233E
S3150800779C3B6213E03B689B68012B05D108233B62CF
S315080077AC7B68FA691A6109E008233B627B68FA6907
S315080077BC5A6103E000233B6200E000BFBB69FF2B64
S315080077CC01D87B6801E07B6804337B61BB69FF2BBE
S315080077DC02D87B6A9B0002E07B6A083B9B003B61F4
S315080077EC7B691A680F213B6901FA03F3DB431A40DC
S315080077FC396A3B6901FA03F31A437B691A603B68D9
S3150800780C5B6803F08053002B00F0B1804D4B9B69ED
S3150800781C4C4A43F0010393614A4B9B6903F00103FD
S3150800782CBB60BB68484A7B6A9B08023352F8233014
S3150800783CFB607B6A03F003039B000F2202FA03F337
S3150800784CDB43FA681340FB607B68404A934213D0CB
S3150800785C7B683F4A93420DD07B683E4A934207D0D9
S3150800786C7B683D4A934201D1032306E0042304E0D6
S3150800787C022302E0012300E000237A6A02F00302E5
S3150800788C92009340FA681343FB602F497B6A9B0866
S3150800789C0233FA6841F823203B685B6803F48033AB
S315080078AC002B06D02D4B1A682C49BB6913430B6069
S315080078BC06E02A4B1A68BB69DB43284913400B6060
S315080078CC3B685B6803F40033002B06D0234B5A68DD
S315080078DC2249BB6913434B6006E0204B5A68BB69C7
S315080078ECDB431E4913404B603B685B6803F480130B
S315080078FC002B06D0194B9A681849BB6913438B6041
S3150800790C06E0164B9A68BB69DB43144913408B6037
S3150800791C3B685B6803F40013002B21D00F4BDA6825
S3150800792C0E49BB691343CB6021E000BF000032103F
S3150800793C0000311000002210000021100000121067
S3150800794C0000111000100240000001400008014020
S3150800795C000C0140001001400014014000040140D5
S3150800796C0B4BDA68BB69DB4309491340CB607B6A6E
S3150800797C01337B623B681A687B6A22FA03F3002B95
S3150800798C7FF48EAE00BF00BF2C37BD4680BC704757
S3150800799C0004014080B485B000AF78600B467B804C
S315080079AC7B689A687B881340002B02D00123FB73F3
S315080079BC01E00023FB73FB7B18461437BD4680BCDD
S315080079CC704780B483B000AF78600B467B80134653
S315080079DC7B707B78002B03D07A887B681A6103E06E
S315080079EC7B881A047B681A6100BF0C37BD4680BCBD
S315080079FC7047000080B584B000AF78607B68002BB8
S31508007A0C01D101231BE17B6893F83D30DBB2002BD7
S31508007A1C06D17B68002283F83C207868FEF784FD43
S31508007A2C7B68242283F83D207B681B681A687B6870
S31508007A3C1B6822F001021A60FFF7F6FCF8607B68F7
S31508007A4C5B68814A934207D8FB68804A934294BF85
S31508007A5C01230023DBB206E0FB687D4A934294BF00
S31508007A6C01230023DBB2002B01D00123E7E0FB68DE
S31508007A7C784AA2FB03239B0CBB607B681B685B687C
S31508007A8C23F03F017B681B68BA680A435A607B6817
S31508007A9C1B681B6A23F03F017B685B686A4A934242
S31508007AAC02D8BB68013309E0BB684FF4967202FB37
S31508007ABC03F3694AA2FB03239B0901337A6812680C
S31508007ACC0B4313627B681B68DB6923F44F4222F075
S31508007ADCFF027B685B685C498B4219D8FB68591EA8
S31508007AEC7B685B685B00B1FBF3F3591C40F6FC73CF
S31508007AFC0B40002B0AD0FB68591E7B685B685B0041
S31508007B0CB1FBF3F30133C3F30B0351E004234FE04A
S31508007B1C7B689B68002B11D1FB68581E7B685968DB
S31508007B2C0B465B000B44B0FBF3F30133C3F30B03B7
S31508007B3C002B0CBF01230023DBB212E0FB68581E96
S31508007B4C7B6859680B469B000B4499000B44B0FBA9
S31508007B5CF3F30133C3F30B03002B0CBF01230023F0
S31508007B6CDBB2002B01D0012322E07B689B68002B3B
S31508007B7C0ED1FB68581E7B6859680B465B000B4494
S31508007B8CB0FBF3F30133C3F30B0343F400430FE0E9
S31508007B9CFB68581E7B6859680B469B000B4499007A
S31508007BAC0B44B0FBF3F30133C3F30B0343F4404329
S31508007BBC796809681343CB617B681B681B6823F0DB
S31508007BCCC0017B68DA697B681B6A1A437B681B6889
S31508007BDC0A431A607B681B689B6823F4034323F0EB
S31508007BECFF037A6811697A68D26811437A68126851
S31508007BFC0B4393607B681B68DB6823F0FF017B688B
S31508007C0C5A697B689B691A437B681B680A43DA6066
S31508007C1C7B681B681A687B681B6842F001021A604D
S31508007C2C7B6800221A647B68202283F83D207B68D7
S31508007C3C00221A637B68002283F83E20002318462C
S31508007C4C1037BD4680BD00BFA08601007F841E008C
S31508007C5CFF083D0083DE1B43D34D621080B400AF92
S31508007C6C154B1B68144A43F001031360124B5A68F0
S31508007C7C1149124B13404B600F4B1B680E4A23F0ED
S31508007C8C847323F4803313600B4B1B680A4A23F462
S31508007C9C80231360084B5B68074A23F4FE03536082
S31508007CAC054B4FF41F029A60054B064A9A6000BFB3
S31508007CBCBD4680BC704700BF001002400000FFF8AC
S31508007CCC00ED00E000400008002103E00B4B5B5878
S31508007CDC435004310A480B4B42189A42F6D30A4AC7
S31508007CEC02E0002342F8043B084B9A42F9D3FFF70B
S31508007CFCB5FF01F07BF9FEF707FA7047BC99000847
S31508007D0C00000020DC000020E0000020AC09002068
S31508007D1CFEE70000B0B584B000AF78603960FEF7B6
S31508007D2CA3FFF860FB68104AA2FB03239B090022F9
S31508007D3C1C4615467B68C3E90045FA680A4BA3FB43
S31508007D4C02139B094FF47A7101FB03F3D31A4FF410
S31508007D5C7A7202FB03F31A467B689A60002318466C
S31508007D6C1037BD46B0BD00BFD34D621080B483B08A
S31508007D7C00AF0346FB71FB79002B01D072B601E00C
S31508007D8C62B600BF00BF0C37BD4680BC704700000A
S31508007D9C80B596B000AF00237B65294B1B6803F5AD
S31508007DAC741303F510637B657B6DDB007B65002321
S31508007DBCBB620023FB6201233B637B6D1B0C7B615F
S31508007DCC7B6D9BB243F00403BB6100237B620123EA
S31508007DDC7B636FF07F033B653B6D1B0CFB613B6D57
S31508007DEC9BB243F004033B6207F11403194615488A
S31508007DFCFEF7D5FC02211348FEF7B8FE1148FEF72C
S31508007E0C97FD3B461846FEF764F83A4607F13C03DD
S31508007E1C11461846FDF7F2FB07F13C031946786D37
S31508007E2C00F012F807F13C031846FDF708FC3B4630
S31508007E3C1846FDF704FC00BF5837BD4680BD00BF89
S31508007E4C003000080007002090B58DB000AF7860B0
S31508007E5C39607B68FB603B68184600F039F80346C6
S31508007E6C3B62FB68C3F3D1037B61FB89C3F34A13FB
S31508007E7C9BB23B613B681846FDF7C6FD04463B685A
S31508007E8C1846FDF7CCFD014607F128031A4620468D
S31508007E9CFCF732FF0423BB610023FB6107F10803DF
S31508007EAC07F1280207F110010348FEF785FD00BF0C
S31508007EBC3437BD4690BD00BF0007002080B400AF24
S31508007ECC024B1B681846BD4680BC7047003000083C
S31508007EDC80B483B000AF78607B689A687B685B680F
S31508007EECD31A18460C37BD4680BC704780B588B087
S31508007EFC00AF174BBB61B86900F060F8F861B86958
S31508007F0C00F068F87861FA697B699A421BD0FB69BC
S31508007F1C3B613B699B883B6001237B600323FB60C9
S31508007F2C3B691B683A4611461846FFF7AFFB3B6997
S31508007F3C18683B699B8800221946FFF742FDFB69C6
S31508007F4C0833FB61DFE700BF2037BD4680BD00BFA5
S31508007F5C1000002090B583B000AF03460A46FB71AB
S31508007F6C1346BB71FC79144800F041F803469C4251
S31508007F7C2CBF01230023DBB2002B18D1FB79194641
S31508007F8C0D4800F03EF803461C68FB7919460A486A
S31508007F9C00F037F803469988BB79002B01D00123EA
S31508007FAC00E000231A462046FFF70BFD00E000BF51
S31508007FBC0C37BD4690BD00BF1000002080B582B0BE
S31508007FCC00AF7860786800F02BF803461846083737
S31508007FDCBD4680BD80B582B000AF7860786800F089
S31508007FEC1FF80346603318460837BD4680BD80B473
S31508007FFC83B000AF78600C2318460C37BD4680BC9E
S3150800800C704780B582B000AF786039607B68396894
S3150800801C184600F012F8034618460837BD4680BDC8
S3150800802C80B582B000AF78607B68184600F013F80C
S3150800803C034618460837BD4680BD80B483B000AFEA
S3150800804C786039603B68DB007A68134418460C374D
S3150800805CBD4680BC704780B483B000AF78607B683F
S3150800806C18460C37BD4680BC704780B500AF00F08B
S3150800807CFBFA00BF80BD000080B582B000AF0122BC
S3150800808C2049214800F0C9FB204800F04BFA1E484D
S3150800809C00F0E0FC0346002B14BF01230023DBB2DF
S315080080AC002B28D03B46184600F0FCF80346194628
S315080080BC154800F0E3FD3B461946154800F0FFF855
S315080080CC114800F0D7FC0346002B14BF01230023EC
S315080080DCDBB2002B0FD03B460021184600F0FCF80B
S315080080EC03461946084800F0C9FD3B461946084898
S315080080FC00F0E5F8E4E7074800F014FA00BF083783
S3150800810CBD4680BD000C0140800700200090D003BE
S3150800811C9C07002040420F0080B500AF094800F0CC
S3150800812C01FA094800F0CEFBCC21074800F053FCB5
S3150800813C4421054800F04FFC044800F0F3F900BF51
S3150800814C80BD00BF0090D0038007002040420F007E
S3150800815C80B590B000AF7860444800F0E3F9444B22
S3150800816C7B637B6B184600F0C6F8F8637B6B184686
S3150800817C00F0CCF83863FA6B3B6B9A426ED0FB6B0B
S3150800818CFB620121F86A00F0A7F803461B783B75D9
S3150800819C0221F86A00F0A0F803461B787B750321C8
S315080081ACF86A00F099F803461B78BB750421F86A3F
S315080081BC00F092F803461B78FB750521F86A00F067
S315080081CC8BF803461B783B760621F86A00F084F890
S315080081DC03461B787B76274800F074FBF86A00F098
S315080081EC61F803461946234800F029FDBE212148AB
S315080081FC00F0F1FB07F10803BB62BB6ABB63BB6A01
S3150800820C09337B62BA6B7B6A9A420CD0BB6B3B62B6
S3150800821C184800F0FEFB03461A463B6A1A70BB6BFD
S3150800822C0133BB63EEE707F108030821184600F093
S3150800823C41FD0346FB773B7CFA7F9A4209D13B8981
S3150800824C7B837B6807F114021146184600F069F81F
S3150800825C00E000BFFB6B0833FB638CE7064800F0B5
S3150800826C61F900BF4037BD4680BD00BF0090D00302
S3150800827C9C0700208007002040420F0080B582B082
S3150800828C00AF786078687B680C330A22194600F0D0
S3150800829C55F87B68184600F074F87B68184608375A
S315080082ACBD4680BD80B582B000AF78607B68184645
S315080082BC00F07BF8034618460837BD4680BD80B5E6
S315080082CC82B000AF786039603968786800F077F862
S315080082DC00BF0837BD4680BD80B582B000AF786058
S315080082EC39607B683968184600F07EF803461846EC
S315080082FC0837BD4680BD80B483B000AF78607B6814
S3150800830C5B6818460C37BD4680BC704780B483B092
S3150800831C00AF78607B689B6818460C37BD4680BCF6
S3150800832C704780B582B000AF786039603968786874
S3150800833C00F067F800BF0837BD4680BD80B584B02D
S3150800834C00AFF860B9607A60FB6879681846FDF783
S3150800835CDBF8FB68BA685A60FB68BA689A60FB680F
S3150800836C18461037BD4680BD80B582B000AF786020
S3150800837C7B681846FDF7D6F87B6818460837BD465D
S3150800838C80BD80B582B000AF78607B685A687B6820
S3150800839C9B681946104600F049F87B685A687B6852
S315080083AC9A6000BF0837BD4680BD80B483B000AF65
S315080083BC78607B6818460C37BD4680BC704780B51C
S315080083CC82B000AF786039607B689B68396818465C
S315080083DC00F036F87B689B6803F108027B689A60A4
S315080083EC00BF0837BD4680BD80B483B000AF786047
S315080083FC39607A683B68134418460C37BD4680BC0E
S3150800840C704780B582B000AF786039607B689B682E
S3150800841C3968184600F028F87B689B6803F108024F
S3150800842C7B689A6000BF0837BD4680BD80B483B0B0
S3150800843C00AF7860396000BF0C37BD4680BC70470A
S3150800844C80B582B000AF786039607B681946082021
S3150800845CFDF794FB03463A681168526819605A602E
S3150800846C00BF0837BD4680BD80B582B000AF7860C6
S3150800847C39607B6819460820FDF780FB03463A6885
S3150800848C1168526819605A6000BF0837BD4680BD2E
S3150800849C80B582B000AF786039607B68012B0CD14F
S315080084AC3B684FF6FF72934207D10648FFF7E6FE84
S315080084BC054A0649034800F034FC00BF0837BD4698
S315080084CC80BD00BF9C07002000000020DD8400084A
S315080084DC80B582B000AF78607B68184600F009F862
S315080084EC7B681846FFF740FF7B6818460837BD4679
S315080084FC80BD80B582B000AF78607868FFF741FF21
S3150800850C00BF0837BD4680BD80B500AF4FF6FF717A
S3150800851C0120FFF7BDFF80BD80B400AF00BFBD468C
S3150800852C80BC704780B592B000AF78607B684B4AC8
S3150800853C934259D07B68494A934200F283807B6800
S3150800854C474A934204D07B68464A934223D079E043
S3150800855C02233B6201233B6310237B630023FB63EB
S3150800856C07F120031846FEF789FB0F23FB6000234F
S3150800857C3B61A0237B610023BB610023FB6107F1F0
S3150800858C0C0300211846FEF7FBFD0346002B5BD0B7
S3150800859CFFF7C2FF58E002233B6201233B6310231B
S315080085AC7B630023FB6307F120031846FEF766FB83
S315080085BC0346002B01D0FFF7AFFF0F23FB60002308
S315080085CC3B6100237B614FF48063BB610023FB6135
S315080085DC07F10C0300211846FEF7D2FD0346002BC3
S315080085EC34D0FFF799FF31E002233B6201233B634A
S315080085FC10237B630223FB6300233B644FF4601355
S3150800860C7B6407F120031846FEF738FB0346002B5C
S3150800861C01D0FFF781FF0F23FB6002233B61002388
S3150800862C7B614FF48063BB610023FB6107F10C038C
S3150800863C02211846FEF7A4FD0346002B08D0FFF7C7
S3150800864C6BFF05E000BF04E000BF02E000BF00E0DE
S3150800865C00BF00BF4837BD4680BD00BF0090D003A1
S3150800866C40420F0000127A0080B590B000AF02238A
S3150800867CBB610123BB621023FB6200237B6307F1FA
S3150800868C18031846FEF7FAFA0346002B01D0FFF733
S3150800869C43FF0F237B600023BB60A023FB600023F2
S315080086AC3B6100237B613B1D00211846FEF768FDE4
S315080086BC0346002B01D0FFF72FFFFEF7ABFE034650
S315080086CC094AA2FB03235B0A1846FEF7B6FF0020ED
S315080086DCFEF7C0FF002200214FF0FF30FEF791FF96
S315080086EC00BF4037BD4680BDD34D621080B400AF85
S315080086FC144BDB68134A23F08073D360114BDB6889
S3150800870C104A43F08073D3600F4B1B680E4A23F054
S3150800871C010313600C4B1B680B4A43F001031360EF
S3150800872C094B00225A6000BF00BF00BF064B5B68AE
S3150800873C002B01D0002300E001231846BD4680BC5F
S3150800874C704700BFF0ED00E0001000E080B485B083
S3150800875C00AF7860094B5B68FB607B689B017B60AC
S3150800876C00BF064B5A68FB68D21A7B689A42F8D344
S3150800877C00BF00BF1437BD4680BC7047001000E030
S3150800878C80B485B000AF78600423FB607B689B6877
S3150800879C1A687B68DB680F2101FA03F3DB4302EAEC
S315080087AC03017B68DB68FA689A407B689B680A4316
S315080087BC1A6000BF1437BD4680BC704780B485B0BC
S315080087CC00AF78600323FB607B689B681A687B683C
S315080087DCDB680F2101FA03F3DB4302EA03017B682A
S315080087ECDB68FA689A407B689B680A431A6000BF84
S315080087FC1437BD4680BC704780B582B000AF786030
S3150800880C7B681A687B689B8819461046FFF7C2F87E
S3150800881C034618460837BD4680BD80B58CB000AFF8
S3150800882CF860B9601346FB80FFF760FF002387F8F2
S3150800883C2F302FE097F82F30012202FA03F3BB6290
S3150800884CFB88BA6A13407B627A6ABB6A9A421CD165
S3150800885CFB6897F82F209A717B6AFF2B01D8BB68A7
S3150800886C01E0BB680433FA6893607B6AFF2B04D873
S3150800887C97F82F309B001A4604E097F82F30083BE0
S3150800888C9B001A46FB68DA6008E097F82F3001332C
S3150800889C87F82F3097F82F300F2BCBD9FB887B61B5
S315080088AC0023BB6107F114031946B868FEF7EEFE00
S315080088BCFB68BA681A60FB68FA889A8000BF30377A
S315080088CCBD4680BD80B584B000AF78607B689B8858
S315080088DC1A467B681B6812041A617868FFF76EFFE4
S315080088EC4FF4F070FFF732FF7868FFF749FF462020
S315080088FCFFF72CFF7868FFF77FFF0346FB734FF4EF
S3150800890CCD70FFF723FFFB7B18461037BD4680BD9D
S3150800891C80B582B000AF78600B46FB70FB78002BF5
S3150800892C16D07B689B881A467B681B6812041A61EA
S3150800893C7868FFF743FF0A20FFF708FF7868FFF708
S3150800894C1FFF3720FFF702FF7868FFF719FF15E0BE
S3150800895C7B689B881A467B681B6812041A617868C0
S3150800896CFFF72CFF4120FFF7F1FE7868FFF708FFA9
S3150800897C0520FFF7EBFE7868FFF702FF00BF083704
S3150800898CBD4680BD80B584B000AF78600023FB730C
S3150800899C7B689B881A467B681B6812041A61786880
S315080089ACFFF70CFF0320FFF7D1FE7868FFF7E8FE08
S315080089BC0A20FFF7CBFE7868FFF71EFF0346002B4D
S315080089CC01D00123FB733220FFF7C0FEFB7B184650
S315080089DC1037BD4680BD80B584B000AF78600B46B5
S315080089ECFB700823FB730AE0FB7803F00103DBB288
S315080089FC19467868FFF78CFFFB785B08FB70FB7BE6
S31508008A0C5A1EFA73002BEFD100BF00BF1037BD46B4
S31508008A1C80BD80B584B000AF78600823FB73002353
S31508008A2CBB730DE0BB7B5B08BB737868FFF7AAFFCB
S31508008A3C0346DB015AB297F90E3013435BB2BB738C
S31508008A4CFB7B5A1EFA73002BECD1BB7B18461037EE
S31508008A5CBD4680BD80B582B000AF7860786800F0FE
S31508008A6C16F8F021786800F024F8034618460837FB
S31508008A7CBD4680BD80B582B000AF7860F0217868BD
S31508008A8C00F017F8034618460837BD4680BD80B473
S31508008A9C83B000AF78607B6800221A747B6800226A
S31508008AAC9A747B6800225A7400BF0C37BD4680BC8A
S31508008ABC704780B584B000AF78600B46FB70012315
S31508008ACCFB730023BB7300237B730123FB72002308
S31508008ADC3B737B689B7C002B40F09A807868FFF789
S31508008AECF1FE0346002B0AD07B6800221A747B68B9
S31508008AFC00229A747B6800225A7400239BE0FB7848
S31508008B0C19467868FFF767FF7868FFF73BFF034657
S31508008B1C7B727868FFF736FF03463B727B7A012B2C
S31508008B2C02D13B7A012B64D07A7A3B7A9A4202D0EC
S31508008B3C7B7ABB7226E07B681B7CFA7B9A420DD249
S31508008B4C7B7B7A681344DA7CFB7A1340DBB2002B06
S31508008B5C14BF01230023DBB2BB7208E07B681B7CC5
S31508008B6CFA7B9A420CBF01230023DBB2BB72BB7A99
S31508008B7C002B07D1FB7BBB73BB7B082B02D87B680E
S31508008B8CBA7B5A74BB7A012B0CD17B7B7A6813445B
S31508008B9CD97C7B7BFA7A0A43D1B27A6813440A46A3
S31508008BACDA7410E07B7B7A681344DB7C5AB297F94B
S31508008BBC0B30DB435BB213405AB27B7BD1B27A687B
S31508008BCC13440A46DA74BB7A19467868FFF7A0FE8E
S31508008BDCFB7B0133FB73FB7A5B00FB72FB7A002B86
S31508008BEC04D17B7B01337B730123FB727B7B072BC5
S31508008BFC8AD9FB7B402B0BD97B68BA7B1A747B68AA
S31508008C0C1B7C002B02D17B6801229A7401233B73CF
S31508008C1C3B7B002B03D07B68DB7C002B0AD17B6863
S31508008C2C00221A747B6800229A747B6800225A7494
S31508008C3C00233B733B7B18461037BD4680BD80B579
S31508008C4C84B000AF7860396055217868FFF7C3FEA9
S31508008C5C0023FB730AE0FB7B3A6813441B7819461E
S31508008C6C7868FFF7B8FEFB7B0133FB73FB7B072B9E
S31508008C7CF1D900BF00BF1037BD4680BD80B485B0A2
S31508008C8C00AF786039600023FB730AE0FA7BFB7B44
S31508008C9C39680B4479680A44D27C1A70FB7B013319
S31508008CACFB73FB7B072BF1D900BF00BF1437BD46FE
S31508008CBC80BC704780B485B000AF78600B46FB70FB
S31508008CCC0023FB7322E07B685A1C7A601B78BB7303
S31508008CDC08237B7317E0FA7BBB7B5340DBB203F0AC
S31508008CEC01033B73FB7B5B08FB733B7B002B04D0BC
S31508008CFCFB7B83F07303DB43FB73BB7B5B08BB73A8
S31508008D0C7B7B013B7B737B7B002BE4D1FB785A1E68
S31508008D1CFA70002BD7D1FB7B18461437BD4680BC9E
S31508008D2C70470B460146184600F052B97FB5002429
S31508008D3C1023CDE90234036815469E69CDE9004433
S31508008D4C6B461268B0479DF8043003F00603062BF1
S31508008D5C09BF01202046009B2B6004B070BD00980B
S31508008D6C904214BF012006207047000010B5044637
S31508008D7C024B036000F0DBF8204610BDE4980008AF
S31508008D8C10B50446FFF7F2FF2046082100F042F81A
S31508008D9C204610BD2DE9F041DDF818801F46DDE9A7
S31508008DAC083498450646154607D1079900F0C2F8C7
S31508008DBC18B165710020BDE8F0813946304600F0DF
S31508008DCCB9F80028F6D00123C4F800802571A371E0
S31508008DDCF0E738B515461C4600F0ACF820B1082368
S31508008DECE36006232560237138BD2DE9F04105465D
S31508008DFC0C4616461F4600F09DF848B9032F07D8AF
S31508008E0C2368324629462046BDE8F0415B69184777
S31508008E1CBDE8F08100F0C2B81B2208B50249022051
S31508008E2C00F042FA00F0C8F80899000810B5044694
S31508008E3C024B0360FFF79AFF204610BD60990008A5
S31508008E4C10B50446FFF7F2FF20460C21FFF7E2FFA8
S31508008E5C204610BD2DE9F041DDF8188006469045F0
S31508008E6C0F4615461C460BD0B0682A460368CDF843
S31508008E7C18801E6A39462346B446BDE8F041604759
S31508008E8C194600F057F80028EED00620BDE8F08108
S31508008E9C2DE9F14F0D46DDE90A4BDDE90CA619461D
S31508008EAC81461746984600F045F890B1002D346077
S31508008EBC377109DB2C44A2450CBF06240124B47176
S31508008ECC002001B0BDE8F08F0235F9D10123B3714A
S31508008EDCF6E7544506D15946484600F02BF808B132
S31508008EEC7771EDE7D9F808003A460368CDE90CA680
S31508008EFCCDE90A4BDC6929464346A44601B0BDE8D0
S31508008F0CF04F60472DE9F04107460C4615461E46BC
S31508008F1CFFF75FFF48B9B8682A46036821469F6978
S31508008F2C3346BC46BDE8F0416047BDE8F081704762
S31508008F3C00207047814208B50ED0406803782A2B6A
S31508008F4C0CD049680B782A2B08BF0131FBF7D8F8E7
S31508008F5CB0FA80F0400908BD0120FCE70020FAE7CA
S31508008F6C1FB5044600216846FEF7D4FE0A49009B45
S31508008F7C0198A3FB013201FB00224FF47A70029987
S31508008F8C5B1842EBE172A3FB003100FB0212204690
S31508008F9CC4E9003204B010BD40420F0000F052B8CC
S31508008FAC08B5804700F00DF8024B1868BFF35B8FC5
S31508008FBC704700BF7000002008B5FFF7F5FFFFF7F4
S31508008FCCEFFF062008B500F053F9012000F076FBF8
S31508008FDC10B504460448134620B10A460220214619
S31508008FEC00F07EF910BD00BFED92000870B50026A2
S31508008FFC0C4D0D4C641BA410A64209D100F060FB65
S3150800900C00260A4D0A4C641BA410A64205D170BD55
S3150800901C55F8043B98470136EEE755F8043B984754
S3150800902C0136F2E7A8990008A8990008A89900083B
S3150800903CB8990008024B0146186800F087B800BFBB
S3150800904C74000020024B0146186800F033B800BFC4
S3150800905C740000200A44914200F1FF3300D1704796
S3150800906C10B511F8014B914203F8014FF9D110BD17
S3150800907C884210B501EB020402D98442234607D86C
S3150800908C431EA14208D011F8012B03F8012FF8E76B
S3150800909C014602448A4200D110BD13F8014D02F86C
S315080090AC014DF7E703460244934200D1704703F893
S315080090BC011BF9E738B50546002943D051F8043C9D
S315080090CC0C1F002BB8BFE41800F072F91E4A13687F
S315080090DC104633B9636014602846BDE8384000F082
S315080090EC6DB9A3420AD921686218934201BF1A685E
S315080090FC5B685218226063600460EDE71A465B6889
S3150800910C0BB1A342FAD911685018A0420BD12068AA
S3150800911C0144501883421160DED118685B6801441B
S3150800912C11605360D8E702D90C232B60D4E720686A
S3150800913C21188B4201BF19685B68091821606360A6
S3150800914C5460C9E738BD00BFF8070020F8B5CD1C38
S3150800915C25F0030508350C2D38BF0C25002D0646C1
S3150800916C01DBA94203D90C2333600020F8BD00F0BB
S3150800917C1FF921490A6814469CB9204F3B6823B944
S3150800918C2146304600F03CF838602946304600F057
S3150800919C37F8431C23D10C233046336000F00EF904
S315080091ACE3E723685B1B17D40B2B03D923601C44FA
S315080091BC256004E06368A2420CBF0B60536030461E
S315080091CC00F0FCF804F10B00231D20F00700C21A6E
S315080091DCCCD01B1AA350C9E722466468CCE7C41C3A
S315080091EC24F00304A042E3D0211A304600F008F814
S315080091FC0130DDD1CFE700BFF8070020FC070020BF
S3150800920C38B50023054D044608462B6000F040FA95
S3150800921C431C02D12B6803B1236038BDA809002072
S3150800922C1F2938B504460D4604D9162303604FF09A
S3150800923CFF3038BD426C12B152F821304BB920467A
S3150800924C00F030F82A4601462046BDE8384000F0C2
S3150800925C17B8012B0AD0591C03D116230360012019
S3150800926CE7E70024284642F8254098470020E0E71F
S3150800927C024B01461868FFF7D3BF00BF74000020E5
S3150800928C38B50023064D0446084611462B6000F0F7
S3150800929CF7F9431C02D12B6803B1236038BD00BF14
S315080092ACA809002000F0E4B913460A46014602480C
S315080092BC006800F003B800BF7400002038B50446F7
S315080092CC084611460022054D2A601A4600F0EEF9AA
S315080092DC431C02D12B6803B1236038BDA8090020B2
S315080092EC2DE9F843DFF8BC800646D8F800001F467F
S315080092FC0D46914600F058F8264B1C6834B9264C96
S3150800930C1C60264B13B11B68C4F8883063681F2B86
S3150800931C07DDD8F8000000F049F84FF0FF30BDE83B
S3150800932CF8835EB3D4F8880088B91D4B23B9D8F8EE
S3150800933C000000F03AF8F0E74FF48470FFF77AFE75
S3150800934C0028F4D00023C0E94033C4F88800012271
S3150800935C6368022E40F8239002FA03F200EB8301AD
S3150800936CD0F8003143EA0203C0F80031C1F8807026
S3150800937C02BFD0F804311A43C0F804216368D8F840
S3150800938C00005A1C0233626044F8235000F00EF8B1
S3150800939C0020C4E794090020080900209C990008BD
S315080093AC41900008D80000207047704770470000AD
S315080093BC0148FFF7F9BF00BFA00900200148FFF7D5
S315080093CCF5BF00BFA00900202DE9F04F07468C46D3
S315080093DC084615463C461946099E002B40F0C680A1
S315080093EC8242B2FA82F746D94FB1C7F1200E24FA57
S315080093FC0EFE00FA07F3BD404EEA030CBC404FEADA
S3150800940C1548BCFBF8F91FFA85FE08FB19C309FBBE
S3150800941C0EFA220C42EA03439A4528D9EB1809F1AD
S3150800942CFF3004D29A4502D9A9F102002B44A3EBCA
S3150800943C0A03B3FBF8F208FB123302FB0EFEA4B2C6
S3150800944C44EA0344A64514D92C1902F1FF3303D276
S3150800945CA64501D9931E2C44A4EB0E0443EA0040FE
S3150800946C1EB10023FC4034607360BDE8F08F48469B
S3150800947CDDE71346F0E702B9FFDE87BB0121831A45
S3150800948C4FEA154EB3FBFEFCAAB20EFB1C330CFBC3
S3150800949C02F8200C40EA0343984563D9EB180CF103
S315080094ACFF3004D2984502D9ACF102002B44A3EB49
S315080094BC0803B3FBFEFC0EFB1C330CFB02F2A4B236
S315080094CC44EA0344A2424FD92C190CF1FF3304D2B7
S315080094DCA24202D9ACF102032C44A41ABEE7C7F186
S315080094EC200CBD4020FA0CF800FA07F324FA0CFC01
S315080094FC4FEA154E4CEA0302B8FBFEFCABB20EFB68
S3150800950C1C800CFB03F9110C41EA0040814504FA56
S3150800951C07F423D928180CF1FF3104D2814502D956
S3150800952CACF102012844A0EB0900B0FBFEFC0EFBD3
S3150800953C1C000CFB03F892B242EA004398450FD97B
S3150800954CEB180CF1FF3204D2984502D9ACF10202A1
S3150800955C2B44A3EB080342EA014191E76146E2E793
S3150800956C6246F6E76046A2E76346B6E7834205D944
S3150800957C0EB1C6E900700021084676E7B3FA83F106
S3150800958C81B9834201D3BA420AD8BC1A60EB0303E9
S3150800959C01209C46002E68D0C6E9004C002164E7E1
S315080095AC0846F7E7C1F1200C8B4022FA0CF41C4351
S315080095BC20FA0CFB4FEA1449BBFBF9F81FFA84FE98
S315080095CC09FB18BB08FB0EFA02FA01F500FA01F3BF
S315080095DC27FA0CF213431A0C42EA0B42924507FA85
S315080095EC01F73ED9A21808F1FF3004D2924502D9E8
S315080095FCA8F102002244A2EB0A02B2FBF9F809FB15
S3150800960C182208FB0EFE9BB243EA024296452AD95B
S3150800961CA21808F1FF3304D2964502D9A8F1020321
S3150800962C224443EA0040A0FB0593A2EB0E029A42A1
S3150800963CCE46984602D306D14F4504D2B9EB050E51
S3150800964C63EB0408013886B1B7EB0E0362EB080727
S3150800965C07FA0CFCCB404CEA0303CF40C6E90037AB
S3150800966C9CE74046C7E74346DBE73146FDE6000084
S3150800967C5822024B4FF0FF301A607047A809002099
S3150800968C5822024B4FF0FF301A607047A809002089
S3150800969C044A05491368002B08BF0B46184410608A
S315080096AC1846704798090020B00900205822024B2A
S315080096BC4FF0FF301A607047A8090020FEE700BF7C
S315080096CCF8B500BFF8BC08BC9E467047F8B500BF95
S30D080096DCF8BC08BC9E46704765
S315080096E402030405060708090A0B0C0D0E0F1010D1
S315080096F40000000048970008D94F0008AF5000083A
S31508009704B5510008EB5100080000000074970008E2
S315080097141D520008F1520008FB5300083354000890
S3150800972400000000A0970008258E0008000000002D
S31508009734C0970008258E0008258E0008258E000887
S31508009744258E00086099000854970008C0970008F9
S315080097544E376D657373616765355175657565490A
S315080097644C743634454C743132384545450000004E
S315080097746099000880970008C09700084E376D6501
S315080097847373616765355175657565494C7432350A
S3150800979436454C743235364545450000E49800088C
S315080097A4A89700084E376D65737361676538526507
S315080097B4636569766572496945450000E498000859
S315080097C4C89700084E376D65737361676531335200
S315080097D4656365697665725175657565450000004A
S315080097E400000000F0970008258E0008E498000899
S315080097F4F89700084E376D65737361676538526567
S31508009804636569766572494E31316170706C696356
S315080098146174696F6E3343414E36646174615F7473
S315080098244545450000000000349800081159000811
S315080098346099000840980008F097000831394341B8
S315080098444E526563656976657252656365697665C0
S31508009854720000000000000064980008A15B00087C
S315080098646099000870980008A09700084E323143A2
S31508009874414E54656D706572617475726553656E93
S31508009884736F72733852656365697665724500004D
S31508009894000000000000000001020304060708098E
S315080098A4000000000102030460990008B898000843
S315080098B4849900084E31305F5F637878616269760F
S315080098C43131375F5F636C6173735F747970655F99
S315080098D4696E666F4500000000000000AC98000839
S315080098E4798D00088D8D00083D8F00083D8F00088E
S315080098F4F78D0008398D0008DF8D0008A18D000852
S315080099046B8D000870757265207669727475616C62
S31508009914206D6574686F642063616C6C65640A0005
S315080099246099000830990008AC9800084E31305FF9
S315080099345F637878616269763132305F5F73695F35
S31508009944636C6173735F747970655F696E666F457E
S31508009954000000000000000024990008398E000861
S315080099644D8E00083D8F00083D8F0008F78D0008CE
S31508009974398D0008118F00089D8E0008618E000835
S31508009984E49800088C990008537439747970655FF3
S31108009994696E666F0000000000080020E5
S30D080099A034FAFF7F0100000004
S315080099A8E941000805550008015900081585000809
S309080099B8C54100088F
S315080099BC0000000010000000010000000024F40064
S315080099CC00080140040000000008014002000000E5
S315080099DC00080140010000000014014002000000CC
S315080099EC0014014001000000001001400080000036
S315080099FC001001400040000000100140002000004B
S31508009A0C000C014000020000000C0140000100009F
S31508009A1C000C014080000000000C014040000000D2
S31508009A2CCF8F00087800002000000000000000001E
S31508009A3C000000000000000000000000000000000C
S31508009A4C00000000000000000000000000000000FC
S31508009A5C00000000000000000000000000000000EC
S31508009A6C00000000000000000000000000000000DC
S31508009A7C00000000000000000000000000000000CC
S31108009A8C00000000000000009C090020FB
S70508007CD5A1
