Archive member included to satisfy reference by file (symbol)

build/native/debug/lowLevel/libLowLevel.a(main.o)
                              (--whole-archive)
build/native/debug/lowLevel/libLowLevel.a(stm32f1xx_it.o)
                              (--whole-archive)
build/native/debug/lowLevel/libLowLevel.a(stm32f1xx_hal_msp.o)
                              (--whole-archive)
build/native/debug/lowLevel/libLowLevel.a(stm32f1xx_hal_tim.o)
                              (--whole-archive)
build/native/debug/lowLevel/libLowLevel.a(stm32f1xx_hal_tim_ex.o)
                              (--whole-archive)
build/native/debug/lowLevel/libLowLevel.a(stm32f1xx_hal_can.o)
                              (--whole-archive)
build/native/debug/lowLevel/libLowLevel.a(stm32f1xx_hal.o)
                              (--whole-archive)
build/native/debug/lowLevel/libLowLevel.a(stm32f1xx_hal_rcc.o)
                              (--whole-archive)
build/native/debug/lowLevel/libLowLevel.a(stm32f1xx_hal_rcc_ex.o)
                              (--whole-archive)
build/native/debug/lowLevel/libLowLevel.a(stm32f1xx_hal_cortex.o)
                              (--whole-archive)
build/native/debug/lowLevel/libLowLevel.a(stm32f1xx_hal_flash.o)
                              (--whole-archive)
build/native/debug/lowLevel/libLowLevel.a(stm32f1xx_hal_flash_ex.o)
                              (--whole-archive)
build/native/debug/lowLevel/libLowLevel.a(stm32f1xx_hal_pwr.o)
                              (--whole-archive)
build/native/debug/lowLevel/libLowLevel.a(stm32f1xx_hal_gpio.o)
                              (--whole-archive)
build/native/debug/lowLevel/libLowLevel.a(stm32f1xx_hal_gpio_ex.o)
                              (--whole-archive)
build/native/debug/lowLevel/libLowLevel.a(stm32f1xx_hal_dma.o)
                              (--whole-archive)
build/native/debug/lowLevel/libLowLevel.a(stm32f1xx_hal_i2c.o)
                              (--whole-archive)
build/native/debug/lowLevel/libLowLevel.a(stm32f1xx_hal_exti.o)
                              (--whole-archive)
build/native/debug/lowLevel/libLowLevel.a(system_stm32f1xx.o)
                              (--whole-archive)
build/native/debug/lowLevel/libLowLevel.a(startup_stm32f103xb.o)
                              (--whole-archive)
build/native/debug/lowLevel/libLowLevel.a(retarget.o)
                              (--whole-archive)
build/native/debug/lowLevel/libLowLevel.a(CAN.o)
                              (--whole-archive)
build/native/debug/lowLevel/libLowLevel.a(Relais.o)
                              (--whole-archive)
build/native/debug/lowLevel/libLowLevel.a(LowLevel.o)
                              (--whole-archive)
build/native/debug/lowLevel/libLowLevel.a(TemperatureSensors.o)
                              (--whole-archive)
build/native/debug/lowLevel/libLowLevel.a(clock.o)
                              (--whole-archive)
build/native/debug/lowLevel/libLowLevel.a(delay_us.o)
                              (--whole-archive)
build/native/debug/lowLevel/libLowLevel.a(tm_stm32_onewire.o)
                              (--whole-archive)
/usr/lib/gcc/arm-none-eabi/10.1.0/../../../../arm-none-eabi/lib/thumb/v7-m/nofp/libstdc++_nano.a(atexit_arm.o)
                              build/native/debug/lowLevel/libLowLevel.a(TemperatureSensors.o) (__aeabi_atexit)
/usr/lib/gcc/arm-none-eabi/10.1.0/../../../../arm-none-eabi/lib/thumb/v7-m/nofp/libstdc++_nano.a(class_type_info.o)
                              build/native/debug/application/application.o (vtable for __cxxabiv1::__class_type_info)
/usr/lib/gcc/arm-none-eabi/10.1.0/../../../../arm-none-eabi/lib/thumb/v7-m/nofp/libstdc++_nano.a(del_ops.o)
                              /usr/lib/gcc/arm-none-eabi/10.1.0/../../../../arm-none-eabi/lib/thumb/v7-m/nofp/libstdc++_nano.a(class_type_info.o) (operator delete(void*, unsigned int))
/usr/lib/gcc/arm-none-eabi/10.1.0/../../../../arm-none-eabi/lib/thumb/v7-m/nofp/libstdc++_nano.a(pure.o)
                              build/native/debug/application/application.o (__cxa_pure_virtual)
/usr/lib/gcc/arm-none-eabi/10.1.0/../../../../arm-none-eabi/lib/thumb/v7-m/nofp/libstdc++_nano.a(si_class_type_info.o)
                              build/native/debug/application/application.o (vtable for __cxxabiv1::__si_class_type_info)
/usr/lib/gcc/arm-none-eabi/10.1.0/../../../../arm-none-eabi/lib/thumb/v7-m/nofp/libstdc++_nano.a(tinfo.o)
                              /usr/lib/gcc/arm-none-eabi/10.1.0/../../../../arm-none-eabi/lib/thumb/v7-m/nofp/libstdc++_nano.a(class_type_info.o) (std::type_info::~type_info())
/usr/lib/gcc/arm-none-eabi/10.1.0/../../../../arm-none-eabi/lib/thumb/v7-m/nofp/libstdc++_nano.a(chrono.o)
                              build/native/debug/application/application.o (std::chrono::_V2::system_clock::now())
/usr/lib/gcc/arm-none-eabi/10.1.0/../../../../arm-none-eabi/lib/thumb/v7-m/nofp/libstdc++_nano.a(del_op.o)
                              /usr/lib/gcc/arm-none-eabi/10.1.0/../../../../arm-none-eabi/lib/thumb/v7-m/nofp/libstdc++_nano.a(del_ops.o) (operator delete(void*))
/usr/lib/gcc/arm-none-eabi/10.1.0/../../../../arm-none-eabi/lib/thumb/v7-m/nofp/libstdc++_nano.a(eh_terminate.o)
                              /usr/lib/gcc/arm-none-eabi/10.1.0/../../../../arm-none-eabi/lib/thumb/v7-m/nofp/libstdc++_nano.a(pure.o) (std::terminate())
/usr/lib/gcc/arm-none-eabi/10.1.0/../../../../arm-none-eabi/lib/thumb/v7-m/nofp/libstdc++_nano.a(eh_unex_handler.o)
                              /usr/lib/gcc/arm-none-eabi/10.1.0/../../../../arm-none-eabi/lib/thumb/v7-m/nofp/libstdc++_nano.a(eh_terminate.o) (__cxxabiv1::__unexpected_handler)
/usr/lib/gcc/arm-none-eabi/10.1.0/../../../../arm-none-eabi/lib/thumb/v7-m/nofp/libstdc++_nano.a(eh_term_handler.o)
                              /usr/lib/gcc/arm-none-eabi/10.1.0/../../../../arm-none-eabi/lib/thumb/v7-m/nofp/libstdc++_nano.a(eh_terminate.o) (__cxxabiv1::__terminate_handler)
/usr/lib/gcc/arm-none-eabi/10.1.0/../../../../arm-none-eabi/lib/thumb/v7-m/nofp/libc_nano.a(lib_a-abort.o)
                              /usr/lib/gcc/arm-none-eabi/10.1.0/../../../../arm-none-eabi/lib/thumb/v7-m/nofp/libstdc++_nano.a(eh_terminate.o) (abort)
/usr/lib/gcc/arm-none-eabi/10.1.0/../../../../arm-none-eabi/lib/thumb/v7-m/nofp/libc_nano.a(lib_a-atexit.o)
                              /usr/lib/gcc/arm-none-eabi/10.1.0/../../../../arm-none-eabi/lib/thumb/v7-m/nofp/crt0.o (atexit)
/usr/lib/gcc/arm-none-eabi/10.1.0/../../../../arm-none-eabi/lib/thumb/v7-m/nofp/libc_nano.a(lib_a-cxa_atexit.o)
                              /usr/lib/gcc/arm-none-eabi/10.1.0/../../../../arm-none-eabi/lib/thumb/v7-m/nofp/libstdc++_nano.a(atexit_arm.o) (__cxa_atexit)
/usr/lib/gcc/arm-none-eabi/10.1.0/../../../../arm-none-eabi/lib/thumb/v7-m/nofp/libc_nano.a(lib_a-exit.o)
                              /usr/lib/gcc/arm-none-eabi/10.1.0/../../../../arm-none-eabi/lib/thumb/v7-m/nofp/crt0.o (exit)
/usr/lib/gcc/arm-none-eabi/10.1.0/../../../../arm-none-eabi/lib/thumb/v7-m/nofp/libc_nano.a(lib_a-fini.o)
                              /usr/lib/gcc/arm-none-eabi/10.1.0/../../../../arm-none-eabi/lib/thumb/v7-m/nofp/crt0.o (__libc_fini_array)
/usr/lib/gcc/arm-none-eabi/10.1.0/../../../../arm-none-eabi/lib/thumb/v7-m/nofp/libc_nano.a(lib_a-impure.o)
                              /usr/lib/gcc/arm-none-eabi/10.1.0/../../../../arm-none-eabi/lib/thumb/v7-m/nofp/libc_nano.a(lib_a-exit.o) (_global_impure_ptr)
/usr/lib/gcc/arm-none-eabi/10.1.0/../../../../arm-none-eabi/lib/thumb/v7-m/nofp/libc_nano.a(lib_a-init.o)
                              /usr/lib/gcc/arm-none-eabi/10.1.0/../../../../arm-none-eabi/lib/thumb/v7-m/nofp/crt0.o (__libc_init_array)
/usr/lib/gcc/arm-none-eabi/10.1.0/../../../../arm-none-eabi/lib/thumb/v7-m/nofp/libc_nano.a(lib_a-malloc.o)
                              /usr/lib/gcc/arm-none-eabi/10.1.0/../../../../arm-none-eabi/lib/thumb/v7-m/nofp/libstdc++_nano.a(del_op.o) (free)
/usr/lib/gcc/arm-none-eabi/10.1.0/../../../../arm-none-eabi/lib/thumb/v7-m/nofp/libc_nano.a(lib_a-memcpy-stub.o)
                              build/native/debug/application/application.o (memcpy)
/usr/lib/gcc/arm-none-eabi/10.1.0/../../../../arm-none-eabi/lib/thumb/v7-m/nofp/libc_nano.a(lib_a-memmove.o)
                              build/native/debug/application/application.o (memmove)
/usr/lib/gcc/arm-none-eabi/10.1.0/../../../../arm-none-eabi/lib/thumb/v7-m/nofp/libc_nano.a(lib_a-memset.o)
                              /usr/lib/gcc/arm-none-eabi/10.1.0/../../../../arm-none-eabi/lib/thumb/v7-m/nofp/crt0.o (memset)
/usr/lib/gcc/arm-none-eabi/10.1.0/../../../../arm-none-eabi/lib/thumb/v7-m/nofp/libc_nano.a(lib_a-nano-freer.o)
                              /usr/lib/gcc/arm-none-eabi/10.1.0/../../../../arm-none-eabi/lib/thumb/v7-m/nofp/libc_nano.a(lib_a-malloc.o) (_free_r)
/usr/lib/gcc/arm-none-eabi/10.1.0/../../../../arm-none-eabi/lib/thumb/v7-m/nofp/libc_nano.a(lib_a-nano-mallocr.o)
                              /usr/lib/gcc/arm-none-eabi/10.1.0/../../../../arm-none-eabi/lib/thumb/v7-m/nofp/libc_nano.a(lib_a-malloc.o) (_malloc_r)
/usr/lib/gcc/arm-none-eabi/10.1.0/../../../../arm-none-eabi/lib/thumb/v7-m/nofp/libc_nano.a(lib_a-on_exit_args.o)
                              /usr/lib/gcc/arm-none-eabi/10.1.0/../../../../arm-none-eabi/lib/thumb/v7-m/nofp/libc_nano.a(lib_a-cxa_atexit.o) (__on_exit_args)
/usr/lib/gcc/arm-none-eabi/10.1.0/../../../../arm-none-eabi/lib/thumb/v7-m/nofp/libc_nano.a(lib_a-sbrkr.o)
                              /usr/lib/gcc/arm-none-eabi/10.1.0/../../../../arm-none-eabi/lib/thumb/v7-m/nofp/libc_nano.a(lib_a-nano-mallocr.o) (_sbrk_r)
/usr/lib/gcc/arm-none-eabi/10.1.0/../../../../arm-none-eabi/lib/thumb/v7-m/nofp/libc_nano.a(lib_a-signal.o)
                              /usr/lib/gcc/arm-none-eabi/10.1.0/../../../../arm-none-eabi/lib/thumb/v7-m/nofp/libc_nano.a(lib_a-abort.o) (raise)
/usr/lib/gcc/arm-none-eabi/10.1.0/../../../../arm-none-eabi/lib/thumb/v7-m/nofp/libc_nano.a(lib_a-signalr.o)
                              /usr/lib/gcc/arm-none-eabi/10.1.0/../../../../arm-none-eabi/lib/thumb/v7-m/nofp/libc_nano.a(lib_a-signal.o) (_kill_r)
/usr/lib/gcc/arm-none-eabi/10.1.0/../../../../arm-none-eabi/lib/thumb/v7-m/nofp/libc_nano.a(lib_a-strcmp.o)
                              /usr/lib/gcc/arm-none-eabi/10.1.0/../../../../arm-none-eabi/lib/thumb/v7-m/nofp/libstdc++_nano.a(tinfo.o) (strcmp)
/usr/lib/gcc/arm-none-eabi/10.1.0/../../../../arm-none-eabi/lib/thumb/v7-m/nofp/libc_nano.a(lib_a-syswrite.o)
                              /usr/lib/gcc/arm-none-eabi/10.1.0/../../../../arm-none-eabi/lib/thumb/v7-m/nofp/libstdc++_nano.a(pure.o) (write)
/usr/lib/gcc/arm-none-eabi/10.1.0/../../../../arm-none-eabi/lib/thumb/v7-m/nofp/libc_nano.a(lib_a-writer.o)
                              /usr/lib/gcc/arm-none-eabi/10.1.0/../../../../arm-none-eabi/lib/thumb/v7-m/nofp/libc_nano.a(lib_a-syswrite.o) (_write_r)
/usr/lib/gcc/arm-none-eabi/10.1.0/../../../../arm-none-eabi/lib/thumb/v7-m/nofp/libc_nano.a(lib_a-__atexit.o)
                              /usr/lib/gcc/arm-none-eabi/10.1.0/../../../../arm-none-eabi/lib/thumb/v7-m/nofp/libc_nano.a(lib_a-atexit.o) (__register_exitproc)
/usr/lib/gcc/arm-none-eabi/10.1.0/../../../../arm-none-eabi/lib/thumb/v7-m/nofp/libc_nano.a(lib_a-__call_atexit.o)
                              /usr/lib/gcc/arm-none-eabi/10.1.0/../../../../arm-none-eabi/lib/thumb/v7-m/nofp/libc_nano.a(lib_a-__atexit.o) (__call_exitprocs)
/usr/lib/gcc/arm-none-eabi/10.1.0/../../../../arm-none-eabi/lib/thumb/v7-m/nofp/libc_nano.a(lib_a-lock.o)
                              /usr/lib/gcc/arm-none-eabi/10.1.0/../../../../arm-none-eabi/lib/thumb/v7-m/nofp/libc_nano.a(lib_a-__atexit.o) (__retarget_lock_acquire_recursive)
/usr/lib/gcc/arm-none-eabi/10.1.0/../../../../arm-none-eabi/lib/thumb/v7-m/nofp/libc_nano.a(lib_a-mlock.o)
                              /usr/lib/gcc/arm-none-eabi/10.1.0/../../../../arm-none-eabi/lib/thumb/v7-m/nofp/libc_nano.a(lib_a-nano-freer.o) (__malloc_lock)
/usr/lib/gcc/arm-none-eabi/10.1.0/../../../../arm-none-eabi/lib/thumb/v7-m/nofp/libc_nano.a(lib_a-reent.o)
                              /usr/lib/gcc/arm-none-eabi/10.1.0/../../../../arm-none-eabi/lib/thumb/v7-m/nofp/libc_nano.a(lib_a-sbrkr.o) (errno)
/usr/lib/gcc/arm-none-eabi/10.1.0/thumb/v7-m/nofp/libgcc.a(_aeabi_ldivmod.o)
                              build/native/debug/application/application.o (__aeabi_ldivmod)
/usr/lib/gcc/arm-none-eabi/10.1.0/thumb/v7-m/nofp/libgcc.a(_udivmoddi4.o)
                              /usr/lib/gcc/arm-none-eabi/10.1.0/thumb/v7-m/nofp/libgcc.a(_aeabi_ldivmod.o) (__udivmoddi4)
/usr/lib/gcc/arm-none-eabi/10.1.0/thumb/v7-m/nofp/libgcc.a(_dvmd_tls.o)
                              /usr/lib/gcc/arm-none-eabi/10.1.0/thumb/v7-m/nofp/libgcc.a(_aeabi_ldivmod.o) (__aeabi_ldiv0)
/usr/lib/gcc/arm-none-eabi/10.1.0/../../../../arm-none-eabi/lib/thumb/v7-m/nofp/libnosys.a(getpid.o)
                              /usr/lib/gcc/arm-none-eabi/10.1.0/../../../../arm-none-eabi/lib/thumb/v7-m/nofp/libc_nano.a(lib_a-signalr.o) (_getpid)
/usr/lib/gcc/arm-none-eabi/10.1.0/../../../../arm-none-eabi/lib/thumb/v7-m/nofp/libnosys.a(kill.o)
                              /usr/lib/gcc/arm-none-eabi/10.1.0/../../../../arm-none-eabi/lib/thumb/v7-m/nofp/libc_nano.a(lib_a-signalr.o) (_kill)
/usr/lib/gcc/arm-none-eabi/10.1.0/../../../../arm-none-eabi/lib/thumb/v7-m/nofp/libnosys.a(sbrk.o)
                              /usr/lib/gcc/arm-none-eabi/10.1.0/../../../../arm-none-eabi/lib/thumb/v7-m/nofp/libc_nano.a(lib_a-sbrkr.o) (_sbrk)
/usr/lib/gcc/arm-none-eabi/10.1.0/../../../../arm-none-eabi/lib/thumb/v7-m/nofp/libnosys.a(write.o)
                              /usr/lib/gcc/arm-none-eabi/10.1.0/../../../../arm-none-eabi/lib/thumb/v7-m/nofp/libc_nano.a(lib_a-writer.o) (_write)
/usr/lib/gcc/arm-none-eabi/10.1.0/../../../../arm-none-eabi/lib/thumb/v7-m/nofp/libnosys.a(_exit.o)
                              /usr/lib/gcc/arm-none-eabi/10.1.0/../../../../arm-none-eabi/lib/thumb/v7-m/nofp/libc_nano.a(lib_a-abort.o) (_exit)

Allocating common symbols
Common symbol       size              file

__lock___atexit_recursive_mutex
                    0x1               /usr/lib/gcc/arm-none-eabi/10.1.0/../../../../arm-none-eabi/lib/thumb/v7-m/nofp/libc_nano.a(lib_a-lock.o)
__lock___arc4random_mutex
                    0x1               /usr/lib/gcc/arm-none-eabi/10.1.0/../../../../arm-none-eabi/lib/thumb/v7-m/nofp/libc_nano.a(lib_a-lock.o)
errno               0x4               /usr/lib/gcc/arm-none-eabi/10.1.0/../../../../arm-none-eabi/lib/thumb/v7-m/nofp/libc_nano.a(lib_a-reent.o)
__lock___env_recursive_mutex
                    0x1               /usr/lib/gcc/arm-none-eabi/10.1.0/../../../../arm-none-eabi/lib/thumb/v7-m/nofp/libc_nano.a(lib_a-lock.o)
__lock___sinit_recursive_mutex
                    0x1               /usr/lib/gcc/arm-none-eabi/10.1.0/../../../../arm-none-eabi/lib/thumb/v7-m/nofp/libc_nano.a(lib_a-lock.o)
__lock___malloc_recursive_mutex
                    0x1               /usr/lib/gcc/arm-none-eabi/10.1.0/../../../../arm-none-eabi/lib/thumb/v7-m/nofp/libc_nano.a(lib_a-lock.o)
__lock___at_quick_exit_mutex
                    0x1               /usr/lib/gcc/arm-none-eabi/10.1.0/../../../../arm-none-eabi/lib/thumb/v7-m/nofp/libc_nano.a(lib_a-lock.o)
__lock___dd_hash_mutex
                    0x1               /usr/lib/gcc/arm-none-eabi/10.1.0/../../../../arm-none-eabi/lib/thumb/v7-m/nofp/libc_nano.a(lib_a-lock.o)
__lock___tz_mutex   0x1               /usr/lib/gcc/arm-none-eabi/10.1.0/../../../../arm-none-eabi/lib/thumb/v7-m/nofp/libc_nano.a(lib_a-lock.o)
__lock___sfp_recursive_mutex
                    0x1               /usr/lib/gcc/arm-none-eabi/10.1.0/../../../../arm-none-eabi/lib/thumb/v7-m/nofp/libc_nano.a(lib_a-lock.o)

Discarded input sections

 .text          0x0000000000000000        0x0 /usr/lib/gcc/arm-none-eabi/10.1.0/thumb/v7-m/nofp/crti.o
 .data          0x0000000000000000        0x0 /usr/lib/gcc/arm-none-eabi/10.1.0/thumb/v7-m/nofp/crti.o
 .bss           0x0000000000000000        0x0 /usr/lib/gcc/arm-none-eabi/10.1.0/thumb/v7-m/nofp/crti.o
 .text          0x0000000000000000        0x0 /usr/lib/gcc/arm-none-eabi/10.1.0/thumb/v7-m/nofp/crtbegin.o
 .data          0x0000000000000000        0x0 /usr/lib/gcc/arm-none-eabi/10.1.0/thumb/v7-m/nofp/crtbegin.o
 .bss           0x0000000000000000        0x0 /usr/lib/gcc/arm-none-eabi/10.1.0/thumb/v7-m/nofp/crtbegin.o
 .text          0x0000000000000000       0x70 /usr/lib/gcc/arm-none-eabi/10.1.0/../../../../arm-none-eabi/lib/thumb/v7-m/nofp/crt0.o
 .data          0x0000000000000000        0x0 /usr/lib/gcc/arm-none-eabi/10.1.0/../../../../arm-none-eabi/lib/thumb/v7-m/nofp/crt0.o
 .bss           0x0000000000000000        0x0 /usr/lib/gcc/arm-none-eabi/10.1.0/../../../../arm-none-eabi/lib/thumb/v7-m/nofp/crt0.o
 .ARM.extab     0x0000000000000000        0x0 /usr/lib/gcc/arm-none-eabi/10.1.0/../../../../arm-none-eabi/lib/thumb/v7-m/nofp/crt0.o
 .ARM.exidx     0x0000000000000000       0x10 /usr/lib/gcc/arm-none-eabi/10.1.0/../../../../arm-none-eabi/lib/thumb/v7-m/nofp/crt0.o
 .ARM.attributes
                0x0000000000000000       0x1b /usr/lib/gcc/arm-none-eabi/10.1.0/../../../../arm-none-eabi/lib/thumb/v7-m/nofp/crt0.o
 .group         0x0000000000000000        0x8 build/native/debug/application/application.o
 .group         0x0000000000000000        0xc build/native/debug/application/application.o
 .group         0x0000000000000000        0x8 build/native/debug/application/application.o
 .group         0x0000000000000000        0xc build/native/debug/application/application.o
 .group         0x0000000000000000        0xc build/native/debug/application/application.o
Memory Configuration

Name             Origin             Length             Attributes
RAM              0x0000000020000000 0x0000000000005000 xrw
FLASH            0x0000000008004000 0x0000000000010000 xr
*default*        0x0000000000000000 0xffffffffffffffff

Linker script and memory map

LOAD /usr/lib/gcc/arm-none-eabi/10.1.0/thumb/v7-m/nofp/crti.o
LOAD /usr/lib/gcc/arm-none-eabi/10.1.0/thumb/v7-m/nofp/crtbegin.o
LOAD /usr/lib/gcc/arm-none-eabi/10.1.0/../../../../arm-none-eabi/lib/thumb/v7-m/nofp/crt0.o
LOAD /usr/lib/gcc/arm-none-eabi/10.1.0/../../../../arm-none-eabi/lib/thumb/v7-m/nofp/libnosys.a
LOAD build/native/debug/application/application.o
LOAD build/native/debug/application/CAN.o
LOAD build/native/debug/application/CANRelais.o
LOAD build/native/debug/application/CANTemperatureSensors.o
LOAD build/native/debug/lowLevel/libLowLevel.a
LOAD /usr/lib/gcc/arm-none-eabi/10.1.0/../../../../arm-none-eabi/lib/thumb/v7-m/nofp/libstdc++_nano.a
LOAD /usr/lib/gcc/arm-none-eabi/10.1.0/../../../../arm-none-eabi/lib/thumb/v7-m/nofp/libm.a
LOAD /usr/lib/gcc/arm-none-eabi/10.1.0/../../../../arm-none-eabi/lib/thumb/v7-m/nofp/libc_nano.a
START GROUP
LOAD /usr/lib/gcc/arm-none-eabi/10.1.0/thumb/v7-m/nofp/libgcc.a
LOAD /usr/lib/gcc/arm-none-eabi/10.1.0/../../../../arm-none-eabi/lib/thumb/v7-m/nofp/libc_nano.a
END GROUP
START GROUP
LOAD /usr/lib/gcc/arm-none-eabi/10.1.0/thumb/v7-m/nofp/libgcc.a
LOAD /usr/lib/gcc/arm-none-eabi/10.1.0/../../../../arm-none-eabi/lib/thumb/v7-m/nofp/libc_nano.a
LOAD /usr/lib/gcc/arm-none-eabi/10.1.0/../../../../arm-none-eabi/lib/thumb/v7-m/nofp/libnosys.a
END GROUP
START GROUP
LOAD /usr/lib/gcc/arm-none-eabi/10.1.0/thumb/v7-m/nofp/libgcc.a
LOAD /usr/lib/gcc/arm-none-eabi/10.1.0/../../../../arm-none-eabi/lib/thumb/v7-m/nofp/libc_nano.a
LOAD /usr/lib/gcc/arm-none-eabi/10.1.0/../../../../arm-none-eabi/lib/thumb/v7-m/nofp/libnosys.a
END GROUP
LOAD /usr/lib/gcc/arm-none-eabi/10.1.0/thumb/v7-m/nofp/crtend.o
LOAD /usr/lib/gcc/arm-none-eabi/10.1.0/thumb/v7-m/nofp/crtn.o
                0x0000000020005000                _estack = 0x20005000
                0x0000000000000200                _Min_Heap_Size = 0x200
                0x0000000000000400                _Min_Stack_Size = 0x400

.isr_vector     0x0000000008004000      0x10c
                0x0000000008004000                . = ALIGN (0x4)
 *(.isr_vector)
 .isr_vector    0x0000000008004000      0x10c build/native/debug/lowLevel/libLowLevel.a(startup_stm32f103xb.o)
                0x0000000008004000                g_pfnVectors
                0x000000000800410c                . = ALIGN (0x4)

.text           0x000000000800410c     0x55d8
                0x000000000800410c                . = ALIGN (0x4)
 *(.text)
 .text          0x000000000800410c       0x14 /usr/lib/gcc/arm-none-eabi/10.1.0/../../../../arm-none-eabi/lib/thumb/v7-m/nofp/libc_nano.a(lib_a-strcmp.o)
                0x000000000800410c                strcmp
 .text          0x0000000008004120       0xa0 /usr/lib/gcc/arm-none-eabi/10.1.0/thumb/v7-m/nofp/libgcc.a(_aeabi_ldivmod.o)
                0x0000000008004120                __aeabi_ldivmod
 .text          0x00000000080041c0        0x4 /usr/lib/gcc/arm-none-eabi/10.1.0/thumb/v7-m/nofp/libgcc.a(_dvmd_tls.o)
                0x00000000080041c0                __aeabi_ldiv0
                0x00000000080041c0                __aeabi_idiv0
 *(.text*)
 .text.__do_global_dtors_aux
                0x00000000080041c4       0x24 /usr/lib/gcc/arm-none-eabi/10.1.0/thumb/v7-m/nofp/crtbegin.o
 .text.frame_dummy
                0x00000000080041e8       0x1c /usr/lib/gcc/arm-none-eabi/10.1.0/thumb/v7-m/nofp/crtbegin.o
 .text._ZNKSt6chrono8durationIxSt5ratioILx1ELx1000000000EEE5countEv
                0x0000000008004204       0x1a build/native/debug/application/application.o
                0x0000000008004204                std::chrono::duration<long long, std::ratio<1ll, 1000000000ll> >::count() const
 *fill*         0x000000000800421e        0x2 
 .text._ZN21CANTemperatureSensors8ReceiverC2ERN7message13ReceiverQueueE
                0x0000000008004220       0x28 build/native/debug/application/application.o
                0x0000000008004220                CANTemperatureSensors::Receiver::Receiver(message::ReceiverQueue&)
                0x0000000008004220                CANTemperatureSensors::Receiver::Receiver(message::ReceiverQueue&)
 .text.startApplication
                0x0000000008004248       0x34 build/native/debug/application/application.o
                0x0000000008004248                startApplication
 .text._ZNKSt6chrono10time_pointINS_3_V212system_clockENS_8durationIxSt5ratioILx1ELx1000000000EEEEE16time_since_epochEv
                0x000000000800427c       0x20 build/native/debug/application/application.o
                0x000000000800427c                std::chrono::time_point<std::chrono::_V2::system_clock, std::chrono::duration<long long, std::ratio<1ll, 1000000000ll> > >::time_since_epoch() const
 .text._ZN7message8ReceiverIiEC2ERNS_13ReceiverQueueE
                0x000000000800429c       0x28 build/native/debug/application/application.o
                0x000000000800429c                message::Receiver<int>::Receiver(message::ReceiverQueue&)
                0x000000000800429c                message::Receiver<int>::Receiver(message::ReceiverQueue&)
 .text._ZN7message13ReceiverQueueC2Ev
                0x00000000080042c4       0x20 build/native/debug/application/application.o
                0x00000000080042c4                message::ReceiverQueue::ReceiverQueue()
                0x00000000080042c4                message::ReceiverQueue::ReceiverQueue()
 .text._ZN7message5QueueILt256ELt256EEC2Ev
                0x00000000080042e4       0x60 build/native/debug/application/application.o
                0x00000000080042e4                message::Queue<(unsigned short)256, (unsigned short)256>::Queue()
                0x00000000080042e4                message::Queue<(unsigned short)256, (unsigned short)256>::Queue()
 .text._ZN7message5QueueILt64ELt128EEC2Ev
                0x0000000008004344       0x58 build/native/debug/application/application.o
                0x0000000008004344                message::Queue<(unsigned short)64, (unsigned short)128>::Queue()
                0x0000000008004344                message::Queue<(unsigned short)64, (unsigned short)128>::Queue()
 .text._ZN7message5QueueILt256ELt256EE8dispatchEv
                0x000000000800439c       0xd0 build/native/debug/application/application.o
                0x000000000800439c                message::Queue<(unsigned short)256, (unsigned short)256>::dispatch()
 .text._ZN7message5QueueILt64ELt128EE8dispatchEv
                0x000000000800446c       0xd8 build/native/debug/application/application.o
                0x000000000800446c                message::Queue<(unsigned short)64, (unsigned short)128>::dispatch()
 .text._ZNSt5arrayIhLj256EEixEj
                0x0000000008004544       0x1e build/native/debug/application/application.o
                0x0000000008004544                std::array<unsigned char, 256u>::operator[](unsigned int)
 .text._ZN7message7MessageIiE7deliverEv
                0x0000000008004562       0x22 build/native/debug/application/application.o
                0x0000000008004562                message::Message<int>::deliver()
 .text._ZN7message5QueueILt256ELt256EE13checkTimeoutsEv
                0x0000000008004584       0xca build/native/debug/application/application.o
                0x0000000008004584                message::Queue<(unsigned short)256, (unsigned short)256>::checkTimeouts()
 .text._ZNSt5arrayIhLj64EEixEj
                0x000000000800464e       0x1e build/native/debug/application/application.o
                0x000000000800464e                std::array<unsigned char, 64u>::operator[](unsigned int)
 .text._ZN7message5QueueILt64ELt128EE13checkTimeoutsEv
                0x000000000800466c       0xc8 build/native/debug/application/application.o
                0x000000000800466c                message::Queue<(unsigned short)64, (unsigned short)128>::checkTimeouts()
 .text._ZNSt14__array_traitsIhLj256EE6_S_refERA256_Khj
                0x0000000008004734       0x1a build/native/debug/application/application.o
                0x0000000008004734                std::__array_traits<unsigned char, 256u>::_S_ref(unsigned char const (&) [256], unsigned int)
 .text._ZNSt5arrayIN7message5QueueILt256ELt256EE19timeoutQueueIndex_tELj32EE5beginEv
                0x000000000800474e       0x18 build/native/debug/application/application.o
                0x000000000800474e                std::array<message::Queue<(unsigned short)256, (unsigned short)256>::timeoutQueueIndex_t, 32u>::begin()
 .text._ZNSt5arrayIN7message5QueueILt256ELt256EE19timeoutQueueIndex_tELj32EE3endEv
                0x0000000008004766       0x1c build/native/debug/application/application.o
                0x0000000008004766                std::array<message::Queue<(unsigned short)256, (unsigned short)256>::timeoutQueueIndex_t, 32u>::end()
 .text._ZNSt6chrono13duration_castINS_8durationIxSt5ratioILx1ELx1000EEEExS2_ILx1ELx1000000000EEEENSt9enable_ifIXsrNS_13__is_durationIT_EE5valueES8_E4typeERKNS1_IT0_T1_EE
                0x0000000008004782       0x1e build/native/debug/application/application.o
                0x0000000008004782                std::enable_if<std::chrono::__is_duration<std::chrono::duration<long long, std::ratio<1ll, 1000ll> > >::value, std::chrono::duration<long long, std::ratio<1ll, 1000ll> > >::type std::chrono::duration_cast<std::chrono::duration<long long, std::ratio<1ll, 1000ll> >, long long, std::ratio<1ll, 1000000000ll> >(std::chrono::duration<long long, std::ratio<1ll, 1000000000ll> > const&)
 .text._ZNKSt6chrono8durationIxSt5ratioILx1ELx1000EEE5countEv
                0x00000000080047a0       0x1a build/native/debug/application/application.o
                0x00000000080047a0                std::chrono::duration<long long, std::ratio<1ll, 1000ll> >::count() const
 .text._ZNSt6chronoltIxSt5ratioILx1ELx1000EExS2_EEbRKNS_8durationIT_T0_EERKNS3_IT1_T2_EE
                0x00000000080047ba       0x50 build/native/debug/application/application.o
                0x00000000080047ba                bool std::chrono::operator< <long long, std::ratio<1ll, 1000ll>, long long, std::ratio<1ll, 1000ll> >(std::chrono::duration<long long, std::ratio<1ll, 1000ll> > const&, std::chrono::duration<long long, std::ratio<1ll, 1000ll> > const&)
 .text._ZN7message5QueueILt256ELt256EE10defragmentEv
                0x000000000800480a      0x21c build/native/debug/application/application.o
                0x000000000800480a                message::Queue<(unsigned short)256, (unsigned short)256>::defragment()
 .text._ZNSt14__array_traitsIhLj64EE6_S_refERA64_Khj
                0x0000000008004a26       0x1a build/native/debug/application/application.o
                0x0000000008004a26                std::__array_traits<unsigned char, 64u>::_S_ref(unsigned char const (&) [64], unsigned int)
 .text._ZNSt5arrayIN7message5QueueILt64ELt128EE19timeoutQueueIndex_tELj16EE5beginEv
                0x0000000008004a40       0x18 build/native/debug/application/application.o
                0x0000000008004a40                std::array<message::Queue<(unsigned short)64, (unsigned short)128>::timeoutQueueIndex_t, 16u>::begin()
 .text._ZNSt5arrayIN7message5QueueILt64ELt128EE19timeoutQueueIndex_tELj16EE3endEv
                0x0000000008004a58       0x1c build/native/debug/application/application.o
                0x0000000008004a58                std::array<message::Queue<(unsigned short)64, (unsigned short)128>::timeoutQueueIndex_t, 16u>::end()
 .text._ZNSt5arrayIhLj128EEixEj
                0x0000000008004a74       0x1e build/native/debug/application/application.o
                0x0000000008004a74                std::array<unsigned char, 128u>::operator[](unsigned int)
 .text._ZN7message5QueueILt64ELt128EE10defragmentEv
                0x0000000008004a92      0x204 build/native/debug/application/application.o
                0x0000000008004a92                message::Queue<(unsigned short)64, (unsigned short)128>::defragment()
 .text._ZNSt5arrayIN7message5QueueILt256ELt256EE19timeoutQueueIndex_tELj32EE4dataEv
                0x0000000008004c96       0x1a build/native/debug/application/application.o
                0x0000000008004c96                std::array<message::Queue<(unsigned short)256, (unsigned short)256>::timeoutQueueIndex_t, 32u>::data()
 .text._ZNSt6chrono20__duration_cast_implINS_8durationIxSt5ratioILx1ELx1000EEEES2_ILx1ELx1000000EExLb1ELb0EE6__castIxS2_ILx1ELx1000000000EEEES4_RKNS1_IT_T0_EE
                0x0000000008004cb0       0x3c build/native/debug/application/application.o
                0x0000000008004cb0                std::chrono::duration<long long, std::ratio<1ll, 1000ll> > std::chrono::__duration_cast_impl<std::chrono::duration<long long, std::ratio<1ll, 1000ll> >, std::ratio<1ll, 1000000ll>, long long, true, false>::__cast<long long, std::ratio<1ll, 1000000000ll> >(std::chrono::duration<long long, std::ratio<1ll, 1000000000ll> > const&)
 .text._ZNSt5arrayIhLj256EE5beginEv
                0x0000000008004cec       0x18 build/native/debug/application/application.o
                0x0000000008004cec                std::array<unsigned char, 256u>::begin()
 .text._ZSt4copyIPhS0_ET0_T_S2_S1_
                0x0000000008004d04       0x30 build/native/debug/application/application.o
                0x0000000008004d04                unsigned char* std::copy<unsigned char*, unsigned char*>(unsigned char*, unsigned char*, unsigned char*)
 .text._ZNSt5arrayIN7message5QueueILt256ELt256EE19timeoutQueueIndex_tELj32EEixEj
                0x0000000008004d34       0x1e build/native/debug/application/application.o
                0x0000000008004d34                std::array<message::Queue<(unsigned short)256, (unsigned short)256>::timeoutQueueIndex_t, 32u>::operator[](unsigned int)
 .text._ZNSt5arrayIN7message5QueueILt64ELt128EE19timeoutQueueIndex_tELj16EE4dataEv
                0x0000000008004d52       0x1a build/native/debug/application/application.o
                0x0000000008004d52                std::array<message::Queue<(unsigned short)64, (unsigned short)128>::timeoutQueueIndex_t, 16u>::data()
 .text._ZNSt14__array_traitsIhLj128EE6_S_refERA128_Khj
                0x0000000008004d6c       0x1a build/native/debug/application/application.o
                0x0000000008004d6c                std::__array_traits<unsigned char, 128u>::_S_ref(unsigned char const (&) [128], unsigned int)
 .text._ZNSt5arrayIhLj128EE5beginEv
                0x0000000008004d86       0x18 build/native/debug/application/application.o
                0x0000000008004d86                std::array<unsigned char, 128u>::begin()
 .text._ZNSt5arrayIN7message5QueueILt64ELt128EE19timeoutQueueIndex_tELj16EEixEj
                0x0000000008004d9e       0x1e build/native/debug/application/application.o
                0x0000000008004d9e                std::array<message::Queue<(unsigned short)64, (unsigned short)128>::timeoutQueueIndex_t, 16u>::operator[](unsigned int)
 .text._ZNSt14__array_traitsIN7message5QueueILt256ELt256EE19timeoutQueueIndex_tELj32EE6_S_ptrERA32_KS3_
                0x0000000008004dbc       0x14 build/native/debug/application/application.o
                0x0000000008004dbc                std::__array_traits<message::Queue<(unsigned short)256, (unsigned short)256>::timeoutQueueIndex_t, 32u>::_S_ptr(message::Queue<(unsigned short)256, (unsigned short)256>::timeoutQueueIndex_t const (&) [32])
 .text._ZNSt6chrono8durationIxSt5ratioILx1ELx1000EEEC2IxvEERKT_
                0x0000000008004dd0       0x22 build/native/debug/application/application.o
                0x0000000008004dd0                std::chrono::duration<long long, std::ratio<1ll, 1000ll> >::duration<long long, void>(long long const&)
                0x0000000008004dd0                std::chrono::duration<long long, std::ratio<1ll, 1000ll> >::duration<long long, void>(long long const&)
 .text._ZNSt5arrayIhLj256EE4dataEv
                0x0000000008004df2       0x1a build/native/debug/application/application.o
                0x0000000008004df2                std::array<unsigned char, 256u>::data()
 .text._ZSt12__miter_baseIPhET_S1_
                0x0000000008004e0c       0x14 build/native/debug/application/application.o
                0x0000000008004e0c                unsigned char* std::__miter_base<unsigned char*>(unsigned char*)
 .text._ZSt13__copy_move_aILb0EPhS0_ET1_T0_S2_S1_
                0x0000000008004e20       0x46 build/native/debug/application/application.o
                0x0000000008004e20                unsigned char* std::__copy_move_a<false, unsigned char*, unsigned char*>(unsigned char*, unsigned char*, unsigned char*)
 .text._ZNSt14__array_traitsIN7message5QueueILt256ELt256EE19timeoutQueueIndex_tELj32EE6_S_refERA32_KS3_j
                0x0000000008004e66       0x1c build/native/debug/application/application.o
                0x0000000008004e66                std::__array_traits<message::Queue<(unsigned short)256, (unsigned short)256>::timeoutQueueIndex_t, 32u>::_S_ref(message::Queue<(unsigned short)256, (unsigned short)256>::timeoutQueueIndex_t const (&) [32], unsigned int)
 .text._ZNSt14__array_traitsIN7message5QueueILt64ELt128EE19timeoutQueueIndex_tELj16EE6_S_ptrERA16_KS3_
                0x0000000008004e82       0x14 build/native/debug/application/application.o
                0x0000000008004e82                std::__array_traits<message::Queue<(unsigned short)64, (unsigned short)128>::timeoutQueueIndex_t, 16u>::_S_ptr(message::Queue<(unsigned short)64, (unsigned short)128>::timeoutQueueIndex_t const (&) [16])
 .text._ZNSt5arrayIhLj128EE4dataEv
                0x0000000008004e96       0x1a build/native/debug/application/application.o
                0x0000000008004e96                std::array<unsigned char, 128u>::data()
 .text._ZNSt14__array_traitsIN7message5QueueILt64ELt128EE19timeoutQueueIndex_tELj16EE6_S_refERA16_KS3_j
                0x0000000008004eb0       0x1c build/native/debug/application/application.o
                0x0000000008004eb0                std::__array_traits<message::Queue<(unsigned short)64, (unsigned short)128>::timeoutQueueIndex_t, 16u>::_S_ref(message::Queue<(unsigned short)64, (unsigned short)128>::timeoutQueueIndex_t const (&) [16], unsigned int)
 .text._ZNSt14__array_traitsIhLj256EE6_S_ptrERA256_Kh
                0x0000000008004ecc       0x14 build/native/debug/application/application.o
                0x0000000008004ecc                std::__array_traits<unsigned char, 256u>::_S_ptr(unsigned char const (&) [256])
 .text._ZSt12__niter_baseIPhET_S1_
                0x0000000008004ee0       0x14 build/native/debug/application/application.o
                0x0000000008004ee0                unsigned char* std::__niter_base<unsigned char*>(unsigned char*)
 .text._ZSt14__copy_move_a1ILb0EPhS0_ET1_T0_S2_S1_
                0x0000000008004ef4       0x20 build/native/debug/application/application.o
                0x0000000008004ef4                unsigned char* std::__copy_move_a1<false, unsigned char*, unsigned char*>(unsigned char*, unsigned char*, unsigned char*)
 .text._ZSt12__niter_wrapIPhET_RKS1_S1_
                0x0000000008004f14       0x16 build/native/debug/application/application.o
                0x0000000008004f14                unsigned char* std::__niter_wrap<unsigned char*>(unsigned char* const&, unsigned char*)
 .text._ZNSt14__array_traitsIhLj128EE6_S_ptrERA128_Kh
                0x0000000008004f2a       0x14 build/native/debug/application/application.o
                0x0000000008004f2a                std::__array_traits<unsigned char, 128u>::_S_ptr(unsigned char const (&) [128])
 .text._ZSt14__copy_move_a2ILb0EPhS0_ET1_T0_S2_S1_
                0x0000000008004f3e       0x20 build/native/debug/application/application.o
                0x0000000008004f3e                unsigned char* std::__copy_move_a2<false, unsigned char*, unsigned char*>(unsigned char*, unsigned char*, unsigned char*)
 .text._ZNSt11__copy_moveILb0ELb1ESt26random_access_iterator_tagE8__copy_mIhEEPT_PKS3_S6_S4_
                0x0000000008004f5e       0x34 build/native/debug/application/application.o
                0x0000000008004f5e                unsigned char* std::__copy_move<false, true, std::random_access_iterator_tag>::__copy_m<unsigned char>(unsigned char const*, unsigned char const*, unsigned char*)
 *fill*         0x0000000008004f92        0x2 
 .text._Z41__static_initialization_and_destruction_0ii
                0x0000000008004f94       0x44 build/native/debug/application/application.o
 .text._ZN7message5QueueILt64ELt128EE5allocEj
                0x0000000008004fd8       0xd6 build/native/debug/application/application.o
                0x0000000008004fd8                message::Queue<(unsigned short)64, (unsigned short)128>::alloc(unsigned int)
 .text._ZN7message5QueueILt64ELt128EE5allocEjNSt6chrono8durationIxSt5ratioILx1ELx1000EEEE
                0x00000000080050ae      0x106 build/native/debug/application/application.o
                0x00000000080050ae                message::Queue<(unsigned short)64, (unsigned short)128>::alloc(unsigned int, std::chrono::duration<long long, std::ratio<1ll, 1000ll> >)
 .text._ZN7message5QueueILt64ELt128EE11enoughSpaceEj
                0x00000000080051b4       0x36 build/native/debug/application/application.o
                0x00000000080051b4                message::Queue<(unsigned short)64, (unsigned short)128>::enoughSpace(unsigned int)
 .text._ZN7message5QueueILt64ELt128EE18enoughTimeoutSpaceEj
                0x00000000080051ea       0x32 build/native/debug/application/application.o
                0x00000000080051ea                message::Queue<(unsigned short)64, (unsigned short)128>::enoughTimeoutSpace(unsigned int)
 .text._ZN7message5QueueILt256ELt256EE5allocEj
                0x000000000800521c       0xd4 build/native/debug/application/application.o
                0x000000000800521c                message::Queue<(unsigned short)256, (unsigned short)256>::alloc(unsigned int)
 .text._ZN7message5QueueILt256ELt256EE5allocEjNSt6chrono8durationIxSt5ratioILx1ELx1000EEEE
                0x00000000080052f0      0x10a build/native/debug/application/application.o
                0x00000000080052f0                message::Queue<(unsigned short)256, (unsigned short)256>::alloc(unsigned int, std::chrono::duration<long long, std::ratio<1ll, 1000ll> >)
 .text._ZN7message5QueueILt256ELt256EE11enoughSpaceEj
                0x00000000080053fa       0x38 build/native/debug/application/application.o
                0x00000000080053fa                message::Queue<(unsigned short)256, (unsigned short)256>::enoughSpace(unsigned int)
 .text._ZN7message5QueueILt256ELt256EE18enoughTimeoutSpaceEj
                0x0000000008005432       0x34 build/native/debug/application/application.o
                0x0000000008005432                message::Queue<(unsigned short)256, (unsigned short)256>::enoughTimeoutSpace(unsigned int)
 .text._ZNKSt5arrayIhLj64EE4sizeEv
                0x0000000008005466       0x14 build/native/debug/application/application.o
                0x0000000008005466                std::array<unsigned char, 64u>::size() const
 .text._ZNKSt5arrayIhLj128EE4sizeEv
                0x000000000800547a       0x14 build/native/debug/application/application.o
                0x000000000800547a                std::array<unsigned char, 128u>::size() const
 .text._ZNSt6chronoplIxSt5ratioILx1ELx1000EExS2_EENSt11common_typeIJNS_8durationIT_T0_EENS4_IT1_T2_EEEE4typeERKS7_RKSA_
                0x000000000800548e       0x60 build/native/debug/application/application.o
                0x000000000800548e                std::common_type<std::chrono::duration<long long, std::ratio<1ll, 1000ll> >, std::chrono::duration<long long, std::ratio<1ll, 1000ll> > >::type std::chrono::operator+<long long, std::ratio<1ll, 1000ll>, long long, std::ratio<1ll, 1000ll> >(std::chrono::duration<long long, std::ratio<1ll, 1000ll> > const&, std::chrono::duration<long long, std::ratio<1ll, 1000ll> > const&)
 .text._ZNKSt5arrayIhLj256EE4sizeEv
                0x00000000080054ee       0x16 build/native/debug/application/application.o
                0x00000000080054ee                std::array<unsigned char, 256u>::size() const
 .text._GLOBAL__sub_I__ZN9MainQueue5queueE
                0x0000000008005504       0x10 build/native/debug/application/application.o
 .text._ZN3etl11vector_baseC2Ej
                0x0000000008005514       0x1c build/native/debug/application/CAN.o
                0x0000000008005514                etl::vector_base::vector_base(unsigned int)
                0x0000000008005514                etl::vector_base::vector_base(unsigned int)
 .text._ZN3etl11vector_baseD2Ev
                0x0000000008005530       0x14 build/native/debug/application/CAN.o
                0x0000000008005530                etl::vector_base::~vector_base()
                0x0000000008005530                etl::vector_base::~vector_base()
 .text._ZN19CANReceiverReceiverC2ERN7message13ReceiverQueueE
                0x0000000008005544       0x28 build/native/debug/application/CAN.o
                0x0000000008005544                CANReceiverReceiver::CANReceiverReceiver(message::ReceiverQueue&)
                0x0000000008005544                CANReceiverReceiver::CANReceiverReceiver(message::ReceiverQueue&)
 .text._ZN11application3CAN4sendEmN3etl6vectorIhLj8EEE
                0x000000000800556c       0x58 build/native/debug/application/CAN.o
                0x000000000800556c                application::CAN::send(unsigned long, etl::vector<unsigned char, 8u>)
 .text._ZN11application3CAN6data_tD2Ev
                0x00000000080055c4       0x1c build/native/debug/application/CAN.o
                0x00000000080055c4                application::CAN::data_t::~data_t()
                0x00000000080055c4                application::CAN::data_t::~data_t()
 .text._ZN7message8ReceiverIN11application3CAN6data_tEEC2ERNS_13ReceiverQueueE
                0x00000000080055e0       0x28 build/native/debug/application/CAN.o
                0x00000000080055e0                message::Receiver<application::CAN::data_t>::Receiver(message::ReceiverQueue&)
                0x00000000080055e0                message::Receiver<application::CAN::data_t>::Receiver(message::ReceiverQueue&)
 .text._ZN3etl6vectorIhLj8EEC2ERKS1_
                0x0000000008005608       0x42 build/native/debug/application/CAN.o
                0x0000000008005608                etl::vector<unsigned char, 8u>::vector(etl::vector<unsigned char, 8u> const&)
                0x0000000008005608                etl::vector<unsigned char, 8u>::vector(etl::vector<unsigned char, 8u> const&)
 .text._ZN3etl6vectorIhLj8EED2Ev
                0x000000000800564a       0x22 build/native/debug/application/CAN.o
                0x000000000800564a                etl::vector<unsigned char, 8u>::~vector()
                0x000000000800564a                etl::vector<unsigned char, 8u>::~vector()
 .text._ZSt4moveIRN11application3CAN6data_tEEONSt16remove_referenceIT_E4typeEOS5_
                0x000000000800566c       0x14 build/native/debug/application/CAN.o
                0x000000000800566c                std::remove_reference<application::CAN::data_t&>::type&& std::move<application::CAN::data_t&>(application::CAN::data_t&)
 .text._ZN3etl7ivectorIhEC2EPhj
                0x0000000008005680       0x2c build/native/debug/application/CAN.o
                0x0000000008005680                etl::ivector<unsigned char>::ivector(unsigned char*, unsigned int)
                0x0000000008005680                etl::ivector<unsigned char>::ivector(unsigned char*, unsigned int)
 .text._ZN3etl7ivectorIhED2Ev
                0x00000000080056ac       0x1a build/native/debug/application/CAN.o
                0x00000000080056ac                etl::ivector<unsigned char>::~ivector()
                0x00000000080056ac                etl::ivector<unsigned char>::~ivector()
 .text._ZNK3etl7ivectorIhE5beginEv
                0x00000000080056c6       0x16 build/native/debug/application/CAN.o
                0x00000000080056c6                etl::ivector<unsigned char>::begin() const
 .text._ZNK3etl7ivectorIhE3endEv
                0x00000000080056dc       0x16 build/native/debug/application/CAN.o
                0x00000000080056dc                etl::ivector<unsigned char>::end() const
 .text._ZN3etl7ivectorIhE6assignIPKhEEvT_S5_
                0x00000000080056f2       0x2e build/native/debug/application/CAN.o
                0x00000000080056f2                void etl::ivector<unsigned char>::assign<unsigned char const*>(unsigned char const*, unsigned char const*)
 .text._ZN3etl7ivectorIhE5clearEv
                0x0000000008005720       0x16 build/native/debug/application/CAN.o
                0x0000000008005720                etl::ivector<unsigned char>::clear()
 .text._ZN11application3CAN6data_tC2ERKS1_
                0x0000000008005736       0x2c build/native/debug/application/CAN.o
                0x0000000008005736                application::CAN::data_t::data_t(application::CAN::data_t const&)
                0x0000000008005736                application::CAN::data_t::data_t(application::CAN::data_t const&)
 .text._ZN7message7MessageIN11application3CAN6data_tEEC2ERNS_8ReceiverIS3_EENS_5EventEOS3_
                0x0000000008005762       0x30 build/native/debug/application/CAN.o
                0x0000000008005762                message::Message<application::CAN::data_t>::Message(message::Receiver<application::CAN::data_t>&, message::Event, application::CAN::data_t&&)
                0x0000000008005762                message::Message<application::CAN::data_t>::Message(message::Receiver<application::CAN::data_t>&, message::Event, application::CAN::data_t&&)
 .text._ZN3etl7ivectorIhE10initialiseEv
                0x0000000008005792       0x28 build/native/debug/application/CAN.o
                0x0000000008005792                etl::ivector<unsigned char>::initialise()
 .text._ZN3etl18uninitialized_copyIPKhPhEENS_9enable_ifIXsrNS_26is_trivially_constructibleINSt15iterator_traitsIT0_E10value_typeEEE5valueES7_E4typeET_SD_S7_
                0x00000000080057ba       0x20 build/native/debug/application/CAN.o
                0x00000000080057ba                etl::enable_if<etl::is_trivially_constructible<std::iterator_traits<unsigned char*>::value_type>::value, unsigned char*>::type etl::uninitialized_copy<unsigned char const*, unsigned char*>(unsigned char const*, unsigned char const*, unsigned char*)
 .text._ZN3etl7destroyIPhEENS_9enable_ifIXsrNS_25is_trivially_destructibleINSt15iterator_traitsIT_E10value_typeEEE5valueEvE4typeES5_S5_
                0x00000000080057da       0x14 build/native/debug/application/CAN.o
                0x00000000080057da                etl::enable_if<etl::is_trivially_destructible<std::iterator_traits<unsigned char*>::value_type>::value, void>::type etl::destroy<unsigned char*>(unsigned char*, unsigned char*)
 .text._ZSt4copyIPKhPhET0_T_S4_S3_
                0x00000000080057ee       0x30 build/native/debug/application/CAN.o
                0x00000000080057ee                unsigned char* std::copy<unsigned char const*, unsigned char*>(unsigned char const*, unsigned char const*, unsigned char*)
 .text._ZSt12__miter_baseIPKhET_S2_
                0x000000000800581e       0x14 build/native/debug/application/CAN.o
                0x000000000800581e                unsigned char const* std::__miter_base<unsigned char const*>(unsigned char const*)
 .text._ZSt13__copy_move_aILb0EPKhPhET1_T0_S4_S3_
                0x0000000008005832       0x46 build/native/debug/application/CAN.o
                0x0000000008005832                unsigned char* std::__copy_move_a<false, unsigned char const*, unsigned char*>(unsigned char const*, unsigned char const*, unsigned char*)
 .text._ZSt12__niter_baseIPKhET_S2_
                0x0000000008005878       0x14 build/native/debug/application/CAN.o
                0x0000000008005878                unsigned char const* std::__niter_base<unsigned char const*>(unsigned char const*)
 .text._ZSt14__copy_move_a1ILb0EPKhPhET1_T0_S4_S3_
                0x000000000800588c       0x20 build/native/debug/application/CAN.o
                0x000000000800588c                unsigned char* std::__copy_move_a1<false, unsigned char const*, unsigned char*>(unsigned char const*, unsigned char const*, unsigned char*)
 .text._ZSt14__copy_move_a2ILb0EPKhPhET1_T0_S4_S3_
                0x00000000080058ac       0x20 build/native/debug/application/CAN.o
                0x00000000080058ac                unsigned char* std::__copy_move_a2<false, unsigned char const*, unsigned char*>(unsigned char const*, unsigned char const*, unsigned char*)
 .text._Z41__static_initialization_and_destruction_0ii
                0x00000000080058cc       0x34 build/native/debug/application/CAN.o
 .text._GLOBAL__sub_I_canRelais
                0x0000000008005900       0x10 build/native/debug/application/CAN.o
 .text._ZN19CANReceiverReceiver7receiveERN7message7MessageIN11application3CAN6data_tEEE
                0x0000000008005910      0x104 build/native/debug/application/CANRelais.o
                0x0000000008005910                CANReceiverReceiver::receive(message::Message<application::CAN::data_t>&)
 .text._ZN3etl7ivectorIhE5beginEv
                0x0000000008005a14       0x16 build/native/debug/application/CANRelais.o
                0x0000000008005a14                etl::ivector<unsigned char>::begin()
 .text._ZN3etl7ivectorIhE3endEv
                0x0000000008005a2a       0x16 build/native/debug/application/CANRelais.o
                0x0000000008005a2a                etl::ivector<unsigned char>::end()
 .text._ZSt5beginIhLj8EEPT_RAT0__S0_
                0x0000000008005a40       0x14 build/native/debug/application/CANRelais.o
                0x0000000008005a40                unsigned char* std::begin<unsigned char, 8u>(unsigned char (&) [8u])
 .text._ZSt3endIhLj8EEPT_RAT0__S0_
                0x0000000008005a54       0x16 build/native/debug/application/CANRelais.o
                0x0000000008005a54                unsigned char* std::end<unsigned char, 8u>(unsigned char (&) [8u])
 .text._ZN3etl6vectorIhLj8EEC2IPhEET_S4_
                0x0000000008005a6a       0x30 build/native/debug/application/CANRelais.o
                0x0000000008005a6a                etl::vector<unsigned char, 8u>::vector<unsigned char*>(unsigned char*, unsigned char*)
                0x0000000008005a6a                etl::vector<unsigned char, 8u>::vector<unsigned char*>(unsigned char*, unsigned char*)
 .text._ZNSt6chrono8durationIxSt5ratioILx1ELx1000EEEC2ImvEERKT_
                0x0000000008005a9a       0x26 build/native/debug/application/CANRelais.o
                0x0000000008005a9a                std::chrono::duration<long long, std::ratio<1ll, 1000ll> >::duration<unsigned long, void>(unsigned long const&)
                0x0000000008005a9a                std::chrono::duration<long long, std::ratio<1ll, 1000ll> >::duration<unsigned long, void>(unsigned long const&)
 .text._ZN7message7MessageIN11application3CAN6data_tEE4sendERNS_13ReceiverQueueERNS_8ReceiverIS3_EENS_5EventEOS3_NSt6chrono8durationIxSt5ratioILx1ELx1000EEEE
                0x0000000008005ac0       0x50 build/native/debug/application/CANRelais.o
                0x0000000008005ac0                message::Message<application::CAN::data_t>::send(message::ReceiverQueue&, message::Receiver<application::CAN::data_t>&, message::Event, application::CAN::data_t&&, std::chrono::duration<long long, std::ratio<1ll, 1000ll> >)
 .text._ZN3etl7ivectorIhE6assignIPhEEvT_S4_
                0x0000000008005b10       0x2e build/native/debug/application/CANRelais.o
                0x0000000008005b10                void etl::ivector<unsigned char>::assign<unsigned char*>(unsigned char*, unsigned char*)
 .text._ZN7message7MessageIN11application3CAN6data_tEEnwEjRNS_13ReceiverQueueENSt6chrono8durationIxSt5ratioILx1ELx1000EEEE
                0x0000000008005b3e       0x2a build/native/debug/application/CANRelais.o
                0x0000000008005b3e                message::Message<application::CAN::data_t>::operator new(unsigned int, message::ReceiverQueue&, std::chrono::duration<long long, std::ratio<1ll, 1000ll> >)
 .text._ZN3etl18uninitialized_copyIPhS1_EENS_9enable_ifIXsrNS_26is_trivially_constructibleINSt15iterator_traitsIT0_E10value_typeEEE5valueES5_E4typeET_SB_S5_
                0x0000000008005b68       0x20 build/native/debug/application/CANRelais.o
                0x0000000008005b68                etl::enable_if<etl::is_trivially_constructible<std::iterator_traits<unsigned char*>::value_type>::value, unsigned char*>::type etl::uninitialized_copy<unsigned char*, unsigned char*>(unsigned char*, unsigned char*, unsigned char*)
 .text._ZnwjPv  0x0000000008005b88       0x16 build/native/debug/application/CANTemperatureSensors.o
                0x0000000008005b88                operator new(unsigned int, void*)
 *fill*         0x0000000008005b9e        0x2 
 .text._ZN21CANTemperatureSensors8Receiver7receiveERN7message7MessageIiEE
                0x0000000008005ba0      0x1ac build/native/debug/application/CANTemperatureSensors.o
                0x0000000008005ba0                CANTemperatureSensors::Receiver::receive(message::Message<int>&)
 .text._ZN21CANTemperatureSensors8Receiver4initEv
                0x0000000008005d4c       0x58 build/native/debug/application/CANTemperatureSensors.o
                0x0000000008005d4c                CANTemperatureSensors::Receiver::init()
 .text._ZNKSt6chrono8durationIxSt5ratioILx1ELx1EEE5countEv
                0x0000000008005da4       0x1a build/native/debug/application/CANTemperatureSensors.o
                0x0000000008005da4                std::chrono::duration<long long, std::ratio<1ll, 1ll> >::count() const
 .text._ZNSt6chrono8durationIxSt5ratioILx1ELx1EEEC2IivEERKT_
                0x0000000008005dbe       0x26 build/native/debug/application/CANTemperatureSensors.o
                0x0000000008005dbe                std::chrono::duration<long long, std::ratio<1ll, 1ll> >::duration<int, void>(int const&)
                0x0000000008005dbe                std::chrono::duration<long long, std::ratio<1ll, 1ll> >::duration<int, void>(int const&)
 .text._ZNSt6chrono8durationIxSt5ratioILx1ELx1000EEEC2IxS1_ILx1ELx1EEvEERKNS0_IT_T0_EE
                0x0000000008005de4       0x34 build/native/debug/application/CANTemperatureSensors.o
                0x0000000008005de4                std::chrono::duration<long long, std::ratio<1ll, 1000ll> >::duration<long long, std::ratio<1ll, 1ll>, void>(std::chrono::duration<long long, std::ratio<1ll, 1ll> > const&)
                0x0000000008005de4                std::chrono::duration<long long, std::ratio<1ll, 1000ll> >::duration<long long, std::ratio<1ll, 1ll>, void>(std::chrono::duration<long long, std::ratio<1ll, 1ll> > const&)
 .text._ZN7message7MessageIiE4sendERNS_13ReceiverQueueERNS_8ReceiverIiEENS_5EventEOiNSt6chrono8durationIxSt5ratioILx1ELx1000EEEE
                0x0000000008005e18       0x50 build/native/debug/application/CANTemperatureSensors.o
                0x0000000008005e18                message::Message<int>::send(message::ReceiverQueue&, message::Receiver<int>&, message::Event, int&&, std::chrono::duration<long long, std::ratio<1ll, 1000ll> >)
 .text._ZN3etl6vectorIN8lowLevel18TemperatureSensors7MessageELj10EEC2Ev
                0x0000000008005e68       0x28 build/native/debug/application/CANTemperatureSensors.o
                0x0000000008005e68                etl::vector<lowLevel::TemperatureSensors::Message, 10u>::vector()
                0x0000000008005e68                etl::vector<lowLevel::TemperatureSensors::Message, 10u>::vector()
 .text._ZN3etl6vectorIN8lowLevel18TemperatureSensors7MessageELj10EED2Ev
                0x0000000008005e90       0x22 build/native/debug/application/CANTemperatureSensors.o
                0x0000000008005e90                etl::vector<lowLevel::TemperatureSensors::Message, 10u>::~vector()
                0x0000000008005e90                etl::vector<lowLevel::TemperatureSensors::Message, 10u>::~vector()
 .text._ZN3etl7ivectorIN8lowLevel18TemperatureSensors7MessageEE5beginEv
                0x0000000008005eb2       0x16 build/native/debug/application/CANTemperatureSensors.o
                0x0000000008005eb2                etl::ivector<lowLevel::TemperatureSensors::Message>::begin()
 .text._ZN3etl7ivectorIN8lowLevel18TemperatureSensors7MessageEE3endEv
                0x0000000008005ec8       0x16 build/native/debug/application/CANTemperatureSensors.o
                0x0000000008005ec8                etl::ivector<lowLevel::TemperatureSensors::Message>::end()
 .text._ZN3etl6vectorIhLj8EEC2Ev
                0x0000000008005ede       0x28 build/native/debug/application/CANTemperatureSensors.o
                0x0000000008005ede                etl::vector<unsigned char, 8u>::vector()
                0x0000000008005ede                etl::vector<unsigned char, 8u>::vector()
 .text._ZN3etl7ivectorIhE9push_backERKh
                0x0000000008005f06       0x1a build/native/debug/application/CANTemperatureSensors.o
                0x0000000008005f06                etl::ivector<unsigned char>::push_back(unsigned char const&)
 .text._ZNSt6chrono13duration_castINS_8durationIxSt5ratioILx1ELx1000EEEExS2_ILx1ELx1EEEENSt9enable_ifIXsrNS_13__is_durationIT_EE5valueES8_E4typeERKNS1_IT0_T1_EE
                0x0000000008005f20       0x1e build/native/debug/application/CANTemperatureSensors.o
                0x0000000008005f20                std::enable_if<std::chrono::__is_duration<std::chrono::duration<long long, std::ratio<1ll, 1000ll> > >::value, std::chrono::duration<long long, std::ratio<1ll, 1000ll> > >::type std::chrono::duration_cast<std::chrono::duration<long long, std::ratio<1ll, 1000ll> >, long long, std::ratio<1ll, 1ll> >(std::chrono::duration<long long, std::ratio<1ll, 1ll> > const&)
 .text._ZSt4moveIRiEONSt16remove_referenceIT_E4typeEOS2_
                0x0000000008005f3e       0x14 build/native/debug/application/CANTemperatureSensors.o
                0x0000000008005f3e                std::remove_reference<int&>::type&& std::move<int&>(int&)
 .text._ZN7message7MessageIiEnwEjRNS_13ReceiverQueueENSt6chrono8durationIxSt5ratioILx1ELx1000EEEE
                0x0000000008005f52       0x2a build/native/debug/application/CANTemperatureSensors.o
                0x0000000008005f52                message::Message<int>::operator new(unsigned int, message::ReceiverQueue&, std::chrono::duration<long long, std::ratio<1ll, 1000ll> >)
 .text._ZN7message7MessageIiEC2ERNS_8ReceiverIiEENS_5EventEOi
                0x0000000008005f7c       0x2e build/native/debug/application/CANTemperatureSensors.o
                0x0000000008005f7c                message::Message<int>::Message(message::Receiver<int>&, message::Event, int&&)
                0x0000000008005f7c                message::Message<int>::Message(message::Receiver<int>&, message::Event, int&&)
 .text._ZN3etl7ivectorIN8lowLevel18TemperatureSensors7MessageEEC2EPS3_j
                0x0000000008005faa       0x2c build/native/debug/application/CANTemperatureSensors.o
                0x0000000008005faa                etl::ivector<lowLevel::TemperatureSensors::Message>::ivector(lowLevel::TemperatureSensors::Message*, unsigned int)
                0x0000000008005faa                etl::ivector<lowLevel::TemperatureSensors::Message>::ivector(lowLevel::TemperatureSensors::Message*, unsigned int)
 .text._ZN3etl7ivectorIN8lowLevel18TemperatureSensors7MessageEED2Ev
                0x0000000008005fd6       0x1a build/native/debug/application/CANTemperatureSensors.o
                0x0000000008005fd6                etl::ivector<lowLevel::TemperatureSensors::Message>::~ivector()
                0x0000000008005fd6                etl::ivector<lowLevel::TemperatureSensors::Message>::~ivector()
 .text._ZN3etl7ivectorIN8lowLevel18TemperatureSensors7MessageEE10initialiseEv
                0x0000000008005ff0       0x28 build/native/debug/application/CANTemperatureSensors.o
                0x0000000008005ff0                etl::ivector<lowLevel::TemperatureSensors::Message>::initialise()
 .text._ZN3etl7ivectorIN8lowLevel18TemperatureSensors7MessageEE5clearEv
                0x0000000008006018       0x16 build/native/debug/application/CANTemperatureSensors.o
                0x0000000008006018                etl::ivector<lowLevel::TemperatureSensors::Message>::clear()
 .text._ZN3etl7ivectorIhE11create_backERKh
                0x000000000800602e       0x28 build/native/debug/application/CANTemperatureSensors.o
                0x000000000800602e                etl::ivector<unsigned char>::create_back(unsigned char const&)
 .text._ZNSt6chrono20__duration_cast_implINS_8durationIxSt5ratioILx1ELx1000EEEES2_ILx1000ELx1EExLb0ELb1EE6__castIxS2_ILx1ELx1EEEES4_RKNS1_IT_T0_EE
                0x0000000008006056       0x86 build/native/debug/application/CANTemperatureSensors.o
                0x0000000008006056                std::chrono::duration<long long, std::ratio<1ll, 1000ll> > std::chrono::__duration_cast_impl<std::chrono::duration<long long, std::ratio<1ll, 1000ll> >, std::ratio<1000ll, 1ll>, long long, false, true>::__cast<long long, std::ratio<1ll, 1ll> >(std::chrono::duration<long long, std::ratio<1ll, 1ll> > const&)
 .text._ZN3etl7destroyIPN8lowLevel18TemperatureSensors7MessageEEENS_9enable_ifIXsrNS_25is_trivially_destructibleINSt15iterator_traitsIT_E10value_typeEEE5valueEvE4typeES8_S8_
                0x00000000080060dc       0x14 build/native/debug/application/CANTemperatureSensors.o
                0x00000000080060dc                etl::enable_if<etl::is_trivially_destructible<std::iterator_traits<lowLevel::TemperatureSensors::Message*>::value_type>::value, void>::type etl::destroy<lowLevel::TemperatureSensors::Message*>(lowLevel::TemperatureSensors::Message*, lowLevel::TemperatureSensors::Message*)
 .text._ZN3etl14create_copy_atIhEEvPT_RKS1_
                0x00000000080060f0       0x24 build/native/debug/application/CANTemperatureSensors.o
                0x00000000080060f0                void etl::create_copy_at<unsigned char>(unsigned char*, unsigned char const&)
 .text.main     0x0000000008006114       0x1e build/native/debug/lowLevel/libLowLevel.a(main.o)
                0x0000000008006114                main
 .text.SystemClock_Config
                0x0000000008006132       0x76 build/native/debug/lowLevel/libLowLevel.a(main.o)
                0x0000000008006132                SystemClock_Config
 .text.MX_CAN_Init
                0x00000000080061a8       0x6c build/native/debug/lowLevel/libLowLevel.a(main.o)
 .text.MX_I2C2_Init
                0x0000000008006214       0x5c build/native/debug/lowLevel/libLowLevel.a(main.o)
 .text.MX_GPIO_Init
                0x0000000008006270      0x168 build/native/debug/lowLevel/libLowLevel.a(main.o)
 .text.Error_Handler
                0x00000000080063d8        0xc build/native/debug/lowLevel/libLowLevel.a(main.o)
                0x00000000080063d8                Error_Handler
 .text.NMI_Handler
                0x00000000080063e4        0xc build/native/debug/lowLevel/libLowLevel.a(stm32f1xx_it.o)
                0x00000000080063e4                NMI_Handler
 .text.HardFault_Handler
                0x00000000080063f0        0x6 build/native/debug/lowLevel/libLowLevel.a(stm32f1xx_it.o)
                0x00000000080063f0                HardFault_Handler
 .text.MemManage_Handler
                0x00000000080063f6        0x6 build/native/debug/lowLevel/libLowLevel.a(stm32f1xx_it.o)
                0x00000000080063f6                MemManage_Handler
 .text.BusFault_Handler
                0x00000000080063fc        0x6 build/native/debug/lowLevel/libLowLevel.a(stm32f1xx_it.o)
                0x00000000080063fc                BusFault_Handler
 .text.UsageFault_Handler
                0x0000000008006402        0x6 build/native/debug/lowLevel/libLowLevel.a(stm32f1xx_it.o)
                0x0000000008006402                UsageFault_Handler
 .text.SVC_Handler
                0x0000000008006408        0xc build/native/debug/lowLevel/libLowLevel.a(stm32f1xx_it.o)
                0x0000000008006408                SVC_Handler
 .text.DebugMon_Handler
                0x0000000008006414        0xc build/native/debug/lowLevel/libLowLevel.a(stm32f1xx_it.o)
                0x0000000008006414                DebugMon_Handler
 .text.PendSV_Handler
                0x0000000008006420        0xc build/native/debug/lowLevel/libLowLevel.a(stm32f1xx_it.o)
                0x0000000008006420                PendSV_Handler
 .text.SysTick_Handler
                0x000000000800642c        0xc build/native/debug/lowLevel/libLowLevel.a(stm32f1xx_it.o)
                0x000000000800642c                SysTick_Handler
 .text.HAL_MspInit
                0x0000000008006438       0x64 build/native/debug/lowLevel/libLowLevel.a(stm32f1xx_hal_msp.o)
                0x0000000008006438                HAL_MspInit
 .text.HAL_CAN_MspInit
                0x000000000800649c       0x98 build/native/debug/lowLevel/libLowLevel.a(stm32f1xx_hal_msp.o)
                0x000000000800649c                HAL_CAN_MspInit
 .text.HAL_I2C_MspInit
                0x0000000008006534       0x80 build/native/debug/lowLevel/libLowLevel.a(stm32f1xx_hal_msp.o)
                0x0000000008006534                HAL_I2C_MspInit
 .text.HAL_CAN_Init
                0x00000000080065b4      0x1f6 build/native/debug/lowLevel/libLowLevel.a(stm32f1xx_hal_can.o)
                0x00000000080065b4                HAL_CAN_Init
 .text.HAL_CAN_ConfigFilter
                0x00000000080067aa      0x192 build/native/debug/lowLevel/libLowLevel.a(stm32f1xx_hal_can.o)
                0x00000000080067aa                HAL_CAN_ConfigFilter
 .text.HAL_CAN_Start
                0x000000000800693c       0x88 build/native/debug/lowLevel/libLowLevel.a(stm32f1xx_hal_can.o)
                0x000000000800693c                HAL_CAN_Start
 .text.HAL_CAN_AddTxMessage
                0x00000000080069c4      0x1b4 build/native/debug/lowLevel/libLowLevel.a(stm32f1xx_hal_can.o)
                0x00000000080069c4                HAL_CAN_AddTxMessage
 .text.HAL_CAN_ActivateNotification
                0x0000000008006b78       0x4a build/native/debug/lowLevel/libLowLevel.a(stm32f1xx_hal_can.o)
                0x0000000008006b78                HAL_CAN_ActivateNotification
 *fill*         0x0000000008006bc2        0x2 
 .text.HAL_Init
                0x0000000008006bc4       0x2c build/native/debug/lowLevel/libLowLevel.a(stm32f1xx_hal.o)
                0x0000000008006bc4                HAL_Init
 .text.HAL_InitTick
                0x0000000008006bf0       0x60 build/native/debug/lowLevel/libLowLevel.a(stm32f1xx_hal.o)
                0x0000000008006bf0                HAL_InitTick
 .text.HAL_IncTick
                0x0000000008006c50       0x24 build/native/debug/lowLevel/libLowLevel.a(stm32f1xx_hal.o)
                0x0000000008006c50                HAL_IncTick
 .text.HAL_GetTick
                0x0000000008006c74       0x14 build/native/debug/lowLevel/libLowLevel.a(stm32f1xx_hal.o)
                0x0000000008006c74                HAL_GetTick
 .text.HAL_RCC_OscConfig
                0x0000000008006c88      0x504 build/native/debug/lowLevel/libLowLevel.a(stm32f1xx_hal_rcc.o)
                0x0000000008006c88                HAL_RCC_OscConfig
 .text.HAL_RCC_ClockConfig
                0x000000000800718c      0x1d4 build/native/debug/lowLevel/libLowLevel.a(stm32f1xx_hal_rcc.o)
                0x000000000800718c                HAL_RCC_ClockConfig
 .text.HAL_RCC_GetSysClockFreq
                0x0000000008007360       0xc0 build/native/debug/lowLevel/libLowLevel.a(stm32f1xx_hal_rcc.o)
                0x0000000008007360                HAL_RCC_GetSysClockFreq
 .text.HAL_RCC_GetHCLKFreq
                0x0000000008007420       0x14 build/native/debug/lowLevel/libLowLevel.a(stm32f1xx_hal_rcc.o)
                0x0000000008007420                HAL_RCC_GetHCLKFreq
 .text.HAL_RCC_GetPCLK1Freq
                0x0000000008007434       0x28 build/native/debug/lowLevel/libLowLevel.a(stm32f1xx_hal_rcc.o)
                0x0000000008007434                HAL_RCC_GetPCLK1Freq
 .text.RCC_Delay
                0x000000000800745c       0x3c build/native/debug/lowLevel/libLowLevel.a(stm32f1xx_hal_rcc.o)
 .text.__NVIC_SetPriorityGrouping
                0x0000000008007498       0x48 build/native/debug/lowLevel/libLowLevel.a(stm32f1xx_hal_cortex.o)
 .text.__NVIC_GetPriorityGrouping
                0x00000000080074e0       0x1c build/native/debug/lowLevel/libLowLevel.a(stm32f1xx_hal_cortex.o)
 .text.__NVIC_SetPriority
                0x00000000080074fc       0x54 build/native/debug/lowLevel/libLowLevel.a(stm32f1xx_hal_cortex.o)
 .text.NVIC_EncodePriority
                0x0000000008007550       0x64 build/native/debug/lowLevel/libLowLevel.a(stm32f1xx_hal_cortex.o)
 .text.SysTick_Config
                0x00000000080075b4       0x44 build/native/debug/lowLevel/libLowLevel.a(stm32f1xx_hal_cortex.o)
 .text.HAL_NVIC_SetPriorityGrouping
                0x00000000080075f8       0x16 build/native/debug/lowLevel/libLowLevel.a(stm32f1xx_hal_cortex.o)
                0x00000000080075f8                HAL_NVIC_SetPriorityGrouping
 .text.HAL_NVIC_SetPriority
                0x000000000800760e       0x38 build/native/debug/lowLevel/libLowLevel.a(stm32f1xx_hal_cortex.o)
                0x000000000800760e                HAL_NVIC_SetPriority
 .text.HAL_SYSTICK_Config
                0x0000000008007646       0x18 build/native/debug/lowLevel/libLowLevel.a(stm32f1xx_hal_cortex.o)
                0x0000000008007646                HAL_SYSTICK_Config
 *fill*         0x000000000800765e        0x2 
 .text.HAL_SYSTICK_CLKSourceConfig
                0x0000000008007660       0x38 build/native/debug/lowLevel/libLowLevel.a(stm32f1xx_hal_cortex.o)
                0x0000000008007660                HAL_SYSTICK_CLKSourceConfig
 .text.HAL_GPIO_Init
                0x0000000008007698      0x308 build/native/debug/lowLevel/libLowLevel.a(stm32f1xx_hal_gpio.o)
                0x0000000008007698                HAL_GPIO_Init
 .text.HAL_GPIO_ReadPin
                0x00000000080079a0       0x2e build/native/debug/lowLevel/libLowLevel.a(stm32f1xx_hal_gpio.o)
                0x00000000080079a0                HAL_GPIO_ReadPin
 .text.HAL_GPIO_WritePin
                0x00000000080079ce       0x30 build/native/debug/lowLevel/libLowLevel.a(stm32f1xx_hal_gpio.o)
                0x00000000080079ce                HAL_GPIO_WritePin
 *fill*         0x00000000080079fe        0x2 
 .text.HAL_I2C_Init
                0x0000000008007a00      0x268 build/native/debug/lowLevel/libLowLevel.a(stm32f1xx_hal_i2c.o)
                0x0000000008007a00                HAL_I2C_Init
 .text.SystemInit
                0x0000000008007c68       0x6c build/native/debug/lowLevel/libLowLevel.a(system_stm32f1xx.o)
                0x0000000008007c68                SystemInit
 .text.Reset_Handler
                0x0000000008007cd4       0x48 build/native/debug/lowLevel/libLowLevel.a(startup_stm32f103xb.o)
                0x0000000008007cd4                Reset_Handler
 .text.Default_Handler
                0x0000000008007d1c        0x2 build/native/debug/lowLevel/libLowLevel.a(startup_stm32f103xb.o)
                0x0000000008007d1c                RTC_Alarm_IRQHandler
                0x0000000008007d1c                EXTI2_IRQHandler
                0x0000000008007d1c                TIM1_CC_IRQHandler
                0x0000000008007d1c                PVD_IRQHandler
                0x0000000008007d1c                EXTI3_IRQHandler
                0x0000000008007d1c                EXTI0_IRQHandler
                0x0000000008007d1c                I2C2_EV_IRQHandler
                0x0000000008007d1c                ADC1_2_IRQHandler
                0x0000000008007d1c                SPI1_IRQHandler
                0x0000000008007d1c                TAMPER_IRQHandler
                0x0000000008007d1c                DMA1_Channel4_IRQHandler
                0x0000000008007d1c                USART3_IRQHandler
                0x0000000008007d1c                RTC_IRQHandler
                0x0000000008007d1c                DMA1_Channel7_IRQHandler
                0x0000000008007d1c                CAN1_RX1_IRQHandler
                0x0000000008007d1c                TIM4_IRQHandler
                0x0000000008007d1c                I2C1_EV_IRQHandler
                0x0000000008007d1c                DMA1_Channel6_IRQHandler
                0x0000000008007d1c                TIM3_IRQHandler
                0x0000000008007d1c                RCC_IRQHandler
                0x0000000008007d1c                TIM1_TRG_COM_IRQHandler
                0x0000000008007d1c                DMA1_Channel1_IRQHandler
                0x0000000008007d1c                Default_Handler
                0x0000000008007d1c                EXTI15_10_IRQHandler
                0x0000000008007d1c                EXTI9_5_IRQHandler
                0x0000000008007d1c                SPI2_IRQHandler
                0x0000000008007d1c                DMA1_Channel5_IRQHandler
                0x0000000008007d1c                EXTI4_IRQHandler
                0x0000000008007d1c                USB_LP_CAN1_RX0_IRQHandler
                0x0000000008007d1c                USB_HP_CAN1_TX_IRQHandler
                0x0000000008007d1c                DMA1_Channel3_IRQHandler
                0x0000000008007d1c                TIM1_UP_IRQHandler
                0x0000000008007d1c                WWDG_IRQHandler
                0x0000000008007d1c                TIM2_IRQHandler
                0x0000000008007d1c                TIM1_BRK_IRQHandler
                0x0000000008007d1c                EXTI1_IRQHandler
                0x0000000008007d1c                USART2_IRQHandler
                0x0000000008007d1c                I2C2_ER_IRQHandler
                0x0000000008007d1c                DMA1_Channel2_IRQHandler
                0x0000000008007d1c                CAN1_SCE_IRQHandler
                0x0000000008007d1c                FLASH_IRQHandler
                0x0000000008007d1c                USART1_IRQHandler
                0x0000000008007d1c                I2C1_ER_IRQHandler
                0x0000000008007d1c                USBWakeUp_IRQHandler
 *fill*         0x0000000008007d1e        0x2 
 .text.gettimeofday
                0x0000000008007d20       0x58 build/native/debug/lowLevel/libLowLevel.a(retarget.o)
                0x0000000008007d20                gettimeofday
 .text._ZN7message6atomicEb
                0x0000000008007d78       0x22 build/native/debug/lowLevel/libLowLevel.a(retarget.o)
                0x0000000008007d78                message::atomic(bool)
 *fill*         0x0000000008007d9a        0x2 
 .text._ZN8lowLevel3CAN4initEv
                0x0000000008007d9c       0xb8 build/native/debug/lowLevel/libLowLevel.a(CAN.o)
                0x0000000008007d9c                lowLevel::CAN::init()
 .text._ZN8lowLevel3CAN4sendEmN3etl6vectorIhLj8EEE
                0x0000000008007e54       0x74 build/native/debug/lowLevel/libLowLevel.a(CAN.o)
                0x0000000008007e54                lowLevel::CAN::send(unsigned long, etl::vector<unsigned char, 8u>)
 .text._ZN8lowLevel3CAN8getOwnIDEv
                0x0000000008007ec8       0x14 build/native/debug/lowLevel/libLowLevel.a(CAN.o)
                0x0000000008007ec8                lowLevel::CAN::getOwnID()
 .text._ZNK3etl7ivectorIhE4sizeEv
                0x0000000008007edc       0x1c build/native/debug/lowLevel/libLowLevel.a(CAN.o)
                0x0000000008007edc                etl::ivector<unsigned char>::size() const
 .text._ZN8lowLevel6Relais4initEv
                0x0000000008007ef8       0x68 build/native/debug/lowLevel/libLowLevel.a(Relais.o)
                0x0000000008007ef8                lowLevel::Relais::init()
 .text._ZN8lowLevel6Relais3setEhb
                0x0000000008007f60       0x68 build/native/debug/lowLevel/libLowLevel.a(Relais.o)
                0x0000000008007f60                lowLevel::Relais::set(unsigned char, bool)
 .text._ZNSt5arrayI13relais_gpio_tLj12EE5beginEv
                0x0000000008007fc8       0x18 build/native/debug/lowLevel/libLowLevel.a(Relais.o)
                0x0000000008007fc8                std::array<relais_gpio_t, 12u>::begin()
 .text._ZNSt5arrayI13relais_gpio_tLj12EE3endEv
                0x0000000008007fe0       0x1a build/native/debug/lowLevel/libLowLevel.a(Relais.o)
                0x0000000008007fe0                std::array<relais_gpio_t, 12u>::end()
 .text._ZNKSt5arrayI13relais_gpio_tLj12EE4sizeEv
                0x0000000008007ffa       0x14 build/native/debug/lowLevel/libLowLevel.a(Relais.o)
                0x0000000008007ffa                std::array<relais_gpio_t, 12u>::size() const
 .text._ZNSt5arrayI13relais_gpio_tLj12EEixEj
                0x000000000800800e       0x1e build/native/debug/lowLevel/libLowLevel.a(Relais.o)
                0x000000000800800e                std::array<relais_gpio_t, 12u>::operator[](unsigned int)
 .text._ZNSt5arrayI13relais_gpio_tLj12EE4dataEv
                0x000000000800802c       0x1a build/native/debug/lowLevel/libLowLevel.a(Relais.o)
                0x000000000800802c                std::array<relais_gpio_t, 12u>::data()
 .text._ZNSt14__array_traitsI13relais_gpio_tLj12EE6_S_refERA12_KS0_j
                0x0000000008008046       0x1c build/native/debug/lowLevel/libLowLevel.a(Relais.o)
                0x0000000008008046                std::__array_traits<relais_gpio_t, 12u>::_S_ref(relais_gpio_t const (&) [12], unsigned int)
 .text._ZNSt14__array_traitsI13relais_gpio_tLj12EE6_S_ptrERA12_KS0_
                0x0000000008008062       0x14 build/native/debug/lowLevel/libLowLevel.a(Relais.o)
                0x0000000008008062                std::__array_traits<relais_gpio_t, 12u>::_S_ptr(relais_gpio_t const (&) [12])
 .text._ZN8lowLevel8LowLevel4initEv
                0x0000000008008076        0xc build/native/debug/lowLevel/libLowLevel.a(LowLevel.o)
                0x0000000008008076                lowLevel::LowLevel::init()
 *fill*         0x0000000008008082        0x2 
 .text._ZN8lowLevel18TemperatureSensors4initEv
                0x0000000008008084       0xa0 build/native/debug/lowLevel/libLowLevel.a(TemperatureSensors.o)
                0x0000000008008084                lowLevel::TemperatureSensors::init()
 .text._ZN8lowLevel18TemperatureSensors15startConversionEv
                0x0000000008008124       0x38 build/native/debug/lowLevel/libLowLevel.a(TemperatureSensors.o)
                0x0000000008008124                lowLevel::TemperatureSensors::startConversion()
 .text._ZN8lowLevel18TemperatureSensors11pollSensorsERN3etl6vectorINS0_7MessageELj10EEE
                0x000000000800815c      0x12c build/native/debug/lowLevel/libLowLevel.a(TemperatureSensors.o)
                0x000000000800815c                lowLevel::TemperatureSensors::pollSensors(etl::vector<lowLevel::TemperatureSensors::Message, 10u>&)
 .text._ZN3etl6vectorISt5arrayIhLj8EELj10EEC2Ev
                0x0000000008008288       0x28 build/native/debug/lowLevel/libLowLevel.a(TemperatureSensors.o)
                0x0000000008008288                etl::vector<std::array<unsigned char, 8u>, 10u>::vector()
                0x0000000008008288                etl::vector<std::array<unsigned char, 8u>, 10u>::vector()
 .text._ZNSt5arrayIhLj8EE4dataEv
                0x00000000080082b0       0x1a build/native/debug/lowLevel/libLowLevel.a(TemperatureSensors.o)
                0x00000000080082b0                std::array<unsigned char, 8u>::data()
 .text._ZN3etl7ivectorISt5arrayIhLj8EEE9push_backERKS2_
                0x00000000080082ca       0x1a build/native/debug/lowLevel/libLowLevel.a(TemperatureSensors.o)
                0x00000000080082ca                etl::ivector<std::array<unsigned char, 8u> >::push_back(std::array<unsigned char, 8u> const&)
 .text._ZNSt5arrayIhLj8EEixEj
                0x00000000080082e4       0x1e build/native/debug/lowLevel/libLowLevel.a(TemperatureSensors.o)
                0x00000000080082e4                std::array<unsigned char, 8u>::operator[](unsigned int)
 .text._ZN3etl7ivectorISt5arrayIhLj8EEE5beginEv
                0x0000000008008302       0x16 build/native/debug/lowLevel/libLowLevel.a(TemperatureSensors.o)
                0x0000000008008302                etl::ivector<std::array<unsigned char, 8u> >::begin()
 .text._ZN3etl7ivectorISt5arrayIhLj8EEE3endEv
                0x0000000008008318       0x16 build/native/debug/lowLevel/libLowLevel.a(TemperatureSensors.o)
                0x0000000008008318                etl::ivector<std::array<unsigned char, 8u> >::end()
 .text._ZN3etl7ivectorIN8lowLevel18TemperatureSensors7MessageEE9push_backERKS3_
                0x000000000800832e       0x1a build/native/debug/lowLevel/libLowLevel.a(TemperatureSensors.o)
                0x000000000800832e                etl::ivector<lowLevel::TemperatureSensors::Message>::push_back(lowLevel::TemperatureSensors::Message const&)
 .text._ZN3etl7ivectorISt5arrayIhLj8EEEC2EPS2_j
                0x0000000008008348       0x2c build/native/debug/lowLevel/libLowLevel.a(TemperatureSensors.o)
                0x0000000008008348                etl::ivector<std::array<unsigned char, 8u> >::ivector(std::array<unsigned char, 8u>*, unsigned int)
                0x0000000008008348                etl::ivector<std::array<unsigned char, 8u> >::ivector(std::array<unsigned char, 8u>*, unsigned int)
 .text._ZN3etl7ivectorISt5arrayIhLj8EEED2Ev
                0x0000000008008374       0x1a build/native/debug/lowLevel/libLowLevel.a(TemperatureSensors.o)
                0x0000000008008374                etl::ivector<std::array<unsigned char, 8u> >::~ivector()
                0x0000000008008374                etl::ivector<std::array<unsigned char, 8u> >::~ivector()
 .text._ZN3etl7ivectorISt5arrayIhLj8EEE10initialiseEv
                0x000000000800838e       0x28 build/native/debug/lowLevel/libLowLevel.a(TemperatureSensors.o)
                0x000000000800838e                etl::ivector<std::array<unsigned char, 8u> >::initialise()
 .text._ZNSt14__array_traitsIhLj8EE6_S_ptrERA8_Kh
                0x00000000080083b6       0x14 build/native/debug/lowLevel/libLowLevel.a(TemperatureSensors.o)
                0x00000000080083b6                std::__array_traits<unsigned char, 8u>::_S_ptr(unsigned char const (&) [8])
 .text._ZN3etl7ivectorISt5arrayIhLj8EEE11create_backERKS2_
                0x00000000080083ca       0x2a build/native/debug/lowLevel/libLowLevel.a(TemperatureSensors.o)
                0x00000000080083ca                etl::ivector<std::array<unsigned char, 8u> >::create_back(std::array<unsigned char, 8u> const&)
 .text._ZNSt14__array_traitsIhLj8EE6_S_refERA8_Khj
                0x00000000080083f4       0x1a build/native/debug/lowLevel/libLowLevel.a(TemperatureSensors.o)
                0x00000000080083f4                std::__array_traits<unsigned char, 8u>::_S_ref(unsigned char const (&) [8], unsigned int)
 .text._ZN3etl7ivectorIN8lowLevel18TemperatureSensors7MessageEE11create_backERKS3_
                0x000000000800840e       0x2a build/native/debug/lowLevel/libLowLevel.a(TemperatureSensors.o)
                0x000000000800840e                etl::ivector<lowLevel::TemperatureSensors::Message>::create_back(lowLevel::TemperatureSensors::Message const&)
 .text._ZN3etl7destroyIPSt5arrayIhLj8EEEENS_9enable_ifIXsrNS_25is_trivially_destructibleINSt15iterator_traitsIT_E10value_typeEEE5valueEvE4typeES7_S7_
                0x0000000008008438       0x14 build/native/debug/lowLevel/libLowLevel.a(TemperatureSensors.o)
                0x0000000008008438                etl::enable_if<etl::is_trivially_destructible<std::iterator_traits<std::array<unsigned char, 8u>*>::value_type>::value, void>::type etl::destroy<std::array<unsigned char, 8u>*>(std::array<unsigned char, 8u>*, std::array<unsigned char, 8u>*)
 .text._ZN3etl14create_copy_atISt5arrayIhLj8EEEEvPT_RKS3_
                0x000000000800844c       0x28 build/native/debug/lowLevel/libLowLevel.a(TemperatureSensors.o)
                0x000000000800844c                void etl::create_copy_at<std::array<unsigned char, 8u> >(std::array<unsigned char, 8u>*, std::array<unsigned char, 8u> const&)
 .text._ZN3etl14create_copy_atIN8lowLevel18TemperatureSensors7MessageEEEvPT_RKS4_
                0x0000000008008474       0x28 build/native/debug/lowLevel/libLowLevel.a(TemperatureSensors.o)
                0x0000000008008474                void etl::create_copy_at<lowLevel::TemperatureSensors::Message>(lowLevel::TemperatureSensors::Message*, lowLevel::TemperatureSensors::Message const&)
 .text._Z41__static_initialization_and_destruction_0ii
                0x000000000800849c       0x40 build/native/debug/lowLevel/libLowLevel.a(TemperatureSensors.o)
 .text._ZN3etl6vectorISt5arrayIhLj8EELj10EED2Ev
                0x00000000080084dc       0x22 build/native/debug/lowLevel/libLowLevel.a(TemperatureSensors.o)
                0x00000000080084dc                etl::vector<std::array<unsigned char, 8u>, 10u>::~vector()
                0x00000000080084dc                etl::vector<std::array<unsigned char, 8u>, 10u>::~vector()
 .text._ZN3etl7ivectorISt5arrayIhLj8EEE5clearEv
                0x00000000080084fe       0x16 build/native/debug/lowLevel/libLowLevel.a(TemperatureSensors.o)
                0x00000000080084fe                etl::ivector<std::array<unsigned char, 8u> >::clear()
 .text._GLOBAL__sub_I__ZN8lowLevel18TemperatureSensors4initEv
                0x0000000008008514       0x10 build/native/debug/lowLevel/libLowLevel.a(TemperatureSensors.o)
 .text.Error_Handler
                0x0000000008008524        0xc build/native/debug/lowLevel/libLowLevel.a(clock.o)
 .text.setClock
                0x0000000008008530      0x144 build/native/debug/lowLevel/libLowLevel.a(clock.o)
                0x0000000008008530                setClock
 .text.initClock
                0x0000000008008674       0x84 build/native/debug/lowLevel/libLowLevel.a(clock.o)
                0x0000000008008674                initClock
 .text.DWT_Delay_Init
                0x00000000080086f8       0x60 build/native/debug/lowLevel/libLowLevel.a(delay_us.o)
                0x00000000080086f8                DWT_Delay_Init
 .text.DWT_Delay_us
                0x0000000008008758       0x34 build/native/debug/lowLevel/libLowLevel.a(tm_stm32_onewire.o)
 .text.ONEWIRE_INPUT
                0x000000000800878c       0x3c build/native/debug/lowLevel/libLowLevel.a(tm_stm32_onewire.o)
 .text.ONEWIRE_OUTPUT
                0x00000000080087c8       0x3c build/native/debug/lowLevel/libLowLevel.a(tm_stm32_onewire.o)
 .text.ONEWIRE_GETINPUT
                0x0000000008008804       0x22 build/native/debug/lowLevel/libLowLevel.a(tm_stm32_onewire.o)
 .text.TM_OneWire_Init
                0x0000000008008826       0xaa build/native/debug/lowLevel/libLowLevel.a(tm_stm32_onewire.o)
                0x0000000008008826                TM_OneWire_Init
 .text.TM_OneWire_Reset
                0x00000000080088d0       0x4c build/native/debug/lowLevel/libLowLevel.a(tm_stm32_onewire.o)
                0x00000000080088d0                TM_OneWire_Reset
 .text.TM_OneWire_WriteBit
                0x000000000800891c       0x74 build/native/debug/lowLevel/libLowLevel.a(tm_stm32_onewire.o)
                0x000000000800891c                TM_OneWire_WriteBit
 .text.TM_OneWire_ReadBit
                0x0000000008008990       0x52 build/native/debug/lowLevel/libLowLevel.a(tm_stm32_onewire.o)
                0x0000000008008990                TM_OneWire_ReadBit
 .text.TM_OneWire_WriteByte
                0x00000000080089e2       0x3c build/native/debug/lowLevel/libLowLevel.a(tm_stm32_onewire.o)
                0x00000000080089e2                TM_OneWire_WriteByte
 .text.TM_OneWire_ReadByte
                0x0000000008008a1e       0x42 build/native/debug/lowLevel/libLowLevel.a(tm_stm32_onewire.o)
                0x0000000008008a1e                TM_OneWire_ReadByte
 .text.TM_OneWire_First
                0x0000000008008a60       0x20 build/native/debug/lowLevel/libLowLevel.a(tm_stm32_onewire.o)
                0x0000000008008a60                TM_OneWire_First
 .text.TM_OneWire_Next
                0x0000000008008a80       0x1a build/native/debug/lowLevel/libLowLevel.a(tm_stm32_onewire.o)
                0x0000000008008a80                TM_OneWire_Next
 .text.TM_OneWire_ResetSearch
                0x0000000008008a9a       0x24 build/native/debug/lowLevel/libLowLevel.a(tm_stm32_onewire.o)
                0x0000000008008a9a                TM_OneWire_ResetSearch
 .text.TM_OneWire_Search
                0x0000000008008abe      0x18c build/native/debug/lowLevel/libLowLevel.a(tm_stm32_onewire.o)
                0x0000000008008abe                TM_OneWire_Search
 .text.TM_OneWire_Select
                0x0000000008008c4a       0x3e build/native/debug/lowLevel/libLowLevel.a(tm_stm32_onewire.o)
                0x0000000008008c4a                TM_OneWire_Select
 .text.TM_OneWire_GetFullROM
                0x0000000008008c88       0x38 build/native/debug/lowLevel/libLowLevel.a(tm_stm32_onewire.o)
                0x0000000008008c88                TM_OneWire_GetFullROM
 .text.TM_OneWire_CRC8
                0x0000000008008cc0       0x6e build/native/debug/lowLevel/libLowLevel.a(tm_stm32_onewire.o)
                0x0000000008008cc0                TM_OneWire_CRC8
 .text.__aeabi_atexit
                0x0000000008008d2e        0xa /usr/lib/gcc/arm-none-eabi/10.1.0/../../../../arm-none-eabi/lib/thumb/v7-m/nofp/libstdc++_nano.a(atexit_arm.o)
                0x0000000008008d2e                __aeabi_atexit
 .text._ZNK10__cxxabiv117__class_type_info11__do_upcastEPKS0_PPv
                0x0000000008008d38       0x32 /usr/lib/gcc/arm-none-eabi/10.1.0/../../../../arm-none-eabi/lib/thumb/v7-m/nofp/libstdc++_nano.a(class_type_info.o)
                0x0000000008008d38                __cxxabiv1::__class_type_info::__do_upcast(__cxxabiv1::__class_type_info const*, void**) const
 .text._ZNK10__cxxabiv117__class_type_info20__do_find_public_srcEiPKvPKS0_S2_
                0x0000000008008d6a        0xc /usr/lib/gcc/arm-none-eabi/10.1.0/../../../../arm-none-eabi/lib/thumb/v7-m/nofp/libstdc++_nano.a(class_type_info.o)
                0x0000000008008d6a                __cxxabiv1::__class_type_info::__do_find_public_src(int, void const*, __cxxabiv1::__class_type_info const*, void const*) const
 *fill*         0x0000000008008d76        0x2 
 .text._ZN10__cxxabiv117__class_type_infoD2Ev
                0x0000000008008d78       0x14 /usr/lib/gcc/arm-none-eabi/10.1.0/../../../../arm-none-eabi/lib/thumb/v7-m/nofp/libstdc++_nano.a(class_type_info.o)
                0x0000000008008d78                __cxxabiv1::__class_type_info::~__class_type_info()
                0x0000000008008d78                __cxxabiv1::__class_type_info::~__class_type_info()
 .text._ZN10__cxxabiv117__class_type_infoD0Ev
                0x0000000008008d8c       0x14 /usr/lib/gcc/arm-none-eabi/10.1.0/../../../../arm-none-eabi/lib/thumb/v7-m/nofp/libstdc++_nano.a(class_type_info.o)
                0x0000000008008d8c                __cxxabiv1::__class_type_info::~__class_type_info()
 .text._ZNK10__cxxabiv117__class_type_info12__do_dyncastEiNS0_10__sub_kindEPKS0_PKvS3_S5_RNS0_16__dyncast_resultE
                0x0000000008008da0       0x3e /usr/lib/gcc/arm-none-eabi/10.1.0/../../../../arm-none-eabi/lib/thumb/v7-m/nofp/libstdc++_nano.a(class_type_info.o)
                0x0000000008008da0                __cxxabiv1::__class_type_info::__do_dyncast(int, __cxxabiv1::__class_type_info::__sub_kind, __cxxabiv1::__class_type_info const*, void const*, __cxxabiv1::__class_type_info const*, void const*, __cxxabiv1::__class_type_info::__dyncast_result&) const
 .text._ZNK10__cxxabiv117__class_type_info11__do_upcastEPKS0_PKvRNS0_15__upcast_resultE
                0x0000000008008dde       0x18 /usr/lib/gcc/arm-none-eabi/10.1.0/../../../../arm-none-eabi/lib/thumb/v7-m/nofp/libstdc++_nano.a(class_type_info.o)
                0x0000000008008dde                __cxxabiv1::__class_type_info::__do_upcast(__cxxabiv1::__class_type_info const*, void const*, __cxxabiv1::__class_type_info::__upcast_result&) const
 .text._ZNK10__cxxabiv117__class_type_info10__do_catchEPKSt9type_infoPPvj
                0x0000000008008df6       0x2a /usr/lib/gcc/arm-none-eabi/10.1.0/../../../../arm-none-eabi/lib/thumb/v7-m/nofp/libstdc++_nano.a(class_type_info.o)
                0x0000000008008df6                __cxxabiv1::__class_type_info::__do_catch(std::type_info const*, void**, unsigned int) const
 .text._ZdlPvj  0x0000000008008e20        0x4 /usr/lib/gcc/arm-none-eabi/10.1.0/../../../../arm-none-eabi/lib/thumb/v7-m/nofp/libstdc++_nano.a(del_ops.o)
                0x0000000008008e20                operator delete(void*, unsigned int)
 .text.__cxa_pure_virtual
                0x0000000008008e24       0x14 /usr/lib/gcc/arm-none-eabi/10.1.0/../../../../arm-none-eabi/lib/thumb/v7-m/nofp/libstdc++_nano.a(pure.o)
                0x0000000008008e24                __cxa_pure_virtual
 .text._ZN10__cxxabiv120__si_class_type_infoD2Ev
                0x0000000008008e38       0x14 /usr/lib/gcc/arm-none-eabi/10.1.0/../../../../arm-none-eabi/lib/thumb/v7-m/nofp/libstdc++_nano.a(si_class_type_info.o)
                0x0000000008008e38                __cxxabiv1::__si_class_type_info::~__si_class_type_info()
                0x0000000008008e38                __cxxabiv1::__si_class_type_info::~__si_class_type_info()
 .text._ZN10__cxxabiv120__si_class_type_infoD0Ev
                0x0000000008008e4c       0x14 /usr/lib/gcc/arm-none-eabi/10.1.0/../../../../arm-none-eabi/lib/thumb/v7-m/nofp/libstdc++_nano.a(si_class_type_info.o)
                0x0000000008008e4c                __cxxabiv1::__si_class_type_info::~__si_class_type_info()
 .text._ZNK10__cxxabiv120__si_class_type_info20__do_find_public_srcEiPKvPKNS_17__class_type_infoES2_
                0x0000000008008e60       0x3c /usr/lib/gcc/arm-none-eabi/10.1.0/../../../../arm-none-eabi/lib/thumb/v7-m/nofp/libstdc++_nano.a(si_class_type_info.o)
                0x0000000008008e60                __cxxabiv1::__si_class_type_info::__do_find_public_src(int, void const*, __cxxabiv1::__class_type_info const*, void const*) const
 .text._ZNK10__cxxabiv120__si_class_type_info12__do_dyncastEiNS_17__class_type_info10__sub_kindEPKS1_PKvS4_S6_RNS1_16__dyncast_resultE
                0x0000000008008e9c       0x74 /usr/lib/gcc/arm-none-eabi/10.1.0/../../../../arm-none-eabi/lib/thumb/v7-m/nofp/libstdc++_nano.a(si_class_type_info.o)
                0x0000000008008e9c                __cxxabiv1::__si_class_type_info::__do_dyncast(int, __cxxabiv1::__class_type_info::__sub_kind, __cxxabiv1::__class_type_info const*, void const*, __cxxabiv1::__class_type_info const*, void const*, __cxxabiv1::__class_type_info::__dyncast_result&) const
 .text._ZNK10__cxxabiv120__si_class_type_info11__do_upcastEPKNS_17__class_type_infoEPKvRNS1_15__upcast_resultE
                0x0000000008008f10       0x2a /usr/lib/gcc/arm-none-eabi/10.1.0/../../../../arm-none-eabi/lib/thumb/v7-m/nofp/libstdc++_nano.a(si_class_type_info.o)
                0x0000000008008f10                __cxxabiv1::__si_class_type_info::__do_upcast(__cxxabiv1::__class_type_info const*, void const*, __cxxabiv1::__class_type_info::__upcast_result&) const
 .text._ZNSt9type_infoD2Ev
                0x0000000008008f3a        0x2 /usr/lib/gcc/arm-none-eabi/10.1.0/../../../../arm-none-eabi/lib/thumb/v7-m/nofp/libstdc++_nano.a(tinfo.o)
                0x0000000008008f3a                std::type_info::~type_info()
                0x0000000008008f3a                std::type_info::~type_info()
 .text._ZNKSt9type_info14__is_pointer_pEv
                0x0000000008008f3c        0x4 /usr/lib/gcc/arm-none-eabi/10.1.0/../../../../arm-none-eabi/lib/thumb/v7-m/nofp/libstdc++_nano.a(tinfo.o)
                0x0000000008008f3c                std::type_info::__is_function_p() const
                0x0000000008008f3c                std::type_info::__is_pointer_p() const
 .text._ZNKSt9type_infoeqERKS_
                0x0000000008008f40       0x2c /usr/lib/gcc/arm-none-eabi/10.1.0/../../../../arm-none-eabi/lib/thumb/v7-m/nofp/libstdc++_nano.a(tinfo.o)
                0x0000000008008f40                std::type_info::operator==(std::type_info const&) const
 .text._ZNSt6chrono3_V212system_clock3nowEv
                0x0000000008008f6c       0x3c /usr/lib/gcc/arm-none-eabi/10.1.0/../../../../arm-none-eabi/lib/thumb/v7-m/nofp/libstdc++_nano.a(chrono.o)
                0x0000000008008f6c                std::chrono::_V2::system_clock::now()
 .text._ZdlPv   0x0000000008008fa8        0x4 /usr/lib/gcc/arm-none-eabi/10.1.0/../../../../arm-none-eabi/lib/thumb/v7-m/nofp/libstdc++_nano.a(del_op.o)
                0x0000000008008fa8                operator delete(void*)
 .text._ZN10__cxxabiv111__terminateEPFvvE
                0x0000000008008fac        0x8 /usr/lib/gcc/arm-none-eabi/10.1.0/../../../../arm-none-eabi/lib/thumb/v7-m/nofp/libstdc++_nano.a(eh_terminate.o)
                0x0000000008008fac                __cxxabiv1::__terminate(void (*)())
 .text._ZSt13get_terminatev
                0x0000000008008fb4       0x10 /usr/lib/gcc/arm-none-eabi/10.1.0/../../../../arm-none-eabi/lib/thumb/v7-m/nofp/libstdc++_nano.a(eh_terminate.o)
                0x0000000008008fb4                std::get_terminate()
 .text._ZSt9terminatev
                0x0000000008008fc4        0xa /usr/lib/gcc/arm-none-eabi/10.1.0/../../../../arm-none-eabi/lib/thumb/v7-m/nofp/libstdc++_nano.a(eh_terminate.o)
                0x0000000008008fc4                std::terminate()
 .text.abort    0x0000000008008fce        0xe /usr/lib/gcc/arm-none-eabi/10.1.0/../../../../arm-none-eabi/lib/thumb/v7-m/nofp/libc_nano.a(lib_a-abort.o)
                0x0000000008008fce                abort
 .text.__cxa_atexit
                0x0000000008008fdc       0x1c /usr/lib/gcc/arm-none-eabi/10.1.0/../../../../arm-none-eabi/lib/thumb/v7-m/nofp/libc_nano.a(lib_a-cxa_atexit.o)
                0x0000000008008fdc                __cxa_atexit
 .text.__libc_init_array
                0x0000000008008ff8       0x48 /usr/lib/gcc/arm-none-eabi/10.1.0/../../../../arm-none-eabi/lib/thumb/v7-m/nofp/libc_nano.a(lib_a-init.o)
                0x0000000008008ff8                __libc_init_array
 .text.malloc   0x0000000008009040       0x10 /usr/lib/gcc/arm-none-eabi/10.1.0/../../../../arm-none-eabi/lib/thumb/v7-m/nofp/libc_nano.a(lib_a-malloc.o)
                0x0000000008009040                malloc
 .text.free     0x0000000008009050       0x10 /usr/lib/gcc/arm-none-eabi/10.1.0/../../../../arm-none-eabi/lib/thumb/v7-m/nofp/libc_nano.a(lib_a-malloc.o)
                0x0000000008009050                free
 .text.memcpy   0x0000000008009060       0x1c /usr/lib/gcc/arm-none-eabi/10.1.0/../../../../arm-none-eabi/lib/thumb/v7-m/nofp/libc_nano.a(lib_a-memcpy-stub.o)
                0x0000000008009060                memcpy
 .text.memmove  0x000000000800907c       0x34 /usr/lib/gcc/arm-none-eabi/10.1.0/../../../../arm-none-eabi/lib/thumb/v7-m/nofp/libc_nano.a(lib_a-memmove.o)
                0x000000000800907c                memmove
 .text.memset   0x00000000080090b0       0x10 /usr/lib/gcc/arm-none-eabi/10.1.0/../../../../arm-none-eabi/lib/thumb/v7-m/nofp/libc_nano.a(lib_a-memset.o)
                0x00000000080090b0                memset
 .text._free_r  0x00000000080090c0       0x98 /usr/lib/gcc/arm-none-eabi/10.1.0/../../../../arm-none-eabi/lib/thumb/v7-m/nofp/libc_nano.a(lib_a-nano-freer.o)
                0x00000000080090c0                _free_r
 .text._malloc_r
                0x0000000008009158       0xb4 /usr/lib/gcc/arm-none-eabi/10.1.0/../../../../arm-none-eabi/lib/thumb/v7-m/nofp/libc_nano.a(lib_a-nano-mallocr.o)
                0x0000000008009158                _malloc_r
 .text._sbrk_r  0x000000000800920c       0x20 /usr/lib/gcc/arm-none-eabi/10.1.0/../../../../arm-none-eabi/lib/thumb/v7-m/nofp/libc_nano.a(lib_a-sbrkr.o)
                0x000000000800920c                _sbrk_r
 .text._raise_r
                0x000000000800922c       0x50 /usr/lib/gcc/arm-none-eabi/10.1.0/../../../../arm-none-eabi/lib/thumb/v7-m/nofp/libc_nano.a(lib_a-signal.o)
                0x000000000800922c                _raise_r
 .text.raise    0x000000000800927c       0x10 /usr/lib/gcc/arm-none-eabi/10.1.0/../../../../arm-none-eabi/lib/thumb/v7-m/nofp/libc_nano.a(lib_a-signal.o)
                0x000000000800927c                raise
 .text._kill_r  0x000000000800928c       0x24 /usr/lib/gcc/arm-none-eabi/10.1.0/../../../../arm-none-eabi/lib/thumb/v7-m/nofp/libc_nano.a(lib_a-signalr.o)
                0x000000000800928c                _kill_r
 .text._getpid_r
                0x00000000080092b0        0x4 /usr/lib/gcc/arm-none-eabi/10.1.0/../../../../arm-none-eabi/lib/thumb/v7-m/nofp/libc_nano.a(lib_a-signalr.o)
                0x00000000080092b0                _getpid_r
 .text.write    0x00000000080092b4       0x14 /usr/lib/gcc/arm-none-eabi/10.1.0/../../../../arm-none-eabi/lib/thumb/v7-m/nofp/libc_nano.a(lib_a-syswrite.o)
                0x00000000080092b4                write
 .text._write_r
                0x00000000080092c8       0x24 /usr/lib/gcc/arm-none-eabi/10.1.0/../../../../arm-none-eabi/lib/thumb/v7-m/nofp/libc_nano.a(lib_a-writer.o)
                0x00000000080092c8                _write_r
 .text.__register_exitproc
                0x00000000080092ec       0xc8 /usr/lib/gcc/arm-none-eabi/10.1.0/../../../../arm-none-eabi/lib/thumb/v7-m/nofp/libc_nano.a(lib_a-__atexit.o)
                0x00000000080092ec                __register_exitproc
 .text.__retarget_lock_acquire_recursive
                0x00000000080093b4        0x2 /usr/lib/gcc/arm-none-eabi/10.1.0/../../../../arm-none-eabi/lib/thumb/v7-m/nofp/libc_nano.a(lib_a-lock.o)
                0x00000000080093b4                __retarget_lock_acquire_recursive
 .text.__retarget_lock_release
                0x00000000080093b6        0x2 /usr/lib/gcc/arm-none-eabi/10.1.0/../../../../arm-none-eabi/lib/thumb/v7-m/nofp/libc_nano.a(lib_a-lock.o)
                0x00000000080093b6                __retarget_lock_release
 .text.__retarget_lock_release_recursive
                0x00000000080093b8        0x2 /usr/lib/gcc/arm-none-eabi/10.1.0/../../../../arm-none-eabi/lib/thumb/v7-m/nofp/libc_nano.a(lib_a-lock.o)
                0x00000000080093b8                __retarget_lock_release_recursive
 *fill*         0x00000000080093ba        0x2 
 .text.__malloc_lock
                0x00000000080093bc        0xc /usr/lib/gcc/arm-none-eabi/10.1.0/../../../../arm-none-eabi/lib/thumb/v7-m/nofp/libc_nano.a(lib_a-mlock.o)
                0x00000000080093bc                __malloc_lock
 .text.__malloc_unlock
                0x00000000080093c8        0xc /usr/lib/gcc/arm-none-eabi/10.1.0/../../../../arm-none-eabi/lib/thumb/v7-m/nofp/libc_nano.a(lib_a-mlock.o)
                0x00000000080093c8                __malloc_unlock
 .text.__udivmoddi4
                0x00000000080093d4      0x2a6 /usr/lib/gcc/arm-none-eabi/10.1.0/thumb/v7-m/nofp/libgcc.a(_udivmoddi4.o)
                0x00000000080093d4                __udivmoddi4
 *fill*         0x000000000800967a        0x2 
 .text._getpid  0x000000000800967c       0x10 /usr/lib/gcc/arm-none-eabi/10.1.0/../../../../arm-none-eabi/lib/thumb/v7-m/nofp/libnosys.a(getpid.o)
                0x000000000800967c                _getpid
 .text._kill    0x000000000800968c       0x10 /usr/lib/gcc/arm-none-eabi/10.1.0/../../../../arm-none-eabi/lib/thumb/v7-m/nofp/libnosys.a(kill.o)
                0x000000000800968c                _kill
 .text._sbrk    0x000000000800969c       0x1c /usr/lib/gcc/arm-none-eabi/10.1.0/../../../../arm-none-eabi/lib/thumb/v7-m/nofp/libnosys.a(sbrk.o)
                0x000000000800969c                _sbrk
 .text._write   0x00000000080096b8       0x10 /usr/lib/gcc/arm-none-eabi/10.1.0/../../../../arm-none-eabi/lib/thumb/v7-m/nofp/libnosys.a(write.o)
                0x00000000080096b8                _write
 .text._exit    0x00000000080096c8        0x4 /usr/lib/gcc/arm-none-eabi/10.1.0/../../../../arm-none-eabi/lib/thumb/v7-m/nofp/libnosys.a(_exit.o)
                0x00000000080096c8                _exit
 *(.glue_7)
 .glue_7        0x00000000080096cc        0x0 linker stubs
 *(.glue_7t)
 .glue_7t       0x00000000080096cc        0x0 linker stubs
 *(.eh_frame)
 .eh_frame      0x00000000080096cc        0x0 /usr/lib/gcc/arm-none-eabi/10.1.0/thumb/v7-m/nofp/crtbegin.o
 *(.init)
 .init          0x00000000080096cc        0x4 /usr/lib/gcc/arm-none-eabi/10.1.0/thumb/v7-m/nofp/crti.o
                0x00000000080096cc                _init
 .init          0x00000000080096d0        0x8 /usr/lib/gcc/arm-none-eabi/10.1.0/thumb/v7-m/nofp/crtn.o
 *(.fini)
 .fini          0x00000000080096d8        0x4 /usr/lib/gcc/arm-none-eabi/10.1.0/thumb/v7-m/nofp/crti.o
                0x00000000080096d8                _fini
 .fini          0x00000000080096dc        0x8 /usr/lib/gcc/arm-none-eabi/10.1.0/thumb/v7-m/nofp/crtn.o
                0x00000000080096e4                . = ALIGN (0x4)
                0x00000000080096e4                _etext = .

.vfp11_veneer   0x00000000080096e4        0x0
 .vfp11_veneer  0x00000000080096e4        0x0 linker stubs

.v4_bx          0x00000000080096e4        0x0
 .v4_bx         0x00000000080096e4        0x0 linker stubs

.iplt           0x00000000080096e4        0x0
 .iplt          0x00000000080096e4        0x0 /usr/lib/gcc/arm-none-eabi/10.1.0/thumb/v7-m/nofp/crtbegin.o

.rodata         0x00000000080096e4      0x2bc
                0x00000000080096e4                . = ALIGN (0x4)
 *(.rodata)
 .rodata        0x00000000080096e4       0x10 build/native/debug/lowLevel/libLowLevel.a(stm32f1xx_hal_rcc.o)
 *(.rodata*)
 .rodata._ZTVN7message5QueueILt64ELt128EEE
                0x00000000080096f4       0x18 build/native/debug/application/application.o
                0x00000000080096f4                vtable for message::Queue<(unsigned short)64, (unsigned short)128>
 .rodata._ZTVN7message5QueueILt256ELt256EEE
                0x000000000800970c       0x18 build/native/debug/application/application.o
                0x000000000800970c                vtable for message::Queue<(unsigned short)256, (unsigned short)256>
 .rodata._ZTVN7message8ReceiverIiEE
                0x0000000008009724        0xc build/native/debug/application/application.o
                0x0000000008009724                vtable for message::Receiver<int>
 .rodata._ZTVN7message13ReceiverQueueE
                0x0000000008009730       0x18 build/native/debug/application/application.o
                0x0000000008009730                vtable for message::ReceiverQueue
 .rodata._ZTIN7message5QueueILt64ELt128EEE
                0x0000000008009748        0xc build/native/debug/application/application.o
                0x0000000008009748                typeinfo for message::Queue<(unsigned short)64, (unsigned short)128>
 .rodata._ZTSN7message5QueueILt64ELt128EEE
                0x0000000008009754       0x1e build/native/debug/application/application.o
                0x0000000008009754                typeinfo name for message::Queue<(unsigned short)64, (unsigned short)128>
 *fill*         0x0000000008009772        0x2 
 .rodata._ZTIN7message5QueueILt256ELt256EEE
                0x0000000008009774        0xc build/native/debug/application/application.o
                0x0000000008009774                typeinfo for message::Queue<(unsigned short)256, (unsigned short)256>
 .rodata._ZTSN7message5QueueILt256ELt256EEE
                0x0000000008009780       0x1f build/native/debug/application/application.o
                0x0000000008009780                typeinfo name for message::Queue<(unsigned short)256, (unsigned short)256>
 *fill*         0x000000000800979f        0x1 
 .rodata._ZTIN7message8ReceiverIiEE
                0x00000000080097a0        0x8 build/native/debug/application/application.o
                0x00000000080097a0                typeinfo for message::Receiver<int>
 .rodata._ZTSN7message8ReceiverIiEE
                0x00000000080097a8       0x17 build/native/debug/application/application.o
                0x00000000080097a8                typeinfo name for message::Receiver<int>
 *fill*         0x00000000080097bf        0x1 
 .rodata._ZTIN7message13ReceiverQueueE
                0x00000000080097c0        0x8 build/native/debug/application/application.o
                0x00000000080097c0                typeinfo for message::ReceiverQueue
 .rodata._ZTSN7message13ReceiverQueueE
                0x00000000080097c8       0x1a build/native/debug/application/application.o
                0x00000000080097c8                typeinfo name for message::ReceiverQueue
 *fill*         0x00000000080097e2        0x2 
 .rodata._ZTVN7message8ReceiverIN11application3CAN6data_tEEE
                0x00000000080097e4        0xc build/native/debug/application/CAN.o
                0x00000000080097e4                vtable for message::Receiver<application::CAN::data_t>
 .rodata._ZTIN7message8ReceiverIN11application3CAN6data_tEEE
                0x00000000080097f0        0x8 build/native/debug/application/CAN.o
                0x00000000080097f0                typeinfo for message::Receiver<application::CAN::data_t>
 .rodata._ZTSN7message8ReceiverIN11application3CAN6data_tEEE
                0x00000000080097f8       0x30 build/native/debug/application/CAN.o
                0x00000000080097f8                typeinfo name for message::Receiver<application::CAN::data_t>
 .rodata._ZTV19CANReceiverReceiver
                0x0000000008009828        0xc build/native/debug/application/CANRelais.o
                0x0000000008009828                vtable for CANReceiverReceiver
 .rodata._ZTI19CANReceiverReceiver
                0x0000000008009834        0xc build/native/debug/application/CANRelais.o
                0x0000000008009834                typeinfo for CANReceiverReceiver
 .rodata._ZTS19CANReceiverReceiver
                0x0000000008009840       0x16 build/native/debug/application/CANRelais.o
                0x0000000008009840                typeinfo name for CANReceiverReceiver
 *fill*         0x0000000008009856        0x2 
 .rodata._ZTVN21CANTemperatureSensors8ReceiverE
                0x0000000008009858        0xc build/native/debug/application/CANTemperatureSensors.o
                0x0000000008009858                vtable for CANTemperatureSensors::Receiver
 .rodata._ZTIN21CANTemperatureSensors8ReceiverE
                0x0000000008009864        0xc build/native/debug/application/CANTemperatureSensors.o
                0x0000000008009864                typeinfo for CANTemperatureSensors::Receiver
 .rodata._ZTSN21CANTemperatureSensors8ReceiverE
                0x0000000008009870       0x23 build/native/debug/application/CANTemperatureSensors.o
                0x0000000008009870                typeinfo name for CANTemperatureSensors::Receiver
 *fill*         0x0000000008009893        0x1 
 .rodata.AHBPrescTable
                0x0000000008009894       0x10 build/native/debug/lowLevel/libLowLevel.a(system_stm32f1xx.o)
                0x0000000008009894                AHBPrescTable
 .rodata.APBPrescTable
                0x00000000080098a4        0x8 build/native/debug/lowLevel/libLowLevel.a(system_stm32f1xx.o)
                0x00000000080098a4                APBPrescTable
 .rodata._ZTIN10__cxxabiv117__class_type_infoE
                0x00000000080098ac        0xc /usr/lib/gcc/arm-none-eabi/10.1.0/../../../../arm-none-eabi/lib/thumb/v7-m/nofp/libstdc++_nano.a(class_type_info.o)
                0x00000000080098ac                typeinfo for __cxxabiv1::__class_type_info
 .rodata._ZTSN10__cxxabiv117__class_type_infoE
                0x00000000080098b8       0x22 /usr/lib/gcc/arm-none-eabi/10.1.0/../../../../arm-none-eabi/lib/thumb/v7-m/nofp/libstdc++_nano.a(class_type_info.o)
                0x00000000080098b8                typeinfo name for __cxxabiv1::__class_type_info
 *fill*         0x00000000080098da        0x2 
 .rodata._ZTVN10__cxxabiv117__class_type_infoE
                0x00000000080098dc       0x2c /usr/lib/gcc/arm-none-eabi/10.1.0/../../../../arm-none-eabi/lib/thumb/v7-m/nofp/libstdc++_nano.a(class_type_info.o)
                0x00000000080098dc                vtable for __cxxabiv1::__class_type_info
 .rodata.__cxa_pure_virtual.str1.1
                0x0000000008009908       0x1c /usr/lib/gcc/arm-none-eabi/10.1.0/../../../../arm-none-eabi/lib/thumb/v7-m/nofp/libstdc++_nano.a(pure.o)
 .rodata._ZTIN10__cxxabiv120__si_class_type_infoE
                0x0000000008009924        0xc /usr/lib/gcc/arm-none-eabi/10.1.0/../../../../arm-none-eabi/lib/thumb/v7-m/nofp/libstdc++_nano.a(si_class_type_info.o)
                0x0000000008009924                typeinfo for __cxxabiv1::__si_class_type_info
 .rodata._ZTSN10__cxxabiv120__si_class_type_infoE
                0x0000000008009930       0x25 /usr/lib/gcc/arm-none-eabi/10.1.0/../../../../arm-none-eabi/lib/thumb/v7-m/nofp/libstdc++_nano.a(si_class_type_info.o)
                0x0000000008009930                typeinfo name for __cxxabiv1::__si_class_type_info
 *fill*         0x0000000008009955        0x3 
 .rodata._ZTVN10__cxxabiv120__si_class_type_infoE
                0x0000000008009958       0x2c /usr/lib/gcc/arm-none-eabi/10.1.0/../../../../arm-none-eabi/lib/thumb/v7-m/nofp/libstdc++_nano.a(si_class_type_info.o)
                0x0000000008009958                vtable for __cxxabiv1::__si_class_type_info
 .rodata._ZTISt9type_info
                0x0000000008009984        0x8 /usr/lib/gcc/arm-none-eabi/10.1.0/../../../../arm-none-eabi/lib/thumb/v7-m/nofp/libstdc++_nano.a(tinfo.o)
                0x0000000008009984                typeinfo for std::type_info
 .rodata._ZTSSt9type_info
                0x000000000800998c        0xd /usr/lib/gcc/arm-none-eabi/10.1.0/../../../../arm-none-eabi/lib/thumb/v7-m/nofp/libstdc++_nano.a(tinfo.o)
                0x000000000800998c                typeinfo name for std::type_info
 *fill*         0x0000000008009999        0x3 
 .rodata.__on_exit_args
                0x000000000800999c        0x4 /usr/lib/gcc/arm-none-eabi/10.1.0/../../../../arm-none-eabi/lib/thumb/v7-m/nofp/libc_nano.a(lib_a-on_exit_args.o)
                0x000000000800999c                __on_exit_args
                0x00000000080099a0                . = ALIGN (0x4)

.ARM.extab
 *(.ARM.extab* .gnu.linkonce.armextab.*)

.ARM            0x00000000080099a0        0x8
                0x00000000080099a0                __exidx_start = .
 *(.ARM.exidx*)
 .ARM.exidx.text.__udivmoddi4
                0x00000000080099a0        0x8 /usr/lib/gcc/arm-none-eabi/10.1.0/thumb/v7-m/nofp/libgcc.a(_udivmoddi4.o)
                0x00000000080099a8                __exidx_end = .

.rel.dyn        0x00000000080099a8        0x0
 .rel.iplt      0x00000000080099a8        0x0 /usr/lib/gcc/arm-none-eabi/10.1.0/thumb/v7-m/nofp/crtbegin.o

.preinit_array  0x00000000080099a8        0x0
                0x00000000080099a8                PROVIDE (__preinit_array_start = .)
 *(.preinit_array*)
                0x00000000080099a8                PROVIDE (__preinit_array_end = .)

.init_array     0x00000000080099a8       0x10
                0x00000000080099a8                PROVIDE (__init_array_start = .)
 *(SORT_BY_NAME(.init_array.*))
 *(.init_array*)
 .init_array    0x00000000080099a8        0x4 /usr/lib/gcc/arm-none-eabi/10.1.0/thumb/v7-m/nofp/crtbegin.o
 .init_array    0x00000000080099ac        0x4 build/native/debug/application/application.o
 .init_array    0x00000000080099b0        0x4 build/native/debug/application/CAN.o
 .init_array    0x00000000080099b4        0x4 build/native/debug/lowLevel/libLowLevel.a(TemperatureSensors.o)
                0x00000000080099b8                PROVIDE (__init_array_end = .)

.fini_array     0x00000000080099b8        0x4
                0x00000000080099b8                PROVIDE (__fini_array_start = .)
 *(SORT_BY_NAME(.fini_array.*))
 *(.fini_array*)
 .fini_array    0x00000000080099b8        0x4 /usr/lib/gcc/arm-none-eabi/10.1.0/thumb/v7-m/nofp/crtbegin.o
                0x00000000080099bc                PROVIDE (__fini_array_end = .)
                0x00000000080099bc                _sidata = LOADADDR (.data)

.data           0x0000000020000000       0xdc load address 0x00000000080099bc
                0x0000000020000000                . = ALIGN (0x4)
                0x0000000020000000                _sdata = .
 *(.data)
 *(.data*)
 .data.__dso_handle
                0x0000000020000000        0x4 /usr/lib/gcc/arm-none-eabi/10.1.0/thumb/v7-m/nofp/crtbegin.o
                0x0000000020000000                __dso_handle
 .data.uwTickPrio
                0x0000000020000004        0x4 build/native/debug/lowLevel/libLowLevel.a(stm32f1xx_hal.o)
                0x0000000020000004                uwTickPrio
 .data.uwTickFreq
                0x0000000020000008        0x1 build/native/debug/lowLevel/libLowLevel.a(stm32f1xx_hal.o)
                0x0000000020000008                uwTickFreq
 *fill*         0x0000000020000009        0x3 
 .data.SystemCoreClock
                0x000000002000000c        0x4 build/native/debug/lowLevel/libLowLevel.a(system_stm32f1xx.o)
                0x000000002000000c                SystemCoreClock
 .data.relaisGPIOs
                0x0000000020000010       0x60 build/native/debug/lowLevel/libLowLevel.a(Relais.o)
                0x0000000020000010                relaisGPIOs
 .data._ZN10__cxxabiv119__terminate_handlerE
                0x0000000020000070        0x4 /usr/lib/gcc/arm-none-eabi/10.1.0/../../../../arm-none-eabi/lib/thumb/v7-m/nofp/libstdc++_nano.a(eh_term_handler.o)
                0x0000000020000070                __cxxabiv1::__terminate_handler
 .data._impure_ptr
                0x0000000020000074        0x4 /usr/lib/gcc/arm-none-eabi/10.1.0/../../../../arm-none-eabi/lib/thumb/v7-m/nofp/libc_nano.a(lib_a-impure.o)
                0x0000000020000074                _impure_ptr
 .data.impure_data
                0x0000000020000078       0x60 /usr/lib/gcc/arm-none-eabi/10.1.0/../../../../arm-none-eabi/lib/thumb/v7-m/nofp/libc_nano.a(lib_a-impure.o)
 .data.__atexit_recursive_mutex
                0x00000000200000d8        0x4 /usr/lib/gcc/arm-none-eabi/10.1.0/../../../../arm-none-eabi/lib/thumb/v7-m/nofp/libc_nano.a(lib_a-__call_atexit.o)
                0x00000000200000d8                __atexit_recursive_mutex
                0x00000000200000dc                . = ALIGN (0x4)
                0x00000000200000dc                _edata = .

.igot.plt       0x00000000200000dc        0x0 load address 0x0000000008009a98
 .igot.plt      0x00000000200000dc        0x0 /usr/lib/gcc/arm-none-eabi/10.1.0/thumb/v7-m/nofp/crtbegin.o
                0x00000000200000dc                . = ALIGN (0x4)

.bss            0x00000000200000e0      0x8cc load address 0x0000000008009a98
                0x00000000200000e0                _sbss = .
                0x00000000200000e0                __bss_start__ = _sbss
 *(.bss)
 *(.bss*)
 .bss.completed.1
                0x00000000200000e0        0x1 /usr/lib/gcc/arm-none-eabi/10.1.0/thumb/v7-m/nofp/crtbegin.o
 *fill*         0x00000000200000e1        0x3 
 .bss.object.0  0x00000000200000e4       0x18 /usr/lib/gcc/arm-none-eabi/10.1.0/thumb/v7-m/nofp/crtbegin.o
 *fill*         0x00000000200000fc        0x4 
 .bss._ZN9MainQueue5queueE
                0x0000000020000100      0x418 build/native/debug/application/application.o
                0x0000000020000100                MainQueue::queue
 .bss._ZN14InterruptQueue5queueE
                0x0000000020000518      0x1d8 build/native/debug/application/application.o
                0x0000000020000518                InterruptQueue::queue
 .bss.canTemperatureSensor
                0x00000000200006f0        0x8 build/native/debug/application/application.o
                0x00000000200006f0                canTemperatureSensor
 .bss.canRelais
                0x00000000200006f8        0x8 build/native/debug/application/CAN.o
                0x00000000200006f8                canRelais
 .bss.hcan      0x0000000020000700       0x28 build/native/debug/lowLevel/libLowLevel.a(main.o)
                0x0000000020000700                hcan
 .bss.hi2c2     0x0000000020000728       0x54 build/native/debug/lowLevel/libLowLevel.a(main.o)
                0x0000000020000728                hi2c2
 .bss.uwTick    0x000000002000077c        0x4 build/native/debug/lowLevel/libLowLevel.a(stm32f1xx_hal.o)
                0x000000002000077c                uwTick
 .bss._ZL13oneWireStruct
                0x0000000020000780       0x1c build/native/debug/lowLevel/libLowLevel.a(TemperatureSensors.o)
 .bss._ZL9addresses
                0x000000002000079c       0x5c build/native/debug/lowLevel/libLowLevel.a(TemperatureSensors.o)
 .bss.__malloc_free_list
                0x00000000200007f8        0x4 /usr/lib/gcc/arm-none-eabi/10.1.0/../../../../arm-none-eabi/lib/thumb/v7-m/nofp/libc_nano.a(lib_a-nano-mallocr.o)
                0x00000000200007f8                __malloc_free_list
 .bss.__malloc_sbrk_start
                0x00000000200007fc        0x4 /usr/lib/gcc/arm-none-eabi/10.1.0/../../../../arm-none-eabi/lib/thumb/v7-m/nofp/libc_nano.a(lib_a-nano-mallocr.o)
                0x00000000200007fc                __malloc_sbrk_start
 .bss._on_exit_args_instance
                0x0000000020000800      0x108 /usr/lib/gcc/arm-none-eabi/10.1.0/../../../../arm-none-eabi/lib/thumb/v7-m/nofp/libc_nano.a(lib_a-on_exit_args.o)
 .bss._global_atexit0
                0x0000000020000908       0x8c /usr/lib/gcc/arm-none-eabi/10.1.0/../../../../arm-none-eabi/lib/thumb/v7-m/nofp/libc_nano.a(lib_a-__atexit.o)
 .bss._global_atexit
                0x0000000020000994        0x4 /usr/lib/gcc/arm-none-eabi/10.1.0/../../../../arm-none-eabi/lib/thumb/v7-m/nofp/libc_nano.a(lib_a-__call_atexit.o)
                0x0000000020000994                _global_atexit
 .bss.heap_end.4144
                0x0000000020000998        0x4 /usr/lib/gcc/arm-none-eabi/10.1.0/../../../../arm-none-eabi/lib/thumb/v7-m/nofp/libnosys.a(sbrk.o)
 *(COMMON)
 COMMON         0x000000002000099c        0x9 /usr/lib/gcc/arm-none-eabi/10.1.0/../../../../arm-none-eabi/lib/thumb/v7-m/nofp/libc_nano.a(lib_a-lock.o)
                0x000000002000099c                __lock___atexit_recursive_mutex
                0x000000002000099d                __lock___arc4random_mutex
                0x000000002000099e                __lock___env_recursive_mutex
                0x000000002000099f                __lock___sinit_recursive_mutex
                0x00000000200009a0                __lock___malloc_recursive_mutex
                0x00000000200009a1                __lock___at_quick_exit_mutex
                0x00000000200009a2                __lock___dd_hash_mutex
                0x00000000200009a3                __lock___tz_mutex
                0x00000000200009a4                __lock___sfp_recursive_mutex
 *fill*         0x00000000200009a5        0x3 
 COMMON         0x00000000200009a8        0x4 /usr/lib/gcc/arm-none-eabi/10.1.0/../../../../arm-none-eabi/lib/thumb/v7-m/nofp/libc_nano.a(lib_a-reent.o)
                0x00000000200009a8                errno
                0x00000000200009ac                . = ALIGN (0x4)
                0x00000000200009ac                _ebss = .
                0x00000000200009ac                __bss_end__ = _ebss

._user_heap_stack
                0x00000000200009ac      0x604 load address 0x0000000008009a98
                0x00000000200009b0                . = ALIGN (0x8)
 *fill*         0x00000000200009ac        0x4 
                0x00000000200009b0                PROVIDE (end = .)
                [!provide]                        PROVIDE (_end = .)
                0x0000000020000bb0                . = (. + _Min_Heap_Size)
 *fill*         0x00000000200009b0      0x200 
                0x0000000020000fb0                . = (. + _Min_Stack_Size)
 *fill*         0x0000000020000bb0      0x400 
                0x0000000020000fb0                . = ALIGN (0x8)

/DISCARD/
 libc.a(*)
 libm.a(*)
 libgcc.a(*)

.ARM.attributes
                0x0000000000000000       0x29
 *(.ARM.attributes)
 .ARM.attributes
                0x0000000000000000       0x1d /usr/lib/gcc/arm-none-eabi/10.1.0/thumb/v7-m/nofp/crti.o
 .ARM.attributes
                0x000000000000001d       0x2d /usr/lib/gcc/arm-none-eabi/10.1.0/thumb/v7-m/nofp/crtbegin.o
 .ARM.attributes
                0x000000000000004a       0x2d build/native/debug/application/application.o
 .ARM.attributes
                0x0000000000000077       0x2d build/native/debug/application/CAN.o
 .ARM.attributes
                0x00000000000000a4       0x2d build/native/debug/application/CANRelais.o
 .ARM.attributes
                0x00000000000000d1       0x2d build/native/debug/application/CANTemperatureSensors.o
 .ARM.attributes
                0x00000000000000fe       0x2d build/native/debug/lowLevel/libLowLevel.a(main.o)
 .ARM.attributes
                0x000000000000012b       0x2d build/native/debug/lowLevel/libLowLevel.a(stm32f1xx_it.o)
 .ARM.attributes
                0x0000000000000158       0x2d build/native/debug/lowLevel/libLowLevel.a(stm32f1xx_hal_msp.o)
 .ARM.attributes
                0x0000000000000185       0x2d build/native/debug/lowLevel/libLowLevel.a(stm32f1xx_hal_can.o)
 .ARM.attributes
                0x00000000000001b2       0x2d build/native/debug/lowLevel/libLowLevel.a(stm32f1xx_hal.o)
 .ARM.attributes
                0x00000000000001df       0x2d build/native/debug/lowLevel/libLowLevel.a(stm32f1xx_hal_rcc.o)
 .ARM.attributes
                0x000000000000020c       0x2d build/native/debug/lowLevel/libLowLevel.a(stm32f1xx_hal_cortex.o)
 .ARM.attributes
                0x0000000000000239       0x2d build/native/debug/lowLevel/libLowLevel.a(stm32f1xx_hal_gpio.o)
 .ARM.attributes
                0x0000000000000266       0x2d build/native/debug/lowLevel/libLowLevel.a(stm32f1xx_hal_i2c.o)
 .ARM.attributes
                0x0000000000000293       0x2d build/native/debug/lowLevel/libLowLevel.a(system_stm32f1xx.o)
 .ARM.attributes
                0x00000000000002c0       0x21 build/native/debug/lowLevel/libLowLevel.a(startup_stm32f103xb.o)
 .ARM.attributes
                0x00000000000002e1       0x2d build/native/debug/lowLevel/libLowLevel.a(retarget.o)
 .ARM.attributes
                0x000000000000030e       0x2d build/native/debug/lowLevel/libLowLevel.a(CAN.o)
 .ARM.attributes
                0x000000000000033b       0x2d build/native/debug/lowLevel/libLowLevel.a(Relais.o)
 .ARM.attributes
                0x0000000000000368       0x2d build/native/debug/lowLevel/libLowLevel.a(LowLevel.o)
 .ARM.attributes
                0x0000000000000395       0x2d build/native/debug/lowLevel/libLowLevel.a(TemperatureSensors.o)
 .ARM.attributes
                0x00000000000003c2       0x2d build/native/debug/lowLevel/libLowLevel.a(clock.o)
 .ARM.attributes
                0x00000000000003ef       0x2d build/native/debug/lowLevel/libLowLevel.a(delay_us.o)
 .ARM.attributes
                0x000000000000041c       0x2d build/native/debug/lowLevel/libLowLevel.a(tm_stm32_onewire.o)
 .ARM.attributes
                0x0000000000000449       0x2d /usr/lib/gcc/arm-none-eabi/10.1.0/../../../../arm-none-eabi/lib/thumb/v7-m/nofp/libstdc++_nano.a(atexit_arm.o)
 .ARM.attributes
                0x0000000000000476       0x2d /usr/lib/gcc/arm-none-eabi/10.1.0/../../../../arm-none-eabi/lib/thumb/v7-m/nofp/libstdc++_nano.a(class_type_info.o)
 .ARM.attributes
                0x00000000000004a3       0x2d /usr/lib/gcc/arm-none-eabi/10.1.0/../../../../arm-none-eabi/lib/thumb/v7-m/nofp/libstdc++_nano.a(del_ops.o)
 .ARM.attributes
                0x00000000000004d0       0x2d /usr/lib/gcc/arm-none-eabi/10.1.0/../../../../arm-none-eabi/lib/thumb/v7-m/nofp/libstdc++_nano.a(pure.o)
 .ARM.attributes
                0x00000000000004fd       0x2d /usr/lib/gcc/arm-none-eabi/10.1.0/../../../../arm-none-eabi/lib/thumb/v7-m/nofp/libstdc++_nano.a(si_class_type_info.o)
 .ARM.attributes
                0x000000000000052a       0x2d /usr/lib/gcc/arm-none-eabi/10.1.0/../../../../arm-none-eabi/lib/thumb/v7-m/nofp/libstdc++_nano.a(tinfo.o)
 .ARM.attributes
                0x0000000000000557       0x2d /usr/lib/gcc/arm-none-eabi/10.1.0/../../../../arm-none-eabi/lib/thumb/v7-m/nofp/libstdc++_nano.a(chrono.o)
 .ARM.attributes
                0x0000000000000584       0x2d /usr/lib/gcc/arm-none-eabi/10.1.0/../../../../arm-none-eabi/lib/thumb/v7-m/nofp/libstdc++_nano.a(del_op.o)
 .ARM.attributes
                0x00000000000005b1       0x2d /usr/lib/gcc/arm-none-eabi/10.1.0/../../../../arm-none-eabi/lib/thumb/v7-m/nofp/libstdc++_nano.a(eh_terminate.o)
 .ARM.attributes
                0x00000000000005de       0x2d /usr/lib/gcc/arm-none-eabi/10.1.0/../../../../arm-none-eabi/lib/thumb/v7-m/nofp/libstdc++_nano.a(eh_term_handler.o)
 .ARM.attributes
                0x000000000000060b       0x2d /usr/lib/gcc/arm-none-eabi/10.1.0/../../../../arm-none-eabi/lib/thumb/v7-m/nofp/libc_nano.a(lib_a-abort.o)
 .ARM.attributes
                0x0000000000000638       0x2d /usr/lib/gcc/arm-none-eabi/10.1.0/../../../../arm-none-eabi/lib/thumb/v7-m/nofp/libc_nano.a(lib_a-cxa_atexit.o)
 .ARM.attributes
                0x0000000000000665       0x2d /usr/lib/gcc/arm-none-eabi/10.1.0/../../../../arm-none-eabi/lib/thumb/v7-m/nofp/libc_nano.a(lib_a-impure.o)
 .ARM.attributes
                0x0000000000000692       0x2d /usr/lib/gcc/arm-none-eabi/10.1.0/../../../../arm-none-eabi/lib/thumb/v7-m/nofp/libc_nano.a(lib_a-init.o)
 .ARM.attributes
                0x00000000000006bf       0x2d /usr/lib/gcc/arm-none-eabi/10.1.0/../../../../arm-none-eabi/lib/thumb/v7-m/nofp/libc_nano.a(lib_a-malloc.o)
 .ARM.attributes
                0x00000000000006ec       0x2d /usr/lib/gcc/arm-none-eabi/10.1.0/../../../../arm-none-eabi/lib/thumb/v7-m/nofp/libc_nano.a(lib_a-memcpy-stub.o)
 .ARM.attributes
                0x0000000000000719       0x2d /usr/lib/gcc/arm-none-eabi/10.1.0/../../../../arm-none-eabi/lib/thumb/v7-m/nofp/libc_nano.a(lib_a-memmove.o)
 .ARM.attributes
                0x0000000000000746       0x2d /usr/lib/gcc/arm-none-eabi/10.1.0/../../../../arm-none-eabi/lib/thumb/v7-m/nofp/libc_nano.a(lib_a-memset.o)
 .ARM.attributes
                0x0000000000000773       0x2d /usr/lib/gcc/arm-none-eabi/10.1.0/../../../../arm-none-eabi/lib/thumb/v7-m/nofp/libc_nano.a(lib_a-nano-freer.o)
 .ARM.attributes
                0x00000000000007a0       0x2d /usr/lib/gcc/arm-none-eabi/10.1.0/../../../../arm-none-eabi/lib/thumb/v7-m/nofp/libc_nano.a(lib_a-nano-mallocr.o)
 .ARM.attributes
                0x00000000000007cd       0x2d /usr/lib/gcc/arm-none-eabi/10.1.0/../../../../arm-none-eabi/lib/thumb/v7-m/nofp/libc_nano.a(lib_a-on_exit_args.o)
 .ARM.attributes
                0x00000000000007fa       0x2d /usr/lib/gcc/arm-none-eabi/10.1.0/../../../../arm-none-eabi/lib/thumb/v7-m/nofp/libc_nano.a(lib_a-sbrkr.o)
 .ARM.attributes
                0x0000000000000827       0x2d /usr/lib/gcc/arm-none-eabi/10.1.0/../../../../arm-none-eabi/lib/thumb/v7-m/nofp/libc_nano.a(lib_a-signal.o)
 .ARM.attributes
                0x0000000000000854       0x2d /usr/lib/gcc/arm-none-eabi/10.1.0/../../../../arm-none-eabi/lib/thumb/v7-m/nofp/libc_nano.a(lib_a-signalr.o)
 .ARM.attributes
                0x0000000000000881       0x1b /usr/lib/gcc/arm-none-eabi/10.1.0/../../../../arm-none-eabi/lib/thumb/v7-m/nofp/libc_nano.a(lib_a-strcmp.o)
 .ARM.attributes
                0x000000000000089c       0x2d /usr/lib/gcc/arm-none-eabi/10.1.0/../../../../arm-none-eabi/lib/thumb/v7-m/nofp/libc_nano.a(lib_a-syswrite.o)
 .ARM.attributes
                0x00000000000008c9       0x2d /usr/lib/gcc/arm-none-eabi/10.1.0/../../../../arm-none-eabi/lib/thumb/v7-m/nofp/libc_nano.a(lib_a-writer.o)
 .ARM.attributes
                0x00000000000008f6       0x2d /usr/lib/gcc/arm-none-eabi/10.1.0/../../../../arm-none-eabi/lib/thumb/v7-m/nofp/libc_nano.a(lib_a-__atexit.o)
 .ARM.attributes
                0x0000000000000923       0x2d /usr/lib/gcc/arm-none-eabi/10.1.0/../../../../arm-none-eabi/lib/thumb/v7-m/nofp/libc_nano.a(lib_a-__call_atexit.o)
 .ARM.attributes
                0x0000000000000950       0x2d /usr/lib/gcc/arm-none-eabi/10.1.0/../../../../arm-none-eabi/lib/thumb/v7-m/nofp/libc_nano.a(lib_a-lock.o)
 .ARM.attributes
                0x000000000000097d       0x2d /usr/lib/gcc/arm-none-eabi/10.1.0/../../../../arm-none-eabi/lib/thumb/v7-m/nofp/libc_nano.a(lib_a-mlock.o)
 .ARM.attributes
                0x00000000000009aa       0x2d /usr/lib/gcc/arm-none-eabi/10.1.0/../../../../arm-none-eabi/lib/thumb/v7-m/nofp/libc_nano.a(lib_a-reent.o)
 .ARM.attributes
                0x00000000000009d7       0x1d /usr/lib/gcc/arm-none-eabi/10.1.0/thumb/v7-m/nofp/libgcc.a(_aeabi_ldivmod.o)
 .ARM.attributes
                0x00000000000009f4       0x2d /usr/lib/gcc/arm-none-eabi/10.1.0/thumb/v7-m/nofp/libgcc.a(_udivmoddi4.o)
 .ARM.attributes
                0x0000000000000a21       0x1d /usr/lib/gcc/arm-none-eabi/10.1.0/thumb/v7-m/nofp/libgcc.a(_dvmd_tls.o)
 .ARM.attributes
                0x0000000000000a3e       0x2d /usr/lib/gcc/arm-none-eabi/10.1.0/../../../../arm-none-eabi/lib/thumb/v7-m/nofp/libnosys.a(getpid.o)
 .ARM.attributes
                0x0000000000000a6b       0x2d /usr/lib/gcc/arm-none-eabi/10.1.0/../../../../arm-none-eabi/lib/thumb/v7-m/nofp/libnosys.a(kill.o)
 .ARM.attributes
                0x0000000000000a98       0x2d /usr/lib/gcc/arm-none-eabi/10.1.0/../../../../arm-none-eabi/lib/thumb/v7-m/nofp/libnosys.a(sbrk.o)
 .ARM.attributes
                0x0000000000000ac5       0x2d /usr/lib/gcc/arm-none-eabi/10.1.0/../../../../arm-none-eabi/lib/thumb/v7-m/nofp/libnosys.a(write.o)
 .ARM.attributes
                0x0000000000000af2       0x2d /usr/lib/gcc/arm-none-eabi/10.1.0/../../../../arm-none-eabi/lib/thumb/v7-m/nofp/libnosys.a(_exit.o)
 .ARM.attributes
                0x0000000000000b1f       0x1d /usr/lib/gcc/arm-none-eabi/10.1.0/thumb/v7-m/nofp/crtn.o
OUTPUT(build/native/debug/application/application.elf elf32-littlearm)
LOAD linker stubs
LOAD /usr/lib/gcc/arm-none-eabi/10.1.0/../../../../arm-none-eabi/lib/thumb/v7-m/nofp/libc.a
LOAD /usr/lib/gcc/arm-none-eabi/10.1.0/../../../../arm-none-eabi/lib/thumb/v7-m/nofp/libm.a
LOAD /usr/lib/gcc/arm-none-eabi/10.1.0/thumb/v7-m/nofp/libgcc.a

.debug_info     0x0000000000000000    0x2aeb5
 .debug_info    0x0000000000000000     0x6b18 build/native/debug/application/application.o
 .debug_info    0x0000000000006b18     0x4b89 build/native/debug/application/CAN.o
 .debug_info    0x000000000000b6a1     0x50c7 build/native/debug/application/CANRelais.o
 .debug_info    0x0000000000010768     0x612b build/native/debug/application/CANTemperatureSensors.o
 .debug_info    0x0000000000016893      0xf4a build/native/debug/lowLevel/libLowLevel.a(main.o)
 .debug_info    0x00000000000177dd      0x146 build/native/debug/lowLevel/libLowLevel.a(stm32f1xx_it.o)
 .debug_info    0x0000000000017923      0xe09 build/native/debug/lowLevel/libLowLevel.a(stm32f1xx_hal_msp.o)
 .debug_info    0x000000000001872c     0x10ec build/native/debug/lowLevel/libLowLevel.a(stm32f1xx_hal_can.o)
 .debug_info    0x0000000000019818      0x77f build/native/debug/lowLevel/libLowLevel.a(stm32f1xx_hal.o)
 .debug_info    0x0000000000019f97      0x8cb build/native/debug/lowLevel/libLowLevel.a(stm32f1xx_hal_rcc.o)
 .debug_info    0x000000000001a862      0xbf5 build/native/debug/lowLevel/libLowLevel.a(stm32f1xx_hal_cortex.o)
 .debug_info    0x000000000001b457      0x66d build/native/debug/lowLevel/libLowLevel.a(stm32f1xx_hal_gpio.o)
 .debug_info    0x000000000001bac4     0x2792 build/native/debug/lowLevel/libLowLevel.a(stm32f1xx_hal_i2c.o)
 .debug_info    0x000000000001e256      0x447 build/native/debug/lowLevel/libLowLevel.a(system_stm32f1xx.o)
 .debug_info    0x000000000001e69d       0x22 build/native/debug/lowLevel/libLowLevel.a(startup_stm32f103xb.o)
 .debug_info    0x000000000001e6bf      0x769 build/native/debug/lowLevel/libLowLevel.a(retarget.o)
 .debug_info    0x000000000001ee28     0x4e4f build/native/debug/lowLevel/libLowLevel.a(CAN.o)
 .debug_info    0x0000000000023c77      0xe9e build/native/debug/lowLevel/libLowLevel.a(Relais.o)
 .debug_info    0x0000000000024b15      0x40e build/native/debug/lowLevel/libLowLevel.a(LowLevel.o)
 .debug_info    0x0000000000024f23     0x4e71 build/native/debug/lowLevel/libLowLevel.a(TemperatureSensors.o)
 .debug_info    0x0000000000029d94      0x3cd build/native/debug/lowLevel/libLowLevel.a(clock.o)
 .debug_info    0x000000000002a161      0x2a4 build/native/debug/lowLevel/libLowLevel.a(delay_us.o)
 .debug_info    0x000000000002a405      0xab0 build/native/debug/lowLevel/libLowLevel.a(tm_stm32_onewire.o)

.debug_abbrev   0x0000000000000000     0x573e
 .debug_abbrev  0x0000000000000000      0xa39 build/native/debug/application/application.o
 .debug_abbrev  0x0000000000000a39      0xa25 build/native/debug/application/CAN.o
 .debug_abbrev  0x000000000000145e      0xa2d build/native/debug/application/CANRelais.o
 .debug_abbrev  0x0000000000001e8b      0xa5c build/native/debug/application/CANTemperatureSensors.o
 .debug_abbrev  0x00000000000028e7      0x1ee build/native/debug/lowLevel/libLowLevel.a(main.o)
 .debug_abbrev  0x0000000000002ad5       0x60 build/native/debug/lowLevel/libLowLevel.a(stm32f1xx_it.o)
 .debug_abbrev  0x0000000000002b35      0x18d build/native/debug/lowLevel/libLowLevel.a(stm32f1xx_hal_msp.o)
 .debug_abbrev  0x0000000000002cc2      0x1e5 build/native/debug/lowLevel/libLowLevel.a(stm32f1xx_hal_can.o)
 .debug_abbrev  0x0000000000002ea7      0x1da build/native/debug/lowLevel/libLowLevel.a(stm32f1xx_hal.o)
 .debug_abbrev  0x0000000000003081      0x25f build/native/debug/lowLevel/libLowLevel.a(stm32f1xx_hal_rcc.o)
 .debug_abbrev  0x00000000000032e0      0x2ca build/native/debug/lowLevel/libLowLevel.a(stm32f1xx_hal_cortex.o)
 .debug_abbrev  0x00000000000035aa      0x1ba build/native/debug/lowLevel/libLowLevel.a(stm32f1xx_hal_gpio.o)
 .debug_abbrev  0x0000000000003764      0x25b build/native/debug/lowLevel/libLowLevel.a(stm32f1xx_hal_i2c.o)
 .debug_abbrev  0x00000000000039bf      0x13a build/native/debug/lowLevel/libLowLevel.a(system_stm32f1xx.o)
 .debug_abbrev  0x0000000000003af9       0x12 build/native/debug/lowLevel/libLowLevel.a(startup_stm32f103xb.o)
 .debug_abbrev  0x0000000000003b0b      0x1d4 build/native/debug/lowLevel/libLowLevel.a(retarget.o)
 .debug_abbrev  0x0000000000003cdf      0x93e build/native/debug/lowLevel/libLowLevel.a(CAN.o)
 .debug_abbrev  0x000000000000461d      0x381 build/native/debug/lowLevel/libLowLevel.a(Relais.o)
 .debug_abbrev  0x000000000000499e       0xce build/native/debug/lowLevel/libLowLevel.a(LowLevel.o)
 .debug_abbrev  0x0000000000004a6c      0x8b8 build/native/debug/lowLevel/libLowLevel.a(TemperatureSensors.o)
 .debug_abbrev  0x0000000000005324       0xf6 build/native/debug/lowLevel/libLowLevel.a(clock.o)
 .debug_abbrev  0x000000000000541a       0xa6 build/native/debug/lowLevel/libLowLevel.a(delay_us.o)
 .debug_abbrev  0x00000000000054c0      0x27e build/native/debug/lowLevel/libLowLevel.a(tm_stm32_onewire.o)

.debug_loc      0x0000000000000000     0xa893
 .debug_loc     0x0000000000000000     0x15d6 build/native/debug/application/application.o
 .debug_loc     0x00000000000015d6      0xb5c build/native/debug/application/CAN.o
 .debug_loc     0x0000000000002132      0xe3e build/native/debug/application/CANRelais.o
 .debug_loc     0x0000000000002f70     0x1093 build/native/debug/application/CANTemperatureSensors.o
 .debug_loc     0x0000000000004003      0x16a build/native/debug/lowLevel/libLowLevel.a(main.o)
 .debug_loc     0x000000000000416d      0x1ec build/native/debug/lowLevel/libLowLevel.a(stm32f1xx_it.o)
 .debug_loc     0x0000000000004359      0x19c build/native/debug/lowLevel/libLowLevel.a(stm32f1xx_hal_msp.o)
 .debug_loc     0x00000000000044f5      0xcb4 build/native/debug/lowLevel/libLowLevel.a(stm32f1xx_hal_can.o)
 .debug_loc     0x00000000000051a9      0x698 build/native/debug/lowLevel/libLowLevel.a(stm32f1xx_hal.o)
 .debug_loc     0x0000000000005841      0x444 build/native/debug/lowLevel/libLowLevel.a(stm32f1xx_hal_rcc.o)
 .debug_loc     0x0000000000005c85      0x8f8 build/native/debug/lowLevel/libLowLevel.a(stm32f1xx_hal_cortex.o)
 .debug_loc     0x000000000000657d      0x2d4 build/native/debug/lowLevel/libLowLevel.a(stm32f1xx_hal_gpio.o)
 .debug_loc     0x0000000000006851     0x1a4a build/native/debug/lowLevel/libLowLevel.a(stm32f1xx_hal_i2c.o)
 .debug_loc     0x000000000000829b       0xa0 build/native/debug/lowLevel/libLowLevel.a(system_stm32f1xx.o)
 .debug_loc     0x000000000000833b       0xac build/native/debug/lowLevel/libLowLevel.a(retarget.o)
 .debug_loc     0x00000000000083e7      0xfde build/native/debug/lowLevel/libLowLevel.a(CAN.o)
 .debug_loc     0x00000000000093c5      0x344 build/native/debug/lowLevel/libLowLevel.a(Relais.o)
 .debug_loc     0x0000000000009709       0x2c build/native/debug/lowLevel/libLowLevel.a(LowLevel.o)
 .debug_loc     0x0000000000009735      0x8e6 build/native/debug/lowLevel/libLowLevel.a(TemperatureSensors.o)
 .debug_loc     0x000000000000a01b       0xe8 build/native/debug/lowLevel/libLowLevel.a(clock.o)
 .debug_loc     0x000000000000a103       0x44 build/native/debug/lowLevel/libLowLevel.a(delay_us.o)
 .debug_loc     0x000000000000a147      0x74c build/native/debug/lowLevel/libLowLevel.a(tm_stm32_onewire.o)

.debug_aranges  0x0000000000000000     0x1298
 .debug_aranges
                0x0000000000000000      0x230 build/native/debug/application/application.o
 .debug_aranges
                0x0000000000000230      0x130 build/native/debug/application/CAN.o
 .debug_aranges
                0x0000000000000360      0x170 build/native/debug/application/CANRelais.o
 .debug_aranges
                0x00000000000004d0      0x1a8 build/native/debug/application/CANTemperatureSensors.o
 .debug_aranges
                0x0000000000000678       0x48 build/native/debug/lowLevel/libLowLevel.a(main.o)
 .debug_aranges
                0x00000000000006c0       0x60 build/native/debug/lowLevel/libLowLevel.a(stm32f1xx_it.o)
 .debug_aranges
                0x0000000000000720       0x40 build/native/debug/lowLevel/libLowLevel.a(stm32f1xx_hal_msp.o)
 .debug_aranges
                0x0000000000000760      0x138 build/native/debug/lowLevel/libLowLevel.a(stm32f1xx_hal_can.o)
 .debug_aranges
                0x0000000000000898       0xe0 build/native/debug/lowLevel/libLowLevel.a(stm32f1xx_hal.o)
 .debug_aranges
                0x0000000000000978       0x90 build/native/debug/lowLevel/libLowLevel.a(stm32f1xx_hal_rcc.o)
 .debug_aranges
                0x0000000000000a08      0x100 build/native/debug/lowLevel/libLowLevel.a(stm32f1xx_hal_cortex.o)
 .debug_aranges
                0x0000000000000b08       0x58 build/native/debug/lowLevel/libLowLevel.a(stm32f1xx_hal_gpio.o)
 .debug_aranges
                0x0000000000000b60      0x290 build/native/debug/lowLevel/libLowLevel.a(stm32f1xx_hal_i2c.o)
 .debug_aranges
                0x0000000000000df0       0x28 build/native/debug/lowLevel/libLowLevel.a(system_stm32f1xx.o)
 .debug_aranges
                0x0000000000000e18       0x28 build/native/debug/lowLevel/libLowLevel.a(startup_stm32f103xb.o)
 .debug_aranges
                0x0000000000000e40       0x28 build/native/debug/lowLevel/libLowLevel.a(retarget.o)
 .debug_aranges
                0x0000000000000e68      0x198 build/native/debug/lowLevel/libLowLevel.a(CAN.o)
 .debug_aranges
                0x0000000000001000       0x68 build/native/debug/lowLevel/libLowLevel.a(Relais.o)
 .debug_aranges
                0x0000000000001068       0x20 build/native/debug/lowLevel/libLowLevel.a(LowLevel.o)
 .debug_aranges
                0x0000000000001088       0xf8 build/native/debug/lowLevel/libLowLevel.a(TemperatureSensors.o)
 .debug_aranges
                0x0000000000001180       0x30 build/native/debug/lowLevel/libLowLevel.a(clock.o)
 .debug_aranges
                0x00000000000011b0       0x20 build/native/debug/lowLevel/libLowLevel.a(delay_us.o)
 .debug_aranges
                0x00000000000011d0       0xc8 build/native/debug/lowLevel/libLowLevel.a(tm_stm32_onewire.o)

.debug_ranges   0x0000000000000000     0x1150
 .debug_ranges  0x0000000000000000      0x220 build/native/debug/application/application.o
 .debug_ranges  0x0000000000000220      0x120 build/native/debug/application/CAN.o
 .debug_ranges  0x0000000000000340      0x160 build/native/debug/application/CANRelais.o
 .debug_ranges  0x00000000000004a0      0x198 build/native/debug/application/CANTemperatureSensors.o
 .debug_ranges  0x0000000000000638       0x38 build/native/debug/lowLevel/libLowLevel.a(main.o)
 .debug_ranges  0x0000000000000670       0x50 build/native/debug/lowLevel/libLowLevel.a(stm32f1xx_it.o)
 .debug_ranges  0x00000000000006c0       0x30 build/native/debug/lowLevel/libLowLevel.a(stm32f1xx_hal_msp.o)
 .debug_ranges  0x00000000000006f0      0x128 build/native/debug/lowLevel/libLowLevel.a(stm32f1xx_hal_can.o)
 .debug_ranges  0x0000000000000818       0xd0 build/native/debug/lowLevel/libLowLevel.a(stm32f1xx_hal.o)
 .debug_ranges  0x00000000000008e8       0x80 build/native/debug/lowLevel/libLowLevel.a(stm32f1xx_hal_rcc.o)
 .debug_ranges  0x0000000000000968       0xf0 build/native/debug/lowLevel/libLowLevel.a(stm32f1xx_hal_cortex.o)
 .debug_ranges  0x0000000000000a58       0x48 build/native/debug/lowLevel/libLowLevel.a(stm32f1xx_hal_gpio.o)
 .debug_ranges  0x0000000000000aa0      0x2a0 build/native/debug/lowLevel/libLowLevel.a(stm32f1xx_hal_i2c.o)
 .debug_ranges  0x0000000000000d40       0x18 build/native/debug/lowLevel/libLowLevel.a(system_stm32f1xx.o)
 .debug_ranges  0x0000000000000d58       0x20 build/native/debug/lowLevel/libLowLevel.a(startup_stm32f103xb.o)
 .debug_ranges  0x0000000000000d78       0x18 build/native/debug/lowLevel/libLowLevel.a(retarget.o)
 .debug_ranges  0x0000000000000d90      0x188 build/native/debug/lowLevel/libLowLevel.a(CAN.o)
 .debug_ranges  0x0000000000000f18       0x58 build/native/debug/lowLevel/libLowLevel.a(Relais.o)
 .debug_ranges  0x0000000000000f70       0x10 build/native/debug/lowLevel/libLowLevel.a(LowLevel.o)
 .debug_ranges  0x0000000000000f80       0xe8 build/native/debug/lowLevel/libLowLevel.a(TemperatureSensors.o)
 .debug_ranges  0x0000000000001068       0x20 build/native/debug/lowLevel/libLowLevel.a(clock.o)
 .debug_ranges  0x0000000000001088       0x10 build/native/debug/lowLevel/libLowLevel.a(delay_us.o)
 .debug_ranges  0x0000000000001098       0xb8 build/native/debug/lowLevel/libLowLevel.a(tm_stm32_onewire.o)

.debug_line     0x0000000000000000     0xb6cb
 .debug_line    0x0000000000000000     0x1066 build/native/debug/application/application.o
 .debug_line    0x0000000000001066      0x8d1 build/native/debug/application/CAN.o
 .debug_line    0x0000000000001937      0x9e0 build/native/debug/application/CANRelais.o
 .debug_line    0x0000000000002317      0xb57 build/native/debug/application/CANTemperatureSensors.o
 .debug_line    0x0000000000002e6e      0x348 build/native/debug/lowLevel/libLowLevel.a(main.o)
 .debug_line    0x00000000000031b6      0x117 build/native/debug/lowLevel/libLowLevel.a(stm32f1xx_it.o)
 .debug_line    0x00000000000032cd      0x284 build/native/debug/lowLevel/libLowLevel.a(stm32f1xx_hal_msp.o)
 .debug_line    0x0000000000003551      0xc3d build/native/debug/lowLevel/libLowLevel.a(stm32f1xx_hal_can.o)
 .debug_line    0x000000000000418e      0x498 build/native/debug/lowLevel/libLowLevel.a(stm32f1xx_hal.o)
 .debug_line    0x0000000000004626      0x8c4 build/native/debug/lowLevel/libLowLevel.a(stm32f1xx_hal_rcc.o)
 .debug_line    0x0000000000004eea      0x618 build/native/debug/lowLevel/libLowLevel.a(stm32f1xx_hal_cortex.o)
 .debug_line    0x0000000000005502      0x4e7 build/native/debug/lowLevel/libLowLevel.a(stm32f1xx_hal_gpio.o)
 .debug_line    0x00000000000059e9     0x3282 build/native/debug/lowLevel/libLowLevel.a(stm32f1xx_hal_i2c.o)
 .debug_line    0x0000000000008c6b      0x231 build/native/debug/lowLevel/libLowLevel.a(system_stm32f1xx.o)
 .debug_line    0x0000000000008e9c       0x8e build/native/debug/lowLevel/libLowLevel.a(startup_stm32f103xb.o)
 .debug_line    0x0000000000008f2a      0x27e build/native/debug/lowLevel/libLowLevel.a(retarget.o)
 .debug_line    0x00000000000091a8      0xb12 build/native/debug/lowLevel/libLowLevel.a(CAN.o)
 .debug_line    0x0000000000009cba      0x498 build/native/debug/lowLevel/libLowLevel.a(Relais.o)
 .debug_line    0x000000000000a152      0x1ab build/native/debug/lowLevel/libLowLevel.a(LowLevel.o)
 .debug_line    0x000000000000a2fd      0x8d7 build/native/debug/lowLevel/libLowLevel.a(TemperatureSensors.o)
 .debug_line    0x000000000000abd4      0x296 build/native/debug/lowLevel/libLowLevel.a(clock.o)
 .debug_line    0x000000000000ae6a      0x11f build/native/debug/lowLevel/libLowLevel.a(delay_us.o)
 .debug_line    0x000000000000af89      0x742 build/native/debug/lowLevel/libLowLevel.a(tm_stm32_onewire.o)

.debug_str      0x0000000000000000     0xd265
 .debug_str     0x0000000000000000     0x5183 build/native/debug/application/application.o
                                       0x55af (size before relaxing)
 .debug_str     0x0000000000005183     0x175b build/native/debug/application/CAN.o
                                       0x338f (size before relaxing)
 .debug_str     0x00000000000068de      0x2f5 build/native/debug/application/CANRelais.o
                                       0x368c (size before relaxing)
 .debug_str     0x0000000000006bd3     0x1ed3 build/native/debug/application/CANTemperatureSensors.o
                                       0x4f2f (size before relaxing)
 .debug_str     0x0000000000008aa6      0x8d2 build/native/debug/lowLevel/libLowLevel.a(main.o)
                                        0xad9 (size before relaxing)
 .debug_str     0x0000000000009378       0xbf build/native/debug/lowLevel/libLowLevel.a(stm32f1xx_it.o)
                                        0x200 (size before relaxing)
 .debug_str     0x0000000000009437       0x89 build/native/debug/lowLevel/libLowLevel.a(stm32f1xx_hal_msp.o)
                                        0x997 (size before relaxing)
 .debug_str     0x00000000000094c0      0x54c build/native/debug/lowLevel/libLowLevel.a(stm32f1xx_hal_can.o)
                                        0xa21 (size before relaxing)
 .debug_str     0x0000000000009a0c      0x5b4 build/native/debug/lowLevel/libLowLevel.a(stm32f1xx_hal.o)
                                        0x7c1 (size before relaxing)
 .debug_str     0x0000000000009fc0      0x235 build/native/debug/lowLevel/libLowLevel.a(stm32f1xx_hal_rcc.o)
                                        0x5f3 (size before relaxing)
 .debug_str     0x000000000000a1f5      0x3e8 build/native/debug/lowLevel/libLowLevel.a(stm32f1xx_hal_cortex.o)
                                        0x8c2 (size before relaxing)
 .debug_str     0x000000000000a5dd      0x155 build/native/debug/lowLevel/libLowLevel.a(stm32f1xx_hal_gpio.o)
                                        0x3ef (size before relaxing)
 .debug_str     0x000000000000a732      0x87e build/native/debug/lowLevel/libLowLevel.a(stm32f1xx_hal_i2c.o)
                                        0xf20 (size before relaxing)
 .debug_str     0x000000000000afb0       0x66 build/native/debug/lowLevel/libLowLevel.a(system_stm32f1xx.o)
                                        0x29c (size before relaxing)
 .debug_str     0x000000000000b016       0x3e build/native/debug/lowLevel/libLowLevel.a(startup_stm32f103xb.o)
                                         0x63 (size before relaxing)
 .debug_str     0x000000000000b054       0x83 build/native/debug/lowLevel/libLowLevel.a(retarget.o)
                                        0x56c (size before relaxing)
 .debug_str     0x000000000000b0d7      0x2e2 build/native/debug/lowLevel/libLowLevel.a(CAN.o)
                                       0x304f (size before relaxing)
 .debug_str     0x000000000000b3b9      0x6be build/native/debug/lowLevel/libLowLevel.a(Relais.o)
                                        0xdb0 (size before relaxing)
 .debug_str     0x000000000000ba77       0x4f build/native/debug/lowLevel/libLowLevel.a(LowLevel.o)
                                        0x3ec (size before relaxing)
 .debug_str     0x000000000000bac6     0x13af build/native/debug/lowLevel/libLowLevel.a(TemperatureSensors.o)
                                       0x408c (size before relaxing)
 .debug_str     0x000000000000ce75       0x37 build/native/debug/lowLevel/libLowLevel.a(clock.o)
                                        0x5aa (size before relaxing)
 .debug_str     0x000000000000ceac       0xf0 build/native/debug/lowLevel/libLowLevel.a(delay_us.o)
                                        0x268 (size before relaxing)
 .debug_str     0x000000000000cf9c      0x2c9 build/native/debug/lowLevel/libLowLevel.a(tm_stm32_onewire.o)
                                        0x5eb (size before relaxing)

.comment        0x0000000000000000       0x1e
 .comment       0x0000000000000000       0x1e build/native/debug/application/application.o
                                         0x1f (size before relaxing)
 .comment       0x000000000000001e       0x1f build/native/debug/application/CAN.o
 .comment       0x000000000000001e       0x1f build/native/debug/application/CANRelais.o
 .comment       0x000000000000001e       0x1f build/native/debug/application/CANTemperatureSensors.o
 .comment       0x000000000000001e       0x1f build/native/debug/lowLevel/libLowLevel.a(main.o)
 .comment       0x000000000000001e       0x1f build/native/debug/lowLevel/libLowLevel.a(stm32f1xx_it.o)
 .comment       0x000000000000001e       0x1f build/native/debug/lowLevel/libLowLevel.a(stm32f1xx_hal_msp.o)
 .comment       0x000000000000001e       0x1f build/native/debug/lowLevel/libLowLevel.a(stm32f1xx_hal_can.o)
 .comment       0x000000000000001e       0x1f build/native/debug/lowLevel/libLowLevel.a(stm32f1xx_hal.o)
 .comment       0x000000000000001e       0x1f build/native/debug/lowLevel/libLowLevel.a(stm32f1xx_hal_rcc.o)
 .comment       0x000000000000001e       0x1f build/native/debug/lowLevel/libLowLevel.a(stm32f1xx_hal_cortex.o)
 .comment       0x000000000000001e       0x1f build/native/debug/lowLevel/libLowLevel.a(stm32f1xx_hal_gpio.o)
 .comment       0x000000000000001e       0x1f build/native/debug/lowLevel/libLowLevel.a(stm32f1xx_hal_i2c.o)
 .comment       0x000000000000001e       0x1f build/native/debug/lowLevel/libLowLevel.a(system_stm32f1xx.o)
 .comment       0x000000000000001e       0x1f build/native/debug/lowLevel/libLowLevel.a(retarget.o)
 .comment       0x000000000000001e       0x1f build/native/debug/lowLevel/libLowLevel.a(CAN.o)
 .comment       0x000000000000001e       0x1f build/native/debug/lowLevel/libLowLevel.a(Relais.o)
 .comment       0x000000000000001e       0x1f build/native/debug/lowLevel/libLowLevel.a(LowLevel.o)
 .comment       0x000000000000001e       0x1f build/native/debug/lowLevel/libLowLevel.a(TemperatureSensors.o)
 .comment       0x000000000000001e       0x1f build/native/debug/lowLevel/libLowLevel.a(clock.o)
 .comment       0x000000000000001e       0x1f build/native/debug/lowLevel/libLowLevel.a(delay_us.o)
 .comment       0x000000000000001e       0x1f build/native/debug/lowLevel/libLowLevel.a(tm_stm32_onewire.o)

.debug_frame    0x0000000000000000     0x57e0
 .debug_frame   0x0000000000000000      0xa10 build/native/debug/application/application.o
 .debug_frame   0x0000000000000a10      0x538 build/native/debug/application/CAN.o
 .debug_frame   0x0000000000000f48      0x684 build/native/debug/application/CANRelais.o
 .debug_frame   0x00000000000015cc      0x794 build/native/debug/application/CANTemperatureSensors.o
 .debug_frame   0x0000000000001d60       0xcc build/native/debug/lowLevel/libLowLevel.a(main.o)
 .debug_frame   0x0000000000001e2c      0x10c build/native/debug/lowLevel/libLowLevel.a(stm32f1xx_it.o)
 .debug_frame   0x0000000000001f38       0xc8 build/native/debug/lowLevel/libLowLevel.a(stm32f1xx_hal_msp.o)
 .debug_frame   0x0000000000002000      0x5a0 build/native/debug/lowLevel/libLowLevel.a(stm32f1xx_hal_can.o)
 .debug_frame   0x00000000000025a0      0x334 build/native/debug/lowLevel/libLowLevel.a(stm32f1xx_hal.o)
 .debug_frame   0x00000000000028d4      0x21c build/native/debug/lowLevel/libLowLevel.a(stm32f1xx_hal_rcc.o)
 .debug_frame   0x0000000000002af0      0x428 build/native/debug/lowLevel/libLowLevel.a(stm32f1xx_hal_cortex.o)
 .debug_frame   0x0000000000002f18      0x14c build/native/debug/lowLevel/libLowLevel.a(stm32f1xx_hal_gpio.o)
 .debug_frame   0x0000000000003064      0xc08 build/native/debug/lowLevel/libLowLevel.a(stm32f1xx_hal_i2c.o)
 .debug_frame   0x0000000000003c6c       0x58 build/native/debug/lowLevel/libLowLevel.a(system_stm32f1xx.o)
 .debug_frame   0x0000000000003cc4       0x60 build/native/debug/lowLevel/libLowLevel.a(retarget.o)
 .debug_frame   0x0000000000003d24      0x740 build/native/debug/lowLevel/libLowLevel.a(CAN.o)
 .debug_frame   0x0000000000004464      0x18c build/native/debug/lowLevel/libLowLevel.a(Relais.o)
 .debug_frame   0x00000000000045f0       0x2c build/native/debug/lowLevel/libLowLevel.a(LowLevel.o)
 .debug_frame   0x000000000000461c      0x414 build/native/debug/lowLevel/libLowLevel.a(TemperatureSensors.o)
 .debug_frame   0x0000000000004a30       0x78 build/native/debug/lowLevel/libLowLevel.a(clock.o)
 .debug_frame   0x0000000000004aa8       0x30 build/native/debug/lowLevel/libLowLevel.a(delay_us.o)
 .debug_frame   0x0000000000004ad8      0x34c build/native/debug/lowLevel/libLowLevel.a(tm_stm32_onewire.o)
 .debug_frame   0x0000000000004e24       0x20 /usr/lib/gcc/arm-none-eabi/10.1.0/../../../../arm-none-eabi/lib/thumb/v7-m/nofp/libstdc++_nano.a(atexit_arm.o)
 .debug_frame   0x0000000000004e44       0xd8 /usr/lib/gcc/arm-none-eabi/10.1.0/../../../../arm-none-eabi/lib/thumb/v7-m/nofp/libstdc++_nano.a(class_type_info.o)
 .debug_frame   0x0000000000004f1c       0x20 /usr/lib/gcc/arm-none-eabi/10.1.0/../../../../arm-none-eabi/lib/thumb/v7-m/nofp/libstdc++_nano.a(del_ops.o)
 .debug_frame   0x0000000000004f3c       0x40 /usr/lib/gcc/arm-none-eabi/10.1.0/../../../../arm-none-eabi/lib/thumb/v7-m/nofp/libstdc++_nano.a(pure.o)
 .debug_frame   0x0000000000004f7c       0xd4 /usr/lib/gcc/arm-none-eabi/10.1.0/../../../../arm-none-eabi/lib/thumb/v7-m/nofp/libstdc++_nano.a(si_class_type_info.o)
 .debug_frame   0x0000000000005050       0x80 /usr/lib/gcc/arm-none-eabi/10.1.0/../../../../arm-none-eabi/lib/thumb/v7-m/nofp/libstdc++_nano.a(tinfo.o)
 .debug_frame   0x00000000000050d0       0x48 /usr/lib/gcc/arm-none-eabi/10.1.0/../../../../arm-none-eabi/lib/thumb/v7-m/nofp/libstdc++_nano.a(chrono.o)
 .debug_frame   0x0000000000005118       0x20 /usr/lib/gcc/arm-none-eabi/10.1.0/../../../../arm-none-eabi/lib/thumb/v7-m/nofp/libstdc++_nano.a(del_op.o)
 .debug_frame   0x0000000000005138       0xb0 /usr/lib/gcc/arm-none-eabi/10.1.0/../../../../arm-none-eabi/lib/thumb/v7-m/nofp/libstdc++_nano.a(eh_terminate.o)
 .debug_frame   0x00000000000051e8       0x28 /usr/lib/gcc/arm-none-eabi/10.1.0/../../../../arm-none-eabi/lib/thumb/v7-m/nofp/libc_nano.a(lib_a-abort.o)
 .debug_frame   0x0000000000005210       0x28 /usr/lib/gcc/arm-none-eabi/10.1.0/../../../../arm-none-eabi/lib/thumb/v7-m/nofp/libc_nano.a(lib_a-cxa_atexit.o)
 .debug_frame   0x0000000000005238       0x2c /usr/lib/gcc/arm-none-eabi/10.1.0/../../../../arm-none-eabi/lib/thumb/v7-m/nofp/libc_nano.a(lib_a-init.o)
 .debug_frame   0x0000000000005264       0x30 /usr/lib/gcc/arm-none-eabi/10.1.0/../../../../arm-none-eabi/lib/thumb/v7-m/nofp/libc_nano.a(lib_a-malloc.o)
 .debug_frame   0x0000000000005294       0x28 /usr/lib/gcc/arm-none-eabi/10.1.0/../../../../arm-none-eabi/lib/thumb/v7-m/nofp/libc_nano.a(lib_a-memcpy-stub.o)
 .debug_frame   0x00000000000052bc       0x28 /usr/lib/gcc/arm-none-eabi/10.1.0/../../../../arm-none-eabi/lib/thumb/v7-m/nofp/libc_nano.a(lib_a-memmove.o)
 .debug_frame   0x00000000000052e4       0x20 /usr/lib/gcc/arm-none-eabi/10.1.0/../../../../arm-none-eabi/lib/thumb/v7-m/nofp/libc_nano.a(lib_a-memset.o)
 .debug_frame   0x0000000000005304       0x38 /usr/lib/gcc/arm-none-eabi/10.1.0/../../../../arm-none-eabi/lib/thumb/v7-m/nofp/libc_nano.a(lib_a-nano-freer.o)
 .debug_frame   0x000000000000533c       0x30 /usr/lib/gcc/arm-none-eabi/10.1.0/../../../../arm-none-eabi/lib/thumb/v7-m/nofp/libc_nano.a(lib_a-nano-mallocr.o)
 .debug_frame   0x000000000000536c       0x2c /usr/lib/gcc/arm-none-eabi/10.1.0/../../../../arm-none-eabi/lib/thumb/v7-m/nofp/libc_nano.a(lib_a-sbrkr.o)
 .debug_frame   0x0000000000005398       0xcc /usr/lib/gcc/arm-none-eabi/10.1.0/../../../../arm-none-eabi/lib/thumb/v7-m/nofp/libc_nano.a(lib_a-signal.o)
 .debug_frame   0x0000000000005464       0x3c /usr/lib/gcc/arm-none-eabi/10.1.0/../../../../arm-none-eabi/lib/thumb/v7-m/nofp/libc_nano.a(lib_a-signalr.o)
 .debug_frame   0x00000000000054a0       0x20 /usr/lib/gcc/arm-none-eabi/10.1.0/../../../../arm-none-eabi/lib/thumb/v7-m/nofp/libc_nano.a(lib_a-strcmp.o)
 .debug_frame   0x00000000000054c0       0x20 /usr/lib/gcc/arm-none-eabi/10.1.0/../../../../arm-none-eabi/lib/thumb/v7-m/nofp/libc_nano.a(lib_a-syswrite.o)
 .debug_frame   0x00000000000054e0       0x2c /usr/lib/gcc/arm-none-eabi/10.1.0/../../../../arm-none-eabi/lib/thumb/v7-m/nofp/libc_nano.a(lib_a-writer.o)
 .debug_frame   0x000000000000550c       0x34 /usr/lib/gcc/arm-none-eabi/10.1.0/../../../../arm-none-eabi/lib/thumb/v7-m/nofp/libc_nano.a(lib_a-__atexit.o)
 .debug_frame   0x0000000000005540       0x48 /usr/lib/gcc/arm-none-eabi/10.1.0/../../../../arm-none-eabi/lib/thumb/v7-m/nofp/libc_nano.a(lib_a-__call_atexit.o)
 .debug_frame   0x0000000000005588       0xb0 /usr/lib/gcc/arm-none-eabi/10.1.0/../../../../arm-none-eabi/lib/thumb/v7-m/nofp/libc_nano.a(lib_a-lock.o)
 .debug_frame   0x0000000000005638       0x30 /usr/lib/gcc/arm-none-eabi/10.1.0/../../../../arm-none-eabi/lib/thumb/v7-m/nofp/libc_nano.a(lib_a-mlock.o)
 .debug_frame   0x0000000000005668       0x5c /usr/lib/gcc/arm-none-eabi/10.1.0/../../../../arm-none-eabi/lib/thumb/v7-m/nofp/libc_nano.a(lib_a-reent.o)
 .debug_frame   0x00000000000056c4       0x44 /usr/lib/gcc/arm-none-eabi/10.1.0/thumb/v7-m/nofp/libgcc.a(_aeabi_ldivmod.o)
 .debug_frame   0x0000000000005708       0x38 /usr/lib/gcc/arm-none-eabi/10.1.0/thumb/v7-m/nofp/libgcc.a(_udivmoddi4.o)
 .debug_frame   0x0000000000005740       0x20 /usr/lib/gcc/arm-none-eabi/10.1.0/../../../../arm-none-eabi/lib/thumb/v7-m/nofp/libnosys.a(getpid.o)
 .debug_frame   0x0000000000005760       0x20 /usr/lib/gcc/arm-none-eabi/10.1.0/../../../../arm-none-eabi/lib/thumb/v7-m/nofp/libnosys.a(kill.o)
 .debug_frame   0x0000000000005780       0x20 /usr/lib/gcc/arm-none-eabi/10.1.0/../../../../arm-none-eabi/lib/thumb/v7-m/nofp/libnosys.a(sbrk.o)
 .debug_frame   0x00000000000057a0       0x20 /usr/lib/gcc/arm-none-eabi/10.1.0/../../../../arm-none-eabi/lib/thumb/v7-m/nofp/libnosys.a(write.o)
 .debug_frame   0x00000000000057c0       0x20 /usr/lib/gcc/arm-none-eabi/10.1.0/../../../../arm-none-eabi/lib/thumb/v7-m/nofp/libnosys.a(_exit.o)

.stab           0x0000000000000000       0x54
 .stab          0x0000000000000000       0x24 /usr/lib/gcc/arm-none-eabi/10.1.0/../../../../arm-none-eabi/lib/thumb/v7-m/nofp/libnosys.a(getpid.o)
 .stab          0x0000000000000024       0x18 /usr/lib/gcc/arm-none-eabi/10.1.0/../../../../arm-none-eabi/lib/thumb/v7-m/nofp/libnosys.a(kill.o)
                                         0x24 (size before relaxing)
 .stab          0x000000000000003c       0x18 /usr/lib/gcc/arm-none-eabi/10.1.0/../../../../arm-none-eabi/lib/thumb/v7-m/nofp/libnosys.a(write.o)
                                         0x24 (size before relaxing)

.stabstr        0x0000000000000000       0xac
 .stabstr       0x0000000000000000       0xac /usr/lib/gcc/arm-none-eabi/10.1.0/../../../../arm-none-eabi/lib/thumb/v7-m/nofp/libnosys.a(getpid.o)

Cross Reference Table

Symbol                                            File
ADC1_2_IRQHandler                                 build/native/debug/lowLevel/libLowLevel.a(startup_stm32f103xb.o)
AHBPrescTable                                     build/native/debug/lowLevel/libLowLevel.a(system_stm32f1xx.o)
                                                  build/native/debug/lowLevel/libLowLevel.a(stm32f1xx_hal_rcc.o)
APBPrescTable                                     build/native/debug/lowLevel/libLowLevel.a(system_stm32f1xx.o)
                                                  build/native/debug/lowLevel/libLowLevel.a(stm32f1xx_hal_rcc.o)
BusFault_Handler                                  build/native/debug/lowLevel/libLowLevel.a(stm32f1xx_it.o)
CAN1_RX1_IRQHandler                               build/native/debug/lowLevel/libLowLevel.a(startup_stm32f103xb.o)
CAN1_SCE_IRQHandler                               build/native/debug/lowLevel/libLowLevel.a(startup_stm32f103xb.o)
CANReceiverReceiver::CANReceiverReceiver(message::ReceiverQueue&) build/native/debug/application/CAN.o
CANReceiverReceiver::CANReceiverReceiver(message::ReceiverQueue&) build/native/debug/application/CAN.o
CANReceiverReceiver::receive(message::Message<application::CAN::data_t>&) build/native/debug/application/CANRelais.o
CANTemperatureSensors::Receiver::Receiver(message::ReceiverQueue&) build/native/debug/application/application.o
CANTemperatureSensors::Receiver::Receiver(message::ReceiverQueue&) build/native/debug/application/application.o
CANTemperatureSensors::Receiver::init()           build/native/debug/application/CANTemperatureSensors.o
                                                  build/native/debug/application/application.o
CANTemperatureSensors::Receiver::receive(message::Message<int>&) build/native/debug/application/CANTemperatureSensors.o
DMA1_Channel1_IRQHandler                          build/native/debug/lowLevel/libLowLevel.a(startup_stm32f103xb.o)
DMA1_Channel2_IRQHandler                          build/native/debug/lowLevel/libLowLevel.a(startup_stm32f103xb.o)
DMA1_Channel3_IRQHandler                          build/native/debug/lowLevel/libLowLevel.a(startup_stm32f103xb.o)
DMA1_Channel4_IRQHandler                          build/native/debug/lowLevel/libLowLevel.a(startup_stm32f103xb.o)
DMA1_Channel5_IRQHandler                          build/native/debug/lowLevel/libLowLevel.a(startup_stm32f103xb.o)
DMA1_Channel6_IRQHandler                          build/native/debug/lowLevel/libLowLevel.a(startup_stm32f103xb.o)
DMA1_Channel7_IRQHandler                          build/native/debug/lowLevel/libLowLevel.a(startup_stm32f103xb.o)
DWT_Delay_Init                                    build/native/debug/lowLevel/libLowLevel.a(delay_us.o)
                                                  build/native/debug/lowLevel/libLowLevel.a(tm_stm32_onewire.o)
DebugMon_Handler                                  build/native/debug/lowLevel/libLowLevel.a(stm32f1xx_it.o)
Default_Handler                                   build/native/debug/lowLevel/libLowLevel.a(startup_stm32f103xb.o)
EXTI0_IRQHandler                                  build/native/debug/lowLevel/libLowLevel.a(startup_stm32f103xb.o)
EXTI15_10_IRQHandler                              build/native/debug/lowLevel/libLowLevel.a(startup_stm32f103xb.o)
EXTI1_IRQHandler                                  build/native/debug/lowLevel/libLowLevel.a(startup_stm32f103xb.o)
EXTI2_IRQHandler                                  build/native/debug/lowLevel/libLowLevel.a(startup_stm32f103xb.o)
EXTI3_IRQHandler                                  build/native/debug/lowLevel/libLowLevel.a(startup_stm32f103xb.o)
EXTI4_IRQHandler                                  build/native/debug/lowLevel/libLowLevel.a(startup_stm32f103xb.o)
EXTI9_5_IRQHandler                                build/native/debug/lowLevel/libLowLevel.a(startup_stm32f103xb.o)
Error_Handler                                     build/native/debug/lowLevel/libLowLevel.a(main.o)
FLASH_IRQHandler                                  build/native/debug/lowLevel/libLowLevel.a(startup_stm32f103xb.o)
FLASH_PageErase                                   build/native/debug/lowLevel/libLowLevel.a(stm32f1xx_hal_flash_ex.o)
                                                  build/native/debug/lowLevel/libLowLevel.a(stm32f1xx_hal_flash.o)
FLASH_WaitForLastOperation                        build/native/debug/lowLevel/libLowLevel.a(stm32f1xx_hal_flash.o)
                                                  build/native/debug/lowLevel/libLowLevel.a(stm32f1xx_hal_flash_ex.o)
HAL_CAN_AbortTxRequest                            build/native/debug/lowLevel/libLowLevel.a(stm32f1xx_hal_can.o)
HAL_CAN_ActivateNotification                      build/native/debug/lowLevel/libLowLevel.a(stm32f1xx_hal_can.o)
                                                  build/native/debug/lowLevel/libLowLevel.a(CAN.o)
HAL_CAN_AddTxMessage                              build/native/debug/lowLevel/libLowLevel.a(stm32f1xx_hal_can.o)
                                                  build/native/debug/lowLevel/libLowLevel.a(CAN.o)
HAL_CAN_ConfigFilter                              build/native/debug/lowLevel/libLowLevel.a(stm32f1xx_hal_can.o)
                                                  build/native/debug/lowLevel/libLowLevel.a(CAN.o)
HAL_CAN_DeInit                                    build/native/debug/lowLevel/libLowLevel.a(stm32f1xx_hal_can.o)
HAL_CAN_DeactivateNotification                    build/native/debug/lowLevel/libLowLevel.a(stm32f1xx_hal_can.o)
HAL_CAN_ErrorCallback                             build/native/debug/lowLevel/libLowLevel.a(stm32f1xx_hal_can.o)
HAL_CAN_GetError                                  build/native/debug/lowLevel/libLowLevel.a(stm32f1xx_hal_can.o)
HAL_CAN_GetRxFifoFillLevel                        build/native/debug/lowLevel/libLowLevel.a(stm32f1xx_hal_can.o)
HAL_CAN_GetRxMessage                              build/native/debug/lowLevel/libLowLevel.a(stm32f1xx_hal_can.o)
                                                  build/native/debug/lowLevel/libLowLevel.a(CAN.o)
HAL_CAN_GetState                                  build/native/debug/lowLevel/libLowLevel.a(stm32f1xx_hal_can.o)
HAL_CAN_GetTxMailboxesFreeLevel                   build/native/debug/lowLevel/libLowLevel.a(stm32f1xx_hal_can.o)
HAL_CAN_GetTxTimestamp                            build/native/debug/lowLevel/libLowLevel.a(stm32f1xx_hal_can.o)
HAL_CAN_IRQHandler                                build/native/debug/lowLevel/libLowLevel.a(stm32f1xx_hal_can.o)
HAL_CAN_Init                                      build/native/debug/lowLevel/libLowLevel.a(stm32f1xx_hal_can.o)
                                                  build/native/debug/lowLevel/libLowLevel.a(main.o)
HAL_CAN_IsSleepActive                             build/native/debug/lowLevel/libLowLevel.a(stm32f1xx_hal_can.o)
HAL_CAN_IsTxMessagePending                        build/native/debug/lowLevel/libLowLevel.a(stm32f1xx_hal_can.o)
HAL_CAN_MspDeInit                                 build/native/debug/lowLevel/libLowLevel.a(stm32f1xx_hal_msp.o)
HAL_CAN_MspInit                                   build/native/debug/lowLevel/libLowLevel.a(stm32f1xx_hal_msp.o)
HAL_CAN_RequestSleep                              build/native/debug/lowLevel/libLowLevel.a(stm32f1xx_hal_can.o)
HAL_CAN_ResetError                                build/native/debug/lowLevel/libLowLevel.a(stm32f1xx_hal_can.o)
HAL_CAN_RxFifo0FullCallback                       build/native/debug/lowLevel/libLowLevel.a(stm32f1xx_hal_can.o)
HAL_CAN_RxFifo0MsgPendingCallback                 build/native/debug/lowLevel/libLowLevel.a(CAN.o)
                                                  build/native/debug/lowLevel/libLowLevel.a(stm32f1xx_hal_can.o)
HAL_CAN_RxFifo1FullCallback                       build/native/debug/lowLevel/libLowLevel.a(stm32f1xx_hal_can.o)
HAL_CAN_RxFifo1MsgPendingCallback                 build/native/debug/lowLevel/libLowLevel.a(stm32f1xx_hal_can.o)
HAL_CAN_SleepCallback                             build/native/debug/lowLevel/libLowLevel.a(stm32f1xx_hal_can.o)
HAL_CAN_Start                                     build/native/debug/lowLevel/libLowLevel.a(stm32f1xx_hal_can.o)
                                                  build/native/debug/lowLevel/libLowLevel.a(CAN.o)
HAL_CAN_Stop                                      build/native/debug/lowLevel/libLowLevel.a(stm32f1xx_hal_can.o)
HAL_CAN_TxMailbox0AbortCallback                   build/native/debug/lowLevel/libLowLevel.a(stm32f1xx_hal_can.o)
HAL_CAN_TxMailbox0CompleteCallback                build/native/debug/lowLevel/libLowLevel.a(stm32f1xx_hal_can.o)
HAL_CAN_TxMailbox1AbortCallback                   build/native/debug/lowLevel/libLowLevel.a(stm32f1xx_hal_can.o)
HAL_CAN_TxMailbox1CompleteCallback                build/native/debug/lowLevel/libLowLevel.a(stm32f1xx_hal_can.o)
HAL_CAN_TxMailbox2AbortCallback                   build/native/debug/lowLevel/libLowLevel.a(stm32f1xx_hal_can.o)
HAL_CAN_TxMailbox2CompleteCallback                build/native/debug/lowLevel/libLowLevel.a(stm32f1xx_hal_can.o)
HAL_CAN_WakeUp                                    build/native/debug/lowLevel/libLowLevel.a(stm32f1xx_hal_can.o)
HAL_CAN_WakeUpFromRxMsgCallback                   build/native/debug/lowLevel/libLowLevel.a(stm32f1xx_hal_can.o)
HAL_DBGMCU_DisableDBGSleepMode                    build/native/debug/lowLevel/libLowLevel.a(stm32f1xx_hal.o)
HAL_DBGMCU_DisableDBGStandbyMode                  build/native/debug/lowLevel/libLowLevel.a(stm32f1xx_hal.o)
HAL_DBGMCU_DisableDBGStopMode                     build/native/debug/lowLevel/libLowLevel.a(stm32f1xx_hal.o)
HAL_DBGMCU_EnableDBGSleepMode                     build/native/debug/lowLevel/libLowLevel.a(stm32f1xx_hal.o)
HAL_DBGMCU_EnableDBGStandbyMode                   build/native/debug/lowLevel/libLowLevel.a(stm32f1xx_hal.o)
HAL_DBGMCU_EnableDBGStopMode                      build/native/debug/lowLevel/libLowLevel.a(stm32f1xx_hal.o)
HAL_DMA_Abort                                     build/native/debug/lowLevel/libLowLevel.a(stm32f1xx_hal_dma.o)
HAL_DMA_Abort_IT                                  build/native/debug/lowLevel/libLowLevel.a(stm32f1xx_hal_dma.o)
                                                  build/native/debug/lowLevel/libLowLevel.a(stm32f1xx_hal_i2c.o)
HAL_DMA_DeInit                                    build/native/debug/lowLevel/libLowLevel.a(stm32f1xx_hal_dma.o)
HAL_DMA_GetError                                  build/native/debug/lowLevel/libLowLevel.a(stm32f1xx_hal_dma.o)
HAL_DMA_GetState                                  build/native/debug/lowLevel/libLowLevel.a(stm32f1xx_hal_dma.o)
                                                  build/native/debug/lowLevel/libLowLevel.a(stm32f1xx_hal_i2c.o)
HAL_DMA_IRQHandler                                build/native/debug/lowLevel/libLowLevel.a(stm32f1xx_hal_dma.o)
HAL_DMA_Init                                      build/native/debug/lowLevel/libLowLevel.a(stm32f1xx_hal_dma.o)
HAL_DMA_PollForTransfer                           build/native/debug/lowLevel/libLowLevel.a(stm32f1xx_hal_dma.o)
HAL_DMA_RegisterCallback                          build/native/debug/lowLevel/libLowLevel.a(stm32f1xx_hal_dma.o)
HAL_DMA_Start                                     build/native/debug/lowLevel/libLowLevel.a(stm32f1xx_hal_dma.o)
HAL_DMA_Start_IT                                  build/native/debug/lowLevel/libLowLevel.a(stm32f1xx_hal_dma.o)
                                                  build/native/debug/lowLevel/libLowLevel.a(stm32f1xx_hal_i2c.o)
HAL_DMA_UnRegisterCallback                        build/native/debug/lowLevel/libLowLevel.a(stm32f1xx_hal_dma.o)
HAL_DeInit                                        build/native/debug/lowLevel/libLowLevel.a(stm32f1xx_hal.o)
HAL_Delay                                         build/native/debug/lowLevel/libLowLevel.a(stm32f1xx_hal.o)
HAL_EXTI_ClearConfigLine                          build/native/debug/lowLevel/libLowLevel.a(stm32f1xx_hal_exti.o)
HAL_EXTI_ClearPending                             build/native/debug/lowLevel/libLowLevel.a(stm32f1xx_hal_exti.o)
HAL_EXTI_GenerateSWI                              build/native/debug/lowLevel/libLowLevel.a(stm32f1xx_hal_exti.o)
HAL_EXTI_GetConfigLine                            build/native/debug/lowLevel/libLowLevel.a(stm32f1xx_hal_exti.o)
HAL_EXTI_GetHandle                                build/native/debug/lowLevel/libLowLevel.a(stm32f1xx_hal_exti.o)
HAL_EXTI_GetPending                               build/native/debug/lowLevel/libLowLevel.a(stm32f1xx_hal_exti.o)
HAL_EXTI_IRQHandler                               build/native/debug/lowLevel/libLowLevel.a(stm32f1xx_hal_exti.o)
HAL_EXTI_RegisterCallback                         build/native/debug/lowLevel/libLowLevel.a(stm32f1xx_hal_exti.o)
HAL_EXTI_SetConfigLine                            build/native/debug/lowLevel/libLowLevel.a(stm32f1xx_hal_exti.o)
HAL_FLASHEx_Erase                                 build/native/debug/lowLevel/libLowLevel.a(stm32f1xx_hal_flash_ex.o)
HAL_FLASHEx_Erase_IT                              build/native/debug/lowLevel/libLowLevel.a(stm32f1xx_hal_flash_ex.o)
HAL_FLASHEx_OBErase                               build/native/debug/lowLevel/libLowLevel.a(stm32f1xx_hal_flash_ex.o)
HAL_FLASHEx_OBGetConfig                           build/native/debug/lowLevel/libLowLevel.a(stm32f1xx_hal_flash_ex.o)
HAL_FLASHEx_OBGetUserData                         build/native/debug/lowLevel/libLowLevel.a(stm32f1xx_hal_flash_ex.o)
HAL_FLASHEx_OBProgram                             build/native/debug/lowLevel/libLowLevel.a(stm32f1xx_hal_flash_ex.o)
HAL_FLASH_EndOfOperationCallback                  build/native/debug/lowLevel/libLowLevel.a(stm32f1xx_hal_flash.o)
HAL_FLASH_GetError                                build/native/debug/lowLevel/libLowLevel.a(stm32f1xx_hal_flash.o)
HAL_FLASH_IRQHandler                              build/native/debug/lowLevel/libLowLevel.a(stm32f1xx_hal_flash.o)
HAL_FLASH_Lock                                    build/native/debug/lowLevel/libLowLevel.a(stm32f1xx_hal_flash.o)
HAL_FLASH_OB_Launch                               build/native/debug/lowLevel/libLowLevel.a(stm32f1xx_hal_flash.o)
HAL_FLASH_OB_Lock                                 build/native/debug/lowLevel/libLowLevel.a(stm32f1xx_hal_flash.o)
HAL_FLASH_OB_Unlock                               build/native/debug/lowLevel/libLowLevel.a(stm32f1xx_hal_flash.o)
HAL_FLASH_OperationErrorCallback                  build/native/debug/lowLevel/libLowLevel.a(stm32f1xx_hal_flash.o)
HAL_FLASH_Program                                 build/native/debug/lowLevel/libLowLevel.a(stm32f1xx_hal_flash.o)
HAL_FLASH_Program_IT                              build/native/debug/lowLevel/libLowLevel.a(stm32f1xx_hal_flash.o)
HAL_FLASH_Unlock                                  build/native/debug/lowLevel/libLowLevel.a(stm32f1xx_hal_flash.o)
HAL_GPIOEx_ConfigEventout                         build/native/debug/lowLevel/libLowLevel.a(stm32f1xx_hal_gpio_ex.o)
HAL_GPIOEx_DisableEventout                        build/native/debug/lowLevel/libLowLevel.a(stm32f1xx_hal_gpio_ex.o)
HAL_GPIOEx_EnableEventout                         build/native/debug/lowLevel/libLowLevel.a(stm32f1xx_hal_gpio_ex.o)
HAL_GPIO_DeInit                                   build/native/debug/lowLevel/libLowLevel.a(stm32f1xx_hal_gpio.o)
                                                  build/native/debug/lowLevel/libLowLevel.a(stm32f1xx_hal_msp.o)
HAL_GPIO_EXTI_Callback                            build/native/debug/lowLevel/libLowLevel.a(stm32f1xx_hal_gpio.o)
HAL_GPIO_EXTI_IRQHandler                          build/native/debug/lowLevel/libLowLevel.a(stm32f1xx_hal_gpio.o)
HAL_GPIO_Init                                     build/native/debug/lowLevel/libLowLevel.a(stm32f1xx_hal_gpio.o)
                                                  build/native/debug/lowLevel/libLowLevel.a(tm_stm32_onewire.o)
                                                  build/native/debug/lowLevel/libLowLevel.a(Relais.o)
                                                  build/native/debug/lowLevel/libLowLevel.a(stm32f1xx_hal_rcc.o)
                                                  build/native/debug/lowLevel/libLowLevel.a(stm32f1xx_hal_msp.o)
                                                  build/native/debug/lowLevel/libLowLevel.a(main.o)
HAL_GPIO_LockPin                                  build/native/debug/lowLevel/libLowLevel.a(stm32f1xx_hal_gpio.o)
HAL_GPIO_ReadPin                                  build/native/debug/lowLevel/libLowLevel.a(stm32f1xx_hal_gpio.o)
                                                  build/native/debug/lowLevel/libLowLevel.a(tm_stm32_onewire.o)
                                                  build/native/debug/lowLevel/libLowLevel.a(Relais.o)
HAL_GPIO_TogglePin                                build/native/debug/lowLevel/libLowLevel.a(stm32f1xx_hal_gpio.o)
HAL_GPIO_WritePin                                 build/native/debug/lowLevel/libLowLevel.a(stm32f1xx_hal_gpio.o)
                                                  build/native/debug/lowLevel/libLowLevel.a(Relais.o)
                                                  build/native/debug/lowLevel/libLowLevel.a(main.o)
HAL_GetDEVID                                      build/native/debug/lowLevel/libLowLevel.a(stm32f1xx_hal.o)
HAL_GetHalVersion                                 build/native/debug/lowLevel/libLowLevel.a(stm32f1xx_hal.o)
HAL_GetREVID                                      build/native/debug/lowLevel/libLowLevel.a(stm32f1xx_hal.o)
HAL_GetTick                                       build/native/debug/lowLevel/libLowLevel.a(stm32f1xx_hal.o)
                                                  build/native/debug/lowLevel/libLowLevel.a(retarget.o)
                                                  build/native/debug/lowLevel/libLowLevel.a(stm32f1xx_hal_i2c.o)
                                                  build/native/debug/lowLevel/libLowLevel.a(stm32f1xx_hal_dma.o)
                                                  build/native/debug/lowLevel/libLowLevel.a(stm32f1xx_hal_flash.o)
                                                  build/native/debug/lowLevel/libLowLevel.a(stm32f1xx_hal_rcc_ex.o)
                                                  build/native/debug/lowLevel/libLowLevel.a(stm32f1xx_hal_rcc.o)
                                                  build/native/debug/lowLevel/libLowLevel.a(stm32f1xx_hal_can.o)
HAL_GetTickFreq                                   build/native/debug/lowLevel/libLowLevel.a(stm32f1xx_hal.o)
HAL_GetTickPrio                                   build/native/debug/lowLevel/libLowLevel.a(stm32f1xx_hal.o)
HAL_GetUIDw0                                      build/native/debug/lowLevel/libLowLevel.a(stm32f1xx_hal.o)
HAL_GetUIDw1                                      build/native/debug/lowLevel/libLowLevel.a(stm32f1xx_hal.o)
HAL_GetUIDw2                                      build/native/debug/lowLevel/libLowLevel.a(stm32f1xx_hal.o)
HAL_I2C_AbortCpltCallback                         build/native/debug/lowLevel/libLowLevel.a(stm32f1xx_hal_i2c.o)
HAL_I2C_AddrCallback                              build/native/debug/lowLevel/libLowLevel.a(stm32f1xx_hal_i2c.o)
HAL_I2C_DeInit                                    build/native/debug/lowLevel/libLowLevel.a(stm32f1xx_hal_i2c.o)
HAL_I2C_DisableListen_IT                          build/native/debug/lowLevel/libLowLevel.a(stm32f1xx_hal_i2c.o)
HAL_I2C_ER_IRQHandler                             build/native/debug/lowLevel/libLowLevel.a(stm32f1xx_hal_i2c.o)
HAL_I2C_EV_IRQHandler                             build/native/debug/lowLevel/libLowLevel.a(stm32f1xx_hal_i2c.o)
HAL_I2C_EnableListen_IT                           build/native/debug/lowLevel/libLowLevel.a(stm32f1xx_hal_i2c.o)
HAL_I2C_ErrorCallback                             build/native/debug/lowLevel/libLowLevel.a(stm32f1xx_hal_i2c.o)
HAL_I2C_GetError                                  build/native/debug/lowLevel/libLowLevel.a(stm32f1xx_hal_i2c.o)
HAL_I2C_GetMode                                   build/native/debug/lowLevel/libLowLevel.a(stm32f1xx_hal_i2c.o)
HAL_I2C_GetState                                  build/native/debug/lowLevel/libLowLevel.a(stm32f1xx_hal_i2c.o)
HAL_I2C_Init                                      build/native/debug/lowLevel/libLowLevel.a(stm32f1xx_hal_i2c.o)
                                                  build/native/debug/lowLevel/libLowLevel.a(main.o)
HAL_I2C_IsDeviceReady                             build/native/debug/lowLevel/libLowLevel.a(stm32f1xx_hal_i2c.o)
HAL_I2C_ListenCpltCallback                        build/native/debug/lowLevel/libLowLevel.a(stm32f1xx_hal_i2c.o)
HAL_I2C_MasterRxCpltCallback                      build/native/debug/lowLevel/libLowLevel.a(stm32f1xx_hal_i2c.o)
HAL_I2C_MasterTxCpltCallback                      build/native/debug/lowLevel/libLowLevel.a(stm32f1xx_hal_i2c.o)
HAL_I2C_Master_Abort_IT                           build/native/debug/lowLevel/libLowLevel.a(stm32f1xx_hal_i2c.o)
HAL_I2C_Master_Receive                            build/native/debug/lowLevel/libLowLevel.a(stm32f1xx_hal_i2c.o)
HAL_I2C_Master_Receive_DMA                        build/native/debug/lowLevel/libLowLevel.a(stm32f1xx_hal_i2c.o)
HAL_I2C_Master_Receive_IT                         build/native/debug/lowLevel/libLowLevel.a(stm32f1xx_hal_i2c.o)
HAL_I2C_Master_Seq_Receive_DMA                    build/native/debug/lowLevel/libLowLevel.a(stm32f1xx_hal_i2c.o)
HAL_I2C_Master_Seq_Receive_IT                     build/native/debug/lowLevel/libLowLevel.a(stm32f1xx_hal_i2c.o)
HAL_I2C_Master_Seq_Transmit_DMA                   build/native/debug/lowLevel/libLowLevel.a(stm32f1xx_hal_i2c.o)
HAL_I2C_Master_Seq_Transmit_IT                    build/native/debug/lowLevel/libLowLevel.a(stm32f1xx_hal_i2c.o)
HAL_I2C_Master_Transmit                           build/native/debug/lowLevel/libLowLevel.a(stm32f1xx_hal_i2c.o)
HAL_I2C_Master_Transmit_DMA                       build/native/debug/lowLevel/libLowLevel.a(stm32f1xx_hal_i2c.o)
HAL_I2C_Master_Transmit_IT                        build/native/debug/lowLevel/libLowLevel.a(stm32f1xx_hal_i2c.o)
HAL_I2C_MemRxCpltCallback                         build/native/debug/lowLevel/libLowLevel.a(stm32f1xx_hal_i2c.o)
HAL_I2C_MemTxCpltCallback                         build/native/debug/lowLevel/libLowLevel.a(stm32f1xx_hal_i2c.o)
HAL_I2C_Mem_Read                                  build/native/debug/lowLevel/libLowLevel.a(stm32f1xx_hal_i2c.o)
HAL_I2C_Mem_Read_DMA                              build/native/debug/lowLevel/libLowLevel.a(stm32f1xx_hal_i2c.o)
HAL_I2C_Mem_Read_IT                               build/native/debug/lowLevel/libLowLevel.a(stm32f1xx_hal_i2c.o)
HAL_I2C_Mem_Write                                 build/native/debug/lowLevel/libLowLevel.a(stm32f1xx_hal_i2c.o)
HAL_I2C_Mem_Write_DMA                             build/native/debug/lowLevel/libLowLevel.a(stm32f1xx_hal_i2c.o)
HAL_I2C_Mem_Write_IT                              build/native/debug/lowLevel/libLowLevel.a(stm32f1xx_hal_i2c.o)
HAL_I2C_MspDeInit                                 build/native/debug/lowLevel/libLowLevel.a(stm32f1xx_hal_msp.o)
HAL_I2C_MspInit                                   build/native/debug/lowLevel/libLowLevel.a(stm32f1xx_hal_msp.o)
HAL_I2C_SlaveRxCpltCallback                       build/native/debug/lowLevel/libLowLevel.a(stm32f1xx_hal_i2c.o)
HAL_I2C_SlaveTxCpltCallback                       build/native/debug/lowLevel/libLowLevel.a(stm32f1xx_hal_i2c.o)
HAL_I2C_Slave_Receive                             build/native/debug/lowLevel/libLowLevel.a(stm32f1xx_hal_i2c.o)
HAL_I2C_Slave_Receive_DMA                         build/native/debug/lowLevel/libLowLevel.a(stm32f1xx_hal_i2c.o)
HAL_I2C_Slave_Receive_IT                          build/native/debug/lowLevel/libLowLevel.a(stm32f1xx_hal_i2c.o)
HAL_I2C_Slave_Seq_Receive_DMA                     build/native/debug/lowLevel/libLowLevel.a(stm32f1xx_hal_i2c.o)
HAL_I2C_Slave_Seq_Receive_IT                      build/native/debug/lowLevel/libLowLevel.a(stm32f1xx_hal_i2c.o)
HAL_I2C_Slave_Seq_Transmit_DMA                    build/native/debug/lowLevel/libLowLevel.a(stm32f1xx_hal_i2c.o)
HAL_I2C_Slave_Seq_Transmit_IT                     build/native/debug/lowLevel/libLowLevel.a(stm32f1xx_hal_i2c.o)
HAL_I2C_Slave_Transmit                            build/native/debug/lowLevel/libLowLevel.a(stm32f1xx_hal_i2c.o)
HAL_I2C_Slave_Transmit_DMA                        build/native/debug/lowLevel/libLowLevel.a(stm32f1xx_hal_i2c.o)
HAL_I2C_Slave_Transmit_IT                         build/native/debug/lowLevel/libLowLevel.a(stm32f1xx_hal_i2c.o)
HAL_IncTick                                       build/native/debug/lowLevel/libLowLevel.a(stm32f1xx_hal.o)
                                                  build/native/debug/lowLevel/libLowLevel.a(stm32f1xx_it.o)
HAL_Init                                          build/native/debug/lowLevel/libLowLevel.a(stm32f1xx_hal.o)
                                                  build/native/debug/lowLevel/libLowLevel.a(main.o)
HAL_InitTick                                      build/native/debug/lowLevel/libLowLevel.a(stm32f1xx_hal.o)
                                                  build/native/debug/lowLevel/libLowLevel.a(stm32f1xx_hal_rcc.o)
HAL_MspDeInit                                     build/native/debug/lowLevel/libLowLevel.a(stm32f1xx_hal.o)
HAL_MspInit                                       build/native/debug/lowLevel/libLowLevel.a(stm32f1xx_hal_msp.o)
HAL_NVIC_ClearPendingIRQ                          build/native/debug/lowLevel/libLowLevel.a(stm32f1xx_hal_cortex.o)
HAL_NVIC_DisableIRQ                               build/native/debug/lowLevel/libLowLevel.a(stm32f1xx_hal_cortex.o)
HAL_NVIC_EnableIRQ                                build/native/debug/lowLevel/libLowLevel.a(stm32f1xx_hal_cortex.o)
HAL_NVIC_GetActive                                build/native/debug/lowLevel/libLowLevel.a(stm32f1xx_hal_cortex.o)
HAL_NVIC_GetPendingIRQ                            build/native/debug/lowLevel/libLowLevel.a(stm32f1xx_hal_cortex.o)
HAL_NVIC_GetPriority                              build/native/debug/lowLevel/libLowLevel.a(stm32f1xx_hal_cortex.o)
HAL_NVIC_GetPriorityGrouping                      build/native/debug/lowLevel/libLowLevel.a(stm32f1xx_hal_cortex.o)
HAL_NVIC_SetPendingIRQ                            build/native/debug/lowLevel/libLowLevel.a(stm32f1xx_hal_cortex.o)
HAL_NVIC_SetPriority                              build/native/debug/lowLevel/libLowLevel.a(stm32f1xx_hal_cortex.o)
                                                  build/native/debug/lowLevel/libLowLevel.a(clock.o)
                                                  build/native/debug/lowLevel/libLowLevel.a(stm32f1xx_hal.o)
HAL_NVIC_SetPriorityGrouping                      build/native/debug/lowLevel/libLowLevel.a(stm32f1xx_hal_cortex.o)
                                                  build/native/debug/lowLevel/libLowLevel.a(stm32f1xx_hal.o)
HAL_NVIC_SystemReset                              build/native/debug/lowLevel/libLowLevel.a(stm32f1xx_hal_cortex.o)
                                                  build/native/debug/lowLevel/libLowLevel.a(stm32f1xx_hal_flash.o)
HAL_PWR_ConfigPVD                                 build/native/debug/lowLevel/libLowLevel.a(stm32f1xx_hal_pwr.o)
HAL_PWR_DeInit                                    build/native/debug/lowLevel/libLowLevel.a(stm32f1xx_hal_pwr.o)
HAL_PWR_DisableBkUpAccess                         build/native/debug/lowLevel/libLowLevel.a(stm32f1xx_hal_pwr.o)
HAL_PWR_DisablePVD                                build/native/debug/lowLevel/libLowLevel.a(stm32f1xx_hal_pwr.o)
HAL_PWR_DisableSEVOnPend                          build/native/debug/lowLevel/libLowLevel.a(stm32f1xx_hal_pwr.o)
HAL_PWR_DisableSleepOnExit                        build/native/debug/lowLevel/libLowLevel.a(stm32f1xx_hal_pwr.o)
HAL_PWR_DisableWakeUpPin                          build/native/debug/lowLevel/libLowLevel.a(stm32f1xx_hal_pwr.o)
HAL_PWR_EnableBkUpAccess                          build/native/debug/lowLevel/libLowLevel.a(stm32f1xx_hal_pwr.o)
HAL_PWR_EnablePVD                                 build/native/debug/lowLevel/libLowLevel.a(stm32f1xx_hal_pwr.o)
HAL_PWR_EnableSEVOnPend                           build/native/debug/lowLevel/libLowLevel.a(stm32f1xx_hal_pwr.o)
HAL_PWR_EnableSleepOnExit                         build/native/debug/lowLevel/libLowLevel.a(stm32f1xx_hal_pwr.o)
HAL_PWR_EnableWakeUpPin                           build/native/debug/lowLevel/libLowLevel.a(stm32f1xx_hal_pwr.o)
HAL_PWR_EnterSLEEPMode                            build/native/debug/lowLevel/libLowLevel.a(stm32f1xx_hal_pwr.o)
HAL_PWR_EnterSTANDBYMode                          build/native/debug/lowLevel/libLowLevel.a(stm32f1xx_hal_pwr.o)
HAL_PWR_EnterSTOPMode                             build/native/debug/lowLevel/libLowLevel.a(stm32f1xx_hal_pwr.o)
HAL_PWR_PVDCallback                               build/native/debug/lowLevel/libLowLevel.a(stm32f1xx_hal_pwr.o)
HAL_PWR_PVD_IRQHandler                            build/native/debug/lowLevel/libLowLevel.a(stm32f1xx_hal_pwr.o)
HAL_RCCEx_GetPeriphCLKConfig                      build/native/debug/lowLevel/libLowLevel.a(stm32f1xx_hal_rcc_ex.o)
HAL_RCCEx_GetPeriphCLKFreq                        build/native/debug/lowLevel/libLowLevel.a(stm32f1xx_hal_rcc_ex.o)
HAL_RCCEx_PeriphCLKConfig                         build/native/debug/lowLevel/libLowLevel.a(stm32f1xx_hal_rcc_ex.o)
HAL_RCC_CSSCallback                               build/native/debug/lowLevel/libLowLevel.a(stm32f1xx_hal_rcc.o)
HAL_RCC_ClockConfig                               build/native/debug/lowLevel/libLowLevel.a(stm32f1xx_hal_rcc.o)
                                                  build/native/debug/lowLevel/libLowLevel.a(clock.o)
                                                  build/native/debug/lowLevel/libLowLevel.a(main.o)
HAL_RCC_DeInit                                    build/native/debug/lowLevel/libLowLevel.a(stm32f1xx_hal_rcc.o)
HAL_RCC_DisableCSS                                build/native/debug/lowLevel/libLowLevel.a(stm32f1xx_hal_rcc.o)
HAL_RCC_EnableCSS                                 build/native/debug/lowLevel/libLowLevel.a(stm32f1xx_hal_rcc.o)
HAL_RCC_GetClockConfig                            build/native/debug/lowLevel/libLowLevel.a(stm32f1xx_hal_rcc.o)
HAL_RCC_GetHCLKFreq                               build/native/debug/lowLevel/libLowLevel.a(stm32f1xx_hal_rcc.o)
                                                  build/native/debug/lowLevel/libLowLevel.a(clock.o)
HAL_RCC_GetOscConfig                              build/native/debug/lowLevel/libLowLevel.a(stm32f1xx_hal_rcc.o)
HAL_RCC_GetPCLK1Freq                              build/native/debug/lowLevel/libLowLevel.a(stm32f1xx_hal_rcc.o)
                                                  build/native/debug/lowLevel/libLowLevel.a(stm32f1xx_hal_i2c.o)
HAL_RCC_GetPCLK2Freq                              build/native/debug/lowLevel/libLowLevel.a(stm32f1xx_hal_rcc.o)
                                                  build/native/debug/lowLevel/libLowLevel.a(stm32f1xx_hal_rcc_ex.o)
HAL_RCC_GetSysClockFreq                           build/native/debug/lowLevel/libLowLevel.a(stm32f1xx_hal_rcc.o)
HAL_RCC_MCOConfig                                 build/native/debug/lowLevel/libLowLevel.a(stm32f1xx_hal_rcc.o)
HAL_RCC_NMI_IRQHandler                            build/native/debug/lowLevel/libLowLevel.a(stm32f1xx_hal_rcc.o)
HAL_RCC_OscConfig                                 build/native/debug/lowLevel/libLowLevel.a(stm32f1xx_hal_rcc.o)
                                                  build/native/debug/lowLevel/libLowLevel.a(clock.o)
                                                  build/native/debug/lowLevel/libLowLevel.a(main.o)
HAL_ResumeTick                                    build/native/debug/lowLevel/libLowLevel.a(stm32f1xx_hal.o)
HAL_SYSTICK_CLKSourceConfig                       build/native/debug/lowLevel/libLowLevel.a(stm32f1xx_hal_cortex.o)
                                                  build/native/debug/lowLevel/libLowLevel.a(clock.o)
HAL_SYSTICK_Callback                              build/native/debug/lowLevel/libLowLevel.a(stm32f1xx_hal_cortex.o)
HAL_SYSTICK_Config                                build/native/debug/lowLevel/libLowLevel.a(stm32f1xx_hal_cortex.o)
                                                  build/native/debug/lowLevel/libLowLevel.a(clock.o)
                                                  build/native/debug/lowLevel/libLowLevel.a(stm32f1xx_hal.o)
HAL_SYSTICK_IRQHandler                            build/native/debug/lowLevel/libLowLevel.a(stm32f1xx_hal_cortex.o)
HAL_SetTickFreq                                   build/native/debug/lowLevel/libLowLevel.a(stm32f1xx_hal.o)
HAL_SuspendTick                                   build/native/debug/lowLevel/libLowLevel.a(stm32f1xx_hal.o)
HardFault_Handler                                 build/native/debug/lowLevel/libLowLevel.a(stm32f1xx_it.o)
I2C1_ER_IRQHandler                                build/native/debug/lowLevel/libLowLevel.a(startup_stm32f103xb.o)
I2C1_EV_IRQHandler                                build/native/debug/lowLevel/libLowLevel.a(startup_stm32f103xb.o)
I2C2_ER_IRQHandler                                build/native/debug/lowLevel/libLowLevel.a(startup_stm32f103xb.o)
I2C2_EV_IRQHandler                                build/native/debug/lowLevel/libLowLevel.a(startup_stm32f103xb.o)
InterruptQueue::queue                             build/native/debug/application/application.o
                                                  build/native/debug/application/CAN.o
MainQueue::queue                                  build/native/debug/application/application.o
